{
  "abi": [
    {
      "inputs": [
        {
          "internalType": "bytes16",
          "name": "appIdentifier",
          "type": "bytes16"
        }
      ],
      "stateMutability": "nonpayable",
      "type": "constructor"
    },
    {
      "inputs": [],
      "name": "ADDRESSES_PROVIDER",
      "outputs": [
        {
          "internalType": "contract IAddressesProvider",
          "name": "",
          "type": "address"
        }
      ],
      "stateMutability": "view",
      "type": "function"
    },
    {
      "inputs": [],
      "name": "SISMO_CONNECT_LIB_VERSION",
      "outputs": [
        {
          "internalType": "uint256",
          "name": "",
          "type": "uint256"
        }
      ],
      "stateMutability": "view",
      "type": "function"
    },
    {
      "inputs": [],
      "name": "appId",
      "outputs": [
        {
          "internalType": "bytes16",
          "name": "",
          "type": "bytes16"
        }
      ],
      "stateMutability": "view",
      "type": "function"
    },
    {
      "inputs": [
        {
          "internalType": "bool",
          "name": "isSelectableByUser",
          "type": "bool"
        }
      ],
      "name": "buildSignature",
      "outputs": [
        {
          "components": [
            {
              "internalType": "bytes",
              "name": "message",
              "type": "bytes"
            },
            {
              "internalType": "bool",
              "name": "isSelectableByUser",
              "type": "bool"
            },
            {
              "internalType": "bytes",
              "name": "extraData",
              "type": "bytes"
            }
          ],
          "internalType": "struct SignatureRequest",
          "name": "",
          "type": "tuple"
        }
      ],
      "stateMutability": "view",
      "type": "function"
    },
    {
      "inputs": [
        {
          "internalType": "bytes",
          "name": "message",
          "type": "bytes"
        },
        {
          "internalType": "bytes",
          "name": "extraData",
          "type": "bytes"
        }
      ],
      "name": "buildSignature",
      "outputs": [
        {
          "components": [
            {
              "internalType": "bytes",
              "name": "message",
              "type": "bytes"
            },
            {
              "internalType": "bool",
              "name": "isSelectableByUser",
              "type": "bool"
            },
            {
              "internalType": "bytes",
              "name": "extraData",
              "type": "bytes"
            }
          ],
          "internalType": "struct SignatureRequest",
          "name": "",
          "type": "tuple"
        }
      ],
      "stateMutability": "view",
      "type": "function"
    },
    {
      "inputs": [
        {
          "internalType": "bool",
          "name": "isSelectableByUser",
          "type": "bool"
        },
        {
          "internalType": "bytes",
          "name": "extraData",
          "type": "bytes"
        }
      ],
      "name": "buildSignature",
      "outputs": [
        {
          "components": [
            {
              "internalType": "bytes",
              "name": "message",
              "type": "bytes"
            },
            {
              "internalType": "bool",
              "name": "isSelectableByUser",
              "type": "bool"
            },
            {
              "internalType": "bytes",
              "name": "extraData",
              "type": "bytes"
            }
          ],
          "internalType": "struct SignatureRequest",
          "name": "",
          "type": "tuple"
        }
      ],
      "stateMutability": "view",
      "type": "function"
    },
    {
      "inputs": [
        {
          "internalType": "bytes",
          "name": "message",
          "type": "bytes"
        },
        {
          "internalType": "bool",
          "name": "isSelectableByUser",
          "type": "bool"
        },
        {
          "internalType": "bytes",
          "name": "extraData",
          "type": "bytes"
        }
      ],
      "name": "buildSignature",
      "outputs": [
        {
          "components": [
            {
              "internalType": "bytes",
              "name": "message",
              "type": "bytes"
            },
            {
              "internalType": "bool",
              "name": "isSelectableByUser",
              "type": "bool"
            },
            {
              "internalType": "bytes",
              "name": "extraData",
              "type": "bytes"
            }
          ],
          "internalType": "struct SignatureRequest",
          "name": "",
          "type": "tuple"
        }
      ],
      "stateMutability": "view",
      "type": "function"
    }
  ],
  "bytecode": {
    "object": "0x60806040523480156200001157600080fd5b5060405162000cd038038062000cd0833981016040819052620000349162000432565b600580546001600160801b031916608083901c179055604080518082018252601781527f7369736d6f436f6e6e65637456657269666965722d76310000000000000000006020820152905163349f642f60e11b815260008051602062000cb08339815191529163693ec85e91620000af919060040162000465565b602060405180830381865afa158015620000cd573d6000803e3d6000fd5b505050506040513d601f19601f82011682018060405250810190620000f39190620004b5565b600080546001600160a01b0319166001600160a01b0392909216919091179055604080518082018252601581527f61757468526571756573744275696c6465722d763100000000000000000000006020820152905163349f642f60e11b815260008051602062000cb08339815191529163693ec85e9162000178919060040162000465565b602060405180830381865afa15801562000196573d6000803e3d6000fd5b505050506040513d601f19601f82011682018060405250810190620001bc9190620004b5565b600180546001600160a01b0319166001600160a01b0392909216919091179055604080518082018252601681527f636c61696d526571756573744275696c6465722d7631000000000000000000006020820152905163349f642f60e11b815260008051602062000cb08339815191529163693ec85e9162000241919060040162000465565b602060405180830381865afa1580156200025f573d6000803e3d6000fd5b505050506040513d601f19601f82011682018060405250810190620002859190620004b5565b600280546001600160a01b0319166001600160a01b0392909216919091179055604080518082018252601381527f7369676e61747572654275696c6465722d7631000000000000000000000000006020820152905163349f642f60e11b815260008051602062000cb08339815191529163693ec85e916200030a919060040162000465565b602060405180830381865afa15801562000328573d6000803e3d6000fd5b505050506040513d601f19601f820116820180604052508101906200034e9190620004b5565b600380546001600160a01b0319166001600160a01b03929092169190911790556040805180820182526011815270726571756573744275696c6465722d763160781b6020820152905163349f642f60e11b815260008051602062000cb08339815191529163693ec85e91620003c7919060040162000465565b602060405180830381865afa158015620003e5573d6000803e3d6000fd5b505050506040513d601f19601f820116820180604052508101906200040b9190620004b5565b600480546001600160a01b0319166001600160a01b039290921691909117905550620004e0565b6000602082840312156200044557600080fd5b81516001600160801b0319811681146200045e57600080fd5b9392505050565b600060208083528351808285015260005b81811015620004945785810183015185820160400152820162000476565b506000604082860101526040601f19601f8301168501019250505092915050565b600060208284031215620004c857600080fd5b81516001600160a01b03811681146200045e57600080fd5b6107c080620004f06000396000f3fe608060405234801561001057600080fd5b506004361061007d5760003560e01c806380afdea81161005b57806380afdea8146100ed578063c9512d991461011c578063cea8eb4e14610132578063e06897031461014557600080fd5b80630542975c1461008257806349161195146100ba5780636e01370e146100da575b600080fd5b61009d733340ac0cafb3ae34ddd53dba0d7344c1cf3efe0581565b6040516001600160a01b0390911681526020015b60405180910390f35b6100cd6100c8366004610372565b610158565b6040516100b191906103df565b6100cd6100e83660046104f2565b6101e8565b6005546100fa9060801b81565b6040516fffffffffffffffffffffffffffffffff1990911681526020016100b1565b610124600281565b6040519081526020016100b1565b6100cd610140366004610556565b61027e565b6100cd61015336600461059c565b6102c8565b604080516060808201835280825260006020830152818301526003549151631f6c2b9760e11b8152831515600482015290916001600160a01b031690633ed8572e90602401600060405180830381865afa1580156101ba573d6000803e3d6000fd5b505050506040513d6000823e601f3d908101601f191682016040526101e29190810190610659565b92915050565b604080516060808201835280825260006020830152818301526003549151631778ed1360e21b815290916001600160a01b031690635de3b44c906102329086908690600401610713565b600060405180830381865afa15801561024f573d6000803e3d6000fd5b505050506040513d6000823e601f3d908101601f191682016040526102779190810190610659565b9392505050565b604080516060808201835280825260006020830152818301526003549151631d1db46b60e21b815290916001600160a01b031690637476d1ac906102329086908690600401610738565b604080516060808201835280825260006020830152818301526003549151631f785c9560e01b815290916001600160a01b031690631f785c959061031490879087908790600401610753565b600060405180830381865afa158015610331573d6000803e3d6000fd5b505050506040513d6000823e601f3d908101601f191682016040526103599190810190610659565b949350505050565b801515811461036f57600080fd5b50565b60006020828403121561038457600080fd5b813561027781610361565b60005b838110156103aa578181015183820152602001610392565b50506000910152565b600081518084526103cb81602086016020860161038f565b601f01601f19169290920160200192915050565b6020815260008251606060208401526103fb60808401826103b3565b90506020840151151560408401526040840151601f1984830301606085015261042482826103b3565b95945050505050565b634e487b7160e01b600052604160045260246000fd5b604051601f8201601f1916810167ffffffffffffffff8111828210171561046c5761046c61042d565b604052919050565b600067ffffffffffffffff82111561048e5761048e61042d565b50601f01601f191660200190565b600082601f8301126104ad57600080fd5b81356104c06104bb82610474565b610443565b8181528460208386010111156104d557600080fd5b816020850160208301376000918101602001919091529392505050565b6000806040838503121561050557600080fd5b823567ffffffffffffffff8082111561051d57600080fd5b6105298683870161049c565b9350602085013591508082111561053f57600080fd5b5061054c8582860161049c565b9150509250929050565b6000806040838503121561056957600080fd5b823561057481610361565b9150602083013567ffffffffffffffff81111561059057600080fd5b61054c8582860161049c565b6000806000606084860312156105b157600080fd5b833567ffffffffffffffff808211156105c957600080fd5b6105d58783880161049c565b9450602086013591506105e782610361565b909250604085013590808211156105fd57600080fd5b5061060a8682870161049c565b9150509250925092565b600082601f83011261062557600080fd5b81516106336104bb82610474565b81815284602083860101111561064857600080fd5b61035982602083016020870161038f565b60006020828403121561066b57600080fd5b815167ffffffffffffffff8082111561068357600080fd5b908301906060828603121561069757600080fd5b6040516060810181811083821117156106b2576106b261042d565b6040528251828111156106c457600080fd5b6106d087828601610614565b82525060208301516106e181610361565b60208201526040830151828111156106f857600080fd5b61070487828601610614565b60408301525095945050505050565b60408152600061072660408301856103b3565b828103602084015261042481856103b3565b821515815260406020820152600061035960408301846103b3565b60608152600061076660608301866103b3565b8415156020840152828103604084015261078081856103b3565b969550505050505056fea26469706673582212207ac94a1dc1bd28f68e052b37e5c4f3700c5dd8df153a300b2ff9c0bffdcb764a64736f6c634300081300330000000000000000000000003340ac0cafb3ae34ddd53dba0d7344c1cf3efe05",
    "linkReferences": {}
  },
  "methodIdentifiers": {
    "ADDRESSES_PROVIDER()": "0542975c",
    "SISMO_CONNECT_LIB_VERSION()": "c9512d99",
    "appId()": "80afdea8",
    "buildSignature(bool)": "49161195",
    "buildSignature(bool,bytes)": "cea8eb4e",
    "buildSignature(bytes,bool,bytes)": "e0689703",
    "buildSignature(bytes,bytes)": "6e01370e"
  },
  "id": 20
}