{
  "abi": [
    {
      "inputs": [],
      "name": "DEFAULT_NAMESPACE",
      "outputs": [
        {
          "internalType": "bytes16",
          "name": "",
          "type": "bytes16"
        }
      ],
      "stateMutability": "view",
      "type": "function"
    },
    {
      "inputs": [
        {
          "components": [
            {
              "internalType": "enum ClaimType",
              "name": "claimType",
              "type": "uint8"
            },
            {
              "internalType": "bytes16",
              "name": "groupId",
              "type": "bytes16"
            },
            {
              "internalType": "bytes16",
              "name": "groupTimestamp",
              "type": "bytes16"
            },
            {
              "internalType": "uint256",
              "name": "value",
              "type": "uint256"
            },
            {
              "internalType": "bool",
              "name": "isOptional",
              "type": "bool"
            },
            {
              "internalType": "bool",
              "name": "isSelectableByUser",
              "type": "bool"
            },
            {
              "internalType": "bytes",
              "name": "extraData",
              "type": "bytes"
            }
          ],
          "internalType": "struct ClaimRequest",
          "name": "claim",
          "type": "tuple"
        },
        {
          "internalType": "bytes16",
          "name": "appId",
          "type": "bytes16"
        }
      ],
      "name": "build",
      "outputs": [
        {
          "components": [
            {
              "internalType": "bytes16",
              "name": "appId",
              "type": "bytes16"
            },
            {
              "internalType": "bytes16",
              "name": "namespace",
              "type": "bytes16"
            },
            {
              "components": [
                {
                  "internalType": "enum AuthType",
                  "name": "authType",
                  "type": "uint8"
                },
                {
                  "internalType": "uint256",
                  "name": "userId",
                  "type": "uint256"
                },
                {
                  "internalType": "bool",
                  "name": "isAnon",
                  "type": "bool"
                },
                {
                  "internalType": "bool",
                  "name": "isOptional",
                  "type": "bool"
                },
                {
                  "internalType": "bool",
                  "name": "isSelectableByUser",
                  "type": "bool"
                },
                {
                  "internalType": "bytes",
                  "name": "extraData",
                  "type": "bytes"
                }
              ],
              "internalType": "struct AuthRequest[]",
              "name": "auths",
              "type": "tuple[]"
            },
            {
              "components": [
                {
                  "internalType": "enum ClaimType",
                  "name": "claimType",
                  "type": "uint8"
                },
                {
                  "internalType": "bytes16",
                  "name": "groupId",
                  "type": "bytes16"
                },
                {
                  "internalType": "bytes16",
                  "name": "groupTimestamp",
                  "type": "bytes16"
                },
                {
                  "internalType": "uint256",
                  "name": "value",
                  "type": "uint256"
                },
                {
                  "internalType": "bool",
                  "name": "isOptional",
                  "type": "bool"
                },
                {
                  "internalType": "bool",
                  "name": "isSelectableByUser",
                  "type": "bool"
                },
                {
                  "internalType": "bytes",
                  "name": "extraData",
                  "type": "bytes"
                }
              ],
              "internalType": "struct ClaimRequest[]",
              "name": "claims",
              "type": "tuple[]"
            },
            {
              "components": [
                {
                  "internalType": "bytes",
                  "name": "message",
                  "type": "bytes"
                },
                {
                  "internalType": "bool",
                  "name": "isSelectableByUser",
                  "type": "bool"
                },
                {
                  "internalType": "bytes",
                  "name": "extraData",
                  "type": "bytes"
                }
              ],
              "internalType": "struct SignatureRequest",
              "name": "signature",
              "type": "tuple"
            }
          ],
          "internalType": "struct SismoConnectRequest",
          "name": "",
          "type": "tuple"
        }
      ],
      "stateMutability": "view",
      "type": "function"
    },
    {
      "inputs": [
        {
          "components": [
            {
              "internalType": "enum AuthType",
              "name": "authType",
              "type": "uint8"
            },
            {
              "internalType": "uint256",
              "name": "userId",
              "type": "uint256"
            },
            {
              "internalType": "bool",
              "name": "isAnon",
              "type": "bool"
            },
            {
              "internalType": "bool",
              "name": "isOptional",
              "type": "bool"
            },
            {
              "internalType": "bool",
              "name": "isSelectableByUser",
              "type": "bool"
            },
            {
              "internalType": "bytes",
              "name": "extraData",
              "type": "bytes"
            }
          ],
          "internalType": "struct AuthRequest",
          "name": "auth",
          "type": "tuple"
        },
        {
          "components": [
            {
              "internalType": "bytes",
              "name": "message",
              "type": "bytes"
            },
            {
              "internalType": "bool",
              "name": "isSelectableByUser",
              "type": "bool"
            },
            {
              "internalType": "bytes",
              "name": "extraData",
              "type": "bytes"
            }
          ],
          "internalType": "struct SignatureRequest",
          "name": "signature",
          "type": "tuple"
        },
        {
          "internalType": "bytes16",
          "name": "appId",
          "type": "bytes16"
        }
      ],
      "name": "build",
      "outputs": [
        {
          "components": [
            {
              "internalType": "bytes16",
              "name": "appId",
              "type": "bytes16"
            },
            {
              "internalType": "bytes16",
              "name": "namespace",
              "type": "bytes16"
            },
            {
              "components": [
                {
                  "internalType": "enum AuthType",
                  "name": "authType",
                  "type": "uint8"
                },
                {
                  "internalType": "uint256",
                  "name": "userId",
                  "type": "uint256"
                },
                {
                  "internalType": "bool",
                  "name": "isAnon",
                  "type": "bool"
                },
                {
                  "internalType": "bool",
                  "name": "isOptional",
                  "type": "bool"
                },
                {
                  "internalType": "bool",
                  "name": "isSelectableByUser",
                  "type": "bool"
                },
                {
                  "internalType": "bytes",
                  "name": "extraData",
                  "type": "bytes"
                }
              ],
              "internalType": "struct AuthRequest[]",
              "name": "auths",
              "type": "tuple[]"
            },
            {
              "components": [
                {
                  "internalType": "enum ClaimType",
                  "name": "claimType",
                  "type": "uint8"
                },
                {
                  "internalType": "bytes16",
                  "name": "groupId",
                  "type": "bytes16"
                },
                {
                  "internalType": "bytes16",
                  "name": "groupTimestamp",
                  "type": "bytes16"
                },
                {
                  "internalType": "uint256",
                  "name": "value",
                  "type": "uint256"
                },
                {
                  "internalType": "bool",
                  "name": "isOptional",
                  "type": "bool"
                },
                {
                  "internalType": "bool",
                  "name": "isSelectableByUser",
                  "type": "bool"
                },
                {
                  "internalType": "bytes",
                  "name": "extraData",
                  "type": "bytes"
                }
              ],
              "internalType": "struct ClaimRequest[]",
              "name": "claims",
              "type": "tuple[]"
            },
            {
              "components": [
                {
                  "internalType": "bytes",
                  "name": "message",
                  "type": "bytes"
                },
                {
                  "internalType": "bool",
                  "name": "isSelectableByUser",
                  "type": "bool"
                },
                {
                  "internalType": "bytes",
                  "name": "extraData",
                  "type": "bytes"
                }
              ],
              "internalType": "struct SignatureRequest",
              "name": "signature",
              "type": "tuple"
            }
          ],
          "internalType": "struct SismoConnectRequest",
          "name": "",
          "type": "tuple"
        }
      ],
      "stateMutability": "pure",
      "type": "function"
    },
    {
      "inputs": [
        {
          "components": [
            {
              "internalType": "enum ClaimType",
              "name": "claimType",
              "type": "uint8"
            },
            {
              "internalType": "bytes16",
              "name": "groupId",
              "type": "bytes16"
            },
            {
              "internalType": "bytes16",
              "name": "groupTimestamp",
              "type": "bytes16"
            },
            {
              "internalType": "uint256",
              "name": "value",
              "type": "uint256"
            },
            {
              "internalType": "bool",
              "name": "isOptional",
              "type": "bool"
            },
            {
              "internalType": "bool",
              "name": "isSelectableByUser",
              "type": "bool"
            },
            {
              "internalType": "bytes",
              "name": "extraData",
              "type": "bytes"
            }
          ],
          "internalType": "struct ClaimRequest[]",
          "name": "claims",
          "type": "tuple[]"
        },
        {
          "components": [
            {
              "internalType": "bytes",
              "name": "message",
              "type": "bytes"
            },
            {
              "internalType": "bool",
              "name": "isSelectableByUser",
              "type": "bool"
            },
            {
              "internalType": "bytes",
              "name": "extraData",
              "type": "bytes"
            }
          ],
          "internalType": "struct SignatureRequest",
          "name": "signature",
          "type": "tuple"
        },
        {
          "internalType": "bytes16",
          "name": "appId",
          "type": "bytes16"
        }
      ],
      "name": "build",
      "outputs": [
        {
          "components": [
            {
              "internalType": "bytes16",
              "name": "appId",
              "type": "bytes16"
            },
            {
              "internalType": "bytes16",
              "name": "namespace",
              "type": "bytes16"
            },
            {
              "components": [
                {
                  "internalType": "enum AuthType",
                  "name": "authType",
                  "type": "uint8"
                },
                {
                  "internalType": "uint256",
                  "name": "userId",
                  "type": "uint256"
                },
                {
                  "internalType": "bool",
                  "name": "isAnon",
                  "type": "bool"
                },
                {
                  "internalType": "bool",
                  "name": "isOptional",
                  "type": "bool"
                },
                {
                  "internalType": "bool",
                  "name": "isSelectableByUser",
                  "type": "bool"
                },
                {
                  "internalType": "bytes",
                  "name": "extraData",
                  "type": "bytes"
                }
              ],
              "internalType": "struct AuthRequest[]",
              "name": "auths",
              "type": "tuple[]"
            },
            {
              "components": [
                {
                  "internalType": "enum ClaimType",
                  "name": "claimType",
                  "type": "uint8"
                },
                {
                  "internalType": "bytes16",
                  "name": "groupId",
                  "type": "bytes16"
                },
                {
                  "internalType": "bytes16",
                  "name": "groupTimestamp",
                  "type": "bytes16"
                },
                {
                  "internalType": "uint256",
                  "name": "value",
                  "type": "uint256"
                },
                {
                  "internalType": "bool",
                  "name": "isOptional",
                  "type": "bool"
                },
                {
                  "internalType": "bool",
                  "name": "isSelectableByUser",
                  "type": "bool"
                },
                {
                  "internalType": "bytes",
                  "name": "extraData",
                  "type": "bytes"
                }
              ],
              "internalType": "struct ClaimRequest[]",
              "name": "claims",
              "type": "tuple[]"
            },
            {
              "components": [
                {
                  "internalType": "bytes",
                  "name": "message",
                  "type": "bytes"
                },
                {
                  "internalType": "bool",
                  "name": "isSelectableByUser",
                  "type": "bool"
                },
                {
                  "internalType": "bytes",
                  "name": "extraData",
                  "type": "bytes"
                }
              ],
              "internalType": "struct SignatureRequest",
              "name": "signature",
              "type": "tuple"
            }
          ],
          "internalType": "struct SismoConnectRequest",
          "name": "",
          "type": "tuple"
        }
      ],
      "stateMutability": "pure",
      "type": "function"
    },
    {
      "inputs": [
        {
          "components": [
            {
              "internalType": "enum AuthType",
              "name": "authType",
              "type": "uint8"
            },
            {
              "internalType": "uint256",
              "name": "userId",
              "type": "uint256"
            },
            {
              "internalType": "bool",
              "name": "isAnon",
              "type": "bool"
            },
            {
              "internalType": "bool",
              "name": "isOptional",
              "type": "bool"
            },
            {
              "internalType": "bool",
              "name": "isSelectableByUser",
              "type": "bool"
            },
            {
              "internalType": "bytes",
              "name": "extraData",
              "type": "bytes"
            }
          ],
          "internalType": "struct AuthRequest[]",
          "name": "auths",
          "type": "tuple[]"
        },
        {
          "internalType": "bytes16",
          "name": "appId",
          "type": "bytes16"
        }
      ],
      "name": "build",
      "outputs": [
        {
          "components": [
            {
              "internalType": "bytes16",
              "name": "appId",
              "type": "bytes16"
            },
            {
              "internalType": "bytes16",
              "name": "namespace",
              "type": "bytes16"
            },
            {
              "components": [
                {
                  "internalType": "enum AuthType",
                  "name": "authType",
                  "type": "uint8"
                },
                {
                  "internalType": "uint256",
                  "name": "userId",
                  "type": "uint256"
                },
                {
                  "internalType": "bool",
                  "name": "isAnon",
                  "type": "bool"
                },
                {
                  "internalType": "bool",
                  "name": "isOptional",
                  "type": "bool"
                },
                {
                  "internalType": "bool",
                  "name": "isSelectableByUser",
                  "type": "bool"
                },
                {
                  "internalType": "bytes",
                  "name": "extraData",
                  "type": "bytes"
                }
              ],
              "internalType": "struct AuthRequest[]",
              "name": "auths",
              "type": "tuple[]"
            },
            {
              "components": [
                {
                  "internalType": "enum ClaimType",
                  "name": "claimType",
                  "type": "uint8"
                },
                {
                  "internalType": "bytes16",
                  "name": "groupId",
                  "type": "bytes16"
                },
                {
                  "internalType": "bytes16",
                  "name": "groupTimestamp",
                  "type": "bytes16"
                },
                {
                  "internalType": "uint256",
                  "name": "value",
                  "type": "uint256"
                },
                {
                  "internalType": "bool",
                  "name": "isOptional",
                  "type": "bool"
                },
                {
                  "internalType": "bool",
                  "name": "isSelectableByUser",
                  "type": "bool"
                },
                {
                  "internalType": "bytes",
                  "name": "extraData",
                  "type": "bytes"
                }
              ],
              "internalType": "struct ClaimRequest[]",
              "name": "claims",
              "type": "tuple[]"
            },
            {
              "components": [
                {
                  "internalType": "bytes",
                  "name": "message",
                  "type": "bytes"
                },
                {
                  "internalType": "bool",
                  "name": "isSelectableByUser",
                  "type": "bool"
                },
                {
                  "internalType": "bytes",
                  "name": "extraData",
                  "type": "bytes"
                }
              ],
              "internalType": "struct SignatureRequest",
              "name": "signature",
              "type": "tuple"
            }
          ],
          "internalType": "struct SismoConnectRequest",
          "name": "",
          "type": "tuple"
        }
      ],
      "stateMutability": "view",
      "type": "function"
    },
    {
      "inputs": [
        {
          "components": [
            {
              "internalType": "enum AuthType",
              "name": "authType",
              "type": "uint8"
            },
            {
              "internalType": "uint256",
              "name": "userId",
              "type": "uint256"
            },
            {
              "internalType": "bool",
              "name": "isAnon",
              "type": "bool"
            },
            {
              "internalType": "bool",
              "name": "isOptional",
              "type": "bool"
            },
            {
              "internalType": "bool",
              "name": "isSelectableByUser",
              "type": "bool"
            },
            {
              "internalType": "bytes",
              "name": "extraData",
              "type": "bytes"
            }
          ],
          "internalType": "struct AuthRequest[]",
          "name": "auths",
          "type": "tuple[]"
        },
        {
          "components": [
            {
              "internalType": "enum ClaimType",
              "name": "claimType",
              "type": "uint8"
            },
            {
              "internalType": "bytes16",
              "name": "groupId",
              "type": "bytes16"
            },
            {
              "internalType": "bytes16",
              "name": "groupTimestamp",
              "type": "bytes16"
            },
            {
              "internalType": "uint256",
              "name": "value",
              "type": "uint256"
            },
            {
              "internalType": "bool",
              "name": "isOptional",
              "type": "bool"
            },
            {
              "internalType": "bool",
              "name": "isSelectableByUser",
              "type": "bool"
            },
            {
              "internalType": "bytes",
              "name": "extraData",
              "type": "bytes"
            }
          ],
          "internalType": "struct ClaimRequest[]",
          "name": "claims",
          "type": "tuple[]"
        },
        {
          "internalType": "bytes16",
          "name": "appId",
          "type": "bytes16"
        },
        {
          "internalType": "bytes16",
          "name": "namespace",
          "type": "bytes16"
        }
      ],
      "name": "build",
      "outputs": [
        {
          "components": [
            {
              "internalType": "bytes16",
              "name": "appId",
              "type": "bytes16"
            },
            {
              "internalType": "bytes16",
              "name": "namespace",
              "type": "bytes16"
            },
            {
              "components": [
                {
                  "internalType": "enum AuthType",
                  "name": "authType",
                  "type": "uint8"
                },
                {
                  "internalType": "uint256",
                  "name": "userId",
                  "type": "uint256"
                },
                {
                  "internalType": "bool",
                  "name": "isAnon",
                  "type": "bool"
                },
                {
                  "internalType": "bool",
                  "name": "isOptional",
                  "type": "bool"
                },
                {
                  "internalType": "bool",
                  "name": "isSelectableByUser",
                  "type": "bool"
                },
                {
                  "internalType": "bytes",
                  "name": "extraData",
                  "type": "bytes"
                }
              ],
              "internalType": "struct AuthRequest[]",
              "name": "auths",
              "type": "tuple[]"
            },
            {
              "components": [
                {
                  "internalType": "enum ClaimType",
                  "name": "claimType",
                  "type": "uint8"
                },
                {
                  "internalType": "bytes16",
                  "name": "groupId",
                  "type": "bytes16"
                },
                {
                  "internalType": "bytes16",
                  "name": "groupTimestamp",
                  "type": "bytes16"
                },
                {
                  "internalType": "uint256",
                  "name": "value",
                  "type": "uint256"
                },
                {
                  "internalType": "bool",
                  "name": "isOptional",
                  "type": "bool"
                },
                {
                  "internalType": "bool",
                  "name": "isSelectableByUser",
                  "type": "bool"
                },
                {
                  "internalType": "bytes",
                  "name": "extraData",
                  "type": "bytes"
                }
              ],
              "internalType": "struct ClaimRequest[]",
              "name": "claims",
              "type": "tuple[]"
            },
            {
              "components": [
                {
                  "internalType": "bytes",
                  "name": "message",
                  "type": "bytes"
                },
                {
                  "internalType": "bool",
                  "name": "isSelectableByUser",
                  "type": "bool"
                },
                {
                  "internalType": "bytes",
                  "name": "extraData",
                  "type": "bytes"
                }
              ],
              "internalType": "struct SignatureRequest",
              "name": "signature",
              "type": "tuple"
            }
          ],
          "internalType": "struct SismoConnectRequest",
          "name": "",
          "type": "tuple"
        }
      ],
      "stateMutability": "view",
      "type": "function"
    },
    {
      "inputs": [
        {
          "components": [
            {
              "internalType": "enum AuthType",
              "name": "authType",
              "type": "uint8"
            },
            {
              "internalType": "uint256",
              "name": "userId",
              "type": "uint256"
            },
            {
              "internalType": "bool",
              "name": "isAnon",
              "type": "bool"
            },
            {
              "internalType": "bool",
              "name": "isOptional",
              "type": "bool"
            },
            {
              "internalType": "bool",
              "name": "isSelectableByUser",
              "type": "bool"
            },
            {
              "internalType": "bytes",
              "name": "extraData",
              "type": "bytes"
            }
          ],
          "internalType": "struct AuthRequest",
          "name": "auth",
          "type": "tuple"
        },
        {
          "components": [
            {
              "internalType": "bytes",
              "name": "message",
              "type": "bytes"
            },
            {
              "internalType": "bool",
              "name": "isSelectableByUser",
              "type": "bool"
            },
            {
              "internalType": "bytes",
              "name": "extraData",
              "type": "bytes"
            }
          ],
          "internalType": "struct SignatureRequest",
          "name": "signature",
          "type": "tuple"
        },
        {
          "internalType": "bytes16",
          "name": "appId",
          "type": "bytes16"
        },
        {
          "internalType": "bytes16",
          "name": "namespace",
          "type": "bytes16"
        }
      ],
      "name": "build",
      "outputs": [
        {
          "components": [
            {
              "internalType": "bytes16",
              "name": "appId",
              "type": "bytes16"
            },
            {
              "internalType": "bytes16",
              "name": "namespace",
              "type": "bytes16"
            },
            {
              "components": [
                {
                  "internalType": "enum AuthType",
                  "name": "authType",
                  "type": "uint8"
                },
                {
                  "internalType": "uint256",
                  "name": "userId",
                  "type": "uint256"
                },
                {
                  "internalType": "bool",
                  "name": "isAnon",
                  "type": "bool"
                },
                {
                  "internalType": "bool",
                  "name": "isOptional",
                  "type": "bool"
                },
                {
                  "internalType": "bool",
                  "name": "isSelectableByUser",
                  "type": "bool"
                },
                {
                  "internalType": "bytes",
                  "name": "extraData",
                  "type": "bytes"
                }
              ],
              "internalType": "struct AuthRequest[]",
              "name": "auths",
              "type": "tuple[]"
            },
            {
              "components": [
                {
                  "internalType": "enum ClaimType",
                  "name": "claimType",
                  "type": "uint8"
                },
                {
                  "internalType": "bytes16",
                  "name": "groupId",
                  "type": "bytes16"
                },
                {
                  "internalType": "bytes16",
                  "name": "groupTimestamp",
                  "type": "bytes16"
                },
                {
                  "internalType": "uint256",
                  "name": "value",
                  "type": "uint256"
                },
                {
                  "internalType": "bool",
                  "name": "isOptional",
                  "type": "bool"
                },
                {
                  "internalType": "bool",
                  "name": "isSelectableByUser",
                  "type": "bool"
                },
                {
                  "internalType": "bytes",
                  "name": "extraData",
                  "type": "bytes"
                }
              ],
              "internalType": "struct ClaimRequest[]",
              "name": "claims",
              "type": "tuple[]"
            },
            {
              "components": [
                {
                  "internalType": "bytes",
                  "name": "message",
                  "type": "bytes"
                },
                {
                  "internalType": "bool",
                  "name": "isSelectableByUser",
                  "type": "bool"
                },
                {
                  "internalType": "bytes",
                  "name": "extraData",
                  "type": "bytes"
                }
              ],
              "internalType": "struct SignatureRequest",
              "name": "signature",
              "type": "tuple"
            }
          ],
          "internalType": "struct SismoConnectRequest",
          "name": "",
          "type": "tuple"
        }
      ],
      "stateMutability": "pure",
      "type": "function"
    },
    {
      "inputs": [
        {
          "components": [
            {
              "internalType": "enum AuthType",
              "name": "authType",
              "type": "uint8"
            },
            {
              "internalType": "uint256",
              "name": "userId",
              "type": "uint256"
            },
            {
              "internalType": "bool",
              "name": "isAnon",
              "type": "bool"
            },
            {
              "internalType": "bool",
              "name": "isOptional",
              "type": "bool"
            },
            {
              "internalType": "bool",
              "name": "isSelectableByUser",
              "type": "bool"
            },
            {
              "internalType": "bytes",
              "name": "extraData",
              "type": "bytes"
            }
          ],
          "internalType": "struct AuthRequest",
          "name": "auth",
          "type": "tuple"
        },
        {
          "components": [
            {
              "internalType": "enum ClaimType",
              "name": "claimType",
              "type": "uint8"
            },
            {
              "internalType": "bytes16",
              "name": "groupId",
              "type": "bytes16"
            },
            {
              "internalType": "bytes16",
              "name": "groupTimestamp",
              "type": "bytes16"
            },
            {
              "internalType": "uint256",
              "name": "value",
              "type": "uint256"
            },
            {
              "internalType": "bool",
              "name": "isOptional",
              "type": "bool"
            },
            {
              "internalType": "bool",
              "name": "isSelectableByUser",
              "type": "bool"
            },
            {
              "internalType": "bytes",
              "name": "extraData",
              "type": "bytes"
            }
          ],
          "internalType": "struct ClaimRequest",
          "name": "claim",
          "type": "tuple"
        },
        {
          "internalType": "bytes16",
          "name": "appId",
          "type": "bytes16"
        }
      ],
      "name": "build",
      "outputs": [
        {
          "components": [
            {
              "internalType": "bytes16",
              "name": "appId",
              "type": "bytes16"
            },
            {
              "internalType": "bytes16",
              "name": "namespace",
              "type": "bytes16"
            },
            {
              "components": [
                {
                  "internalType": "enum AuthType",
                  "name": "authType",
                  "type": "uint8"
                },
                {
                  "internalType": "uint256",
                  "name": "userId",
                  "type": "uint256"
                },
                {
                  "internalType": "bool",
                  "name": "isAnon",
                  "type": "bool"
                },
                {
                  "internalType": "bool",
                  "name": "isOptional",
                  "type": "bool"
                },
                {
                  "internalType": "bool",
                  "name": "isSelectableByUser",
                  "type": "bool"
                },
                {
                  "internalType": "bytes",
                  "name": "extraData",
                  "type": "bytes"
                }
              ],
              "internalType": "struct AuthRequest[]",
              "name": "auths",
              "type": "tuple[]"
            },
            {
              "components": [
                {
                  "internalType": "enum ClaimType",
                  "name": "claimType",
                  "type": "uint8"
                },
                {
                  "internalType": "bytes16",
                  "name": "groupId",
                  "type": "bytes16"
                },
                {
                  "internalType": "bytes16",
                  "name": "groupTimestamp",
                  "type": "bytes16"
                },
                {
                  "internalType": "uint256",
                  "name": "value",
                  "type": "uint256"
                },
                {
                  "internalType": "bool",
                  "name": "isOptional",
                  "type": "bool"
                },
                {
                  "internalType": "bool",
                  "name": "isSelectableByUser",
                  "type": "bool"
                },
                {
                  "internalType": "bytes",
                  "name": "extraData",
                  "type": "bytes"
                }
              ],
              "internalType": "struct ClaimRequest[]",
              "name": "claims",
              "type": "tuple[]"
            },
            {
              "components": [
                {
                  "internalType": "bytes",
                  "name": "message",
                  "type": "bytes"
                },
                {
                  "internalType": "bool",
                  "name": "isSelectableByUser",
                  "type": "bool"
                },
                {
                  "internalType": "bytes",
                  "name": "extraData",
                  "type": "bytes"
                }
              ],
              "internalType": "struct SignatureRequest",
              "name": "signature",
              "type": "tuple"
            }
          ],
          "internalType": "struct SismoConnectRequest",
          "name": "",
          "type": "tuple"
        }
      ],
      "stateMutability": "view",
      "type": "function"
    },
    {
      "inputs": [
        {
          "components": [
            {
              "internalType": "enum ClaimType",
              "name": "claimType",
              "type": "uint8"
            },
            {
              "internalType": "bytes16",
              "name": "groupId",
              "type": "bytes16"
            },
            {
              "internalType": "bytes16",
              "name": "groupTimestamp",
              "type": "bytes16"
            },
            {
              "internalType": "uint256",
              "name": "value",
              "type": "uint256"
            },
            {
              "internalType": "bool",
              "name": "isOptional",
              "type": "bool"
            },
            {
              "internalType": "bool",
              "name": "isSelectableByUser",
              "type": "bool"
            },
            {
              "internalType": "bytes",
              "name": "extraData",
              "type": "bytes"
            }
          ],
          "internalType": "struct ClaimRequest",
          "name": "claim",
          "type": "tuple"
        },
        {
          "components": [
            {
              "internalType": "bytes",
              "name": "message",
              "type": "bytes"
            },
            {
              "internalType": "bool",
              "name": "isSelectableByUser",
              "type": "bool"
            },
            {
              "internalType": "bytes",
              "name": "extraData",
              "type": "bytes"
            }
          ],
          "internalType": "struct SignatureRequest",
          "name": "signature",
          "type": "tuple"
        },
        {
          "internalType": "bytes16",
          "name": "appId",
          "type": "bytes16"
        }
      ],
      "name": "build",
      "outputs": [
        {
          "components": [
            {
              "internalType": "bytes16",
              "name": "appId",
              "type": "bytes16"
            },
            {
              "internalType": "bytes16",
              "name": "namespace",
              "type": "bytes16"
            },
            {
              "components": [
                {
                  "internalType": "enum AuthType",
                  "name": "authType",
                  "type": "uint8"
                },
                {
                  "internalType": "uint256",
                  "name": "userId",
                  "type": "uint256"
                },
                {
                  "internalType": "bool",
                  "name": "isAnon",
                  "type": "bool"
                },
                {
                  "internalType": "bool",
                  "name": "isOptional",
                  "type": "bool"
                },
                {
                  "internalType": "bool",
                  "name": "isSelectableByUser",
                  "type": "bool"
                },
                {
                  "internalType": "bytes",
                  "name": "extraData",
                  "type": "bytes"
                }
              ],
              "internalType": "struct AuthRequest[]",
              "name": "auths",
              "type": "tuple[]"
            },
            {
              "components": [
                {
                  "internalType": "enum ClaimType",
                  "name": "claimType",
                  "type": "uint8"
                },
                {
                  "internalType": "bytes16",
                  "name": "groupId",
                  "type": "bytes16"
                },
                {
                  "internalType": "bytes16",
                  "name": "groupTimestamp",
                  "type": "bytes16"
                },
                {
                  "internalType": "uint256",
                  "name": "value",
                  "type": "uint256"
                },
                {
                  "internalType": "bool",
                  "name": "isOptional",
                  "type": "bool"
                },
                {
                  "internalType": "bool",
                  "name": "isSelectableByUser",
                  "type": "bool"
                },
                {
                  "internalType": "bytes",
                  "name": "extraData",
                  "type": "bytes"
                }
              ],
              "internalType": "struct ClaimRequest[]",
              "name": "claims",
              "type": "tuple[]"
            },
            {
              "components": [
                {
                  "internalType": "bytes",
                  "name": "message",
                  "type": "bytes"
                },
                {
                  "internalType": "bool",
                  "name": "isSelectableByUser",
                  "type": "bool"
                },
                {
                  "internalType": "bytes",
                  "name": "extraData",
                  "type": "bytes"
                }
              ],
              "internalType": "struct SignatureRequest",
              "name": "signature",
              "type": "tuple"
            }
          ],
          "internalType": "struct SismoConnectRequest",
          "name": "",
          "type": "tuple"
        }
      ],
      "stateMutability": "pure",
      "type": "function"
    },
    {
      "inputs": [
        {
          "components": [
            {
              "internalType": "enum ClaimType",
              "name": "claimType",
              "type": "uint8"
            },
            {
              "internalType": "bytes16",
              "name": "groupId",
              "type": "bytes16"
            },
            {
              "internalType": "bytes16",
              "name": "groupTimestamp",
              "type": "bytes16"
            },
            {
              "internalType": "uint256",
              "name": "value",
              "type": "uint256"
            },
            {
              "internalType": "bool",
              "name": "isOptional",
              "type": "bool"
            },
            {
              "internalType": "bool",
              "name": "isSelectableByUser",
              "type": "bool"
            },
            {
              "internalType": "bytes",
              "name": "extraData",
              "type": "bytes"
            }
          ],
          "internalType": "struct ClaimRequest[]",
          "name": "claims",
          "type": "tuple[]"
        },
        {
          "components": [
            {
              "internalType": "bytes",
              "name": "message",
              "type": "bytes"
            },
            {
              "internalType": "bool",
              "name": "isSelectableByUser",
              "type": "bool"
            },
            {
              "internalType": "bytes",
              "name": "extraData",
              "type": "bytes"
            }
          ],
          "internalType": "struct SignatureRequest",
          "name": "signature",
          "type": "tuple"
        },
        {
          "internalType": "bytes16",
          "name": "appId",
          "type": "bytes16"
        },
        {
          "internalType": "bytes16",
          "name": "namespace",
          "type": "bytes16"
        }
      ],
      "name": "build",
      "outputs": [
        {
          "components": [
            {
              "internalType": "bytes16",
              "name": "appId",
              "type": "bytes16"
            },
            {
              "internalType": "bytes16",
              "name": "namespace",
              "type": "bytes16"
            },
            {
              "components": [
                {
                  "internalType": "enum AuthType",
                  "name": "authType",
                  "type": "uint8"
                },
                {
                  "internalType": "uint256",
                  "name": "userId",
                  "type": "uint256"
                },
                {
                  "internalType": "bool",
                  "name": "isAnon",
                  "type": "bool"
                },
                {
                  "internalType": "bool",
                  "name": "isOptional",
                  "type": "bool"
                },
                {
                  "internalType": "bool",
                  "name": "isSelectableByUser",
                  "type": "bool"
                },
                {
                  "internalType": "bytes",
                  "name": "extraData",
                  "type": "bytes"
                }
              ],
              "internalType": "struct AuthRequest[]",
              "name": "auths",
              "type": "tuple[]"
            },
            {
              "components": [
                {
                  "internalType": "enum ClaimType",
                  "name": "claimType",
                  "type": "uint8"
                },
                {
                  "internalType": "bytes16",
                  "name": "groupId",
                  "type": "bytes16"
                },
                {
                  "internalType": "bytes16",
                  "name": "groupTimestamp",
                  "type": "bytes16"
                },
                {
                  "internalType": "uint256",
                  "name": "value",
                  "type": "uint256"
                },
                {
                  "internalType": "bool",
                  "name": "isOptional",
                  "type": "bool"
                },
                {
                  "internalType": "bool",
                  "name": "isSelectableByUser",
                  "type": "bool"
                },
                {
                  "internalType": "bytes",
                  "name": "extraData",
                  "type": "bytes"
                }
              ],
              "internalType": "struct ClaimRequest[]",
              "name": "claims",
              "type": "tuple[]"
            },
            {
              "components": [
                {
                  "internalType": "bytes",
                  "name": "message",
                  "type": "bytes"
                },
                {
                  "internalType": "bool",
                  "name": "isSelectableByUser",
                  "type": "bool"
                },
                {
                  "internalType": "bytes",
                  "name": "extraData",
                  "type": "bytes"
                }
              ],
              "internalType": "struct SignatureRequest",
              "name": "signature",
              "type": "tuple"
            }
          ],
          "internalType": "struct SismoConnectRequest",
          "name": "",
          "type": "tuple"
        }
      ],
      "stateMutability": "pure",
      "type": "function"
    },
    {
      "inputs": [
        {
          "components": [
            {
              "internalType": "enum ClaimType",
              "name": "claimType",
              "type": "uint8"
            },
            {
              "internalType": "bytes16",
              "name": "groupId",
              "type": "bytes16"
            },
            {
              "internalType": "bytes16",
              "name": "groupTimestamp",
              "type": "bytes16"
            },
            {
              "internalType": "uint256",
              "name": "value",
              "type": "uint256"
            },
            {
              "internalType": "bool",
              "name": "isOptional",
              "type": "bool"
            },
            {
              "internalType": "bool",
              "name": "isSelectableByUser",
              "type": "bool"
            },
            {
              "internalType": "bytes",
              "name": "extraData",
              "type": "bytes"
            }
          ],
          "internalType": "struct ClaimRequest",
          "name": "claim",
          "type": "tuple"
        },
        {
          "internalType": "bytes16",
          "name": "appId",
          "type": "bytes16"
        },
        {
          "internalType": "bytes16",
          "name": "namespace",
          "type": "bytes16"
        }
      ],
      "name": "build",
      "outputs": [
        {
          "components": [
            {
              "internalType": "bytes16",
              "name": "appId",
              "type": "bytes16"
            },
            {
              "internalType": "bytes16",
              "name": "namespace",
              "type": "bytes16"
            },
            {
              "components": [
                {
                  "internalType": "enum AuthType",
                  "name": "authType",
                  "type": "uint8"
                },
                {
                  "internalType": "uint256",
                  "name": "userId",
                  "type": "uint256"
                },
                {
                  "internalType": "bool",
                  "name": "isAnon",
                  "type": "bool"
                },
                {
                  "internalType": "bool",
                  "name": "isOptional",
                  "type": "bool"
                },
                {
                  "internalType": "bool",
                  "name": "isSelectableByUser",
                  "type": "bool"
                },
                {
                  "internalType": "bytes",
                  "name": "extraData",
                  "type": "bytes"
                }
              ],
              "internalType": "struct AuthRequest[]",
              "name": "auths",
              "type": "tuple[]"
            },
            {
              "components": [
                {
                  "internalType": "enum ClaimType",
                  "name": "claimType",
                  "type": "uint8"
                },
                {
                  "internalType": "bytes16",
                  "name": "groupId",
                  "type": "bytes16"
                },
                {
                  "internalType": "bytes16",
                  "name": "groupTimestamp",
                  "type": "bytes16"
                },
                {
                  "internalType": "uint256",
                  "name": "value",
                  "type": "uint256"
                },
                {
                  "internalType": "bool",
                  "name": "isOptional",
                  "type": "bool"
                },
                {
                  "internalType": "bool",
                  "name": "isSelectableByUser",
                  "type": "bool"
                },
                {
                  "internalType": "bytes",
                  "name": "extraData",
                  "type": "bytes"
                }
              ],
              "internalType": "struct ClaimRequest[]",
              "name": "claims",
              "type": "tuple[]"
            },
            {
              "components": [
                {
                  "internalType": "bytes",
                  "name": "message",
                  "type": "bytes"
                },
                {
                  "internalType": "bool",
                  "name": "isSelectableByUser",
                  "type": "bool"
                },
                {
                  "internalType": "bytes",
                  "name": "extraData",
                  "type": "bytes"
                }
              ],
              "internalType": "struct SignatureRequest",
              "name": "signature",
              "type": "tuple"
            }
          ],
          "internalType": "struct SismoConnectRequest",
          "name": "",
          "type": "tuple"
        }
      ],
      "stateMutability": "view",
      "type": "function"
    },
    {
      "inputs": [
        {
          "components": [
            {
              "internalType": "enum AuthType",
              "name": "authType",
              "type": "uint8"
            },
            {
              "internalType": "uint256",
              "name": "userId",
              "type": "uint256"
            },
            {
              "internalType": "bool",
              "name": "isAnon",
              "type": "bool"
            },
            {
              "internalType": "bool",
              "name": "isOptional",
              "type": "bool"
            },
            {
              "internalType": "bool",
              "name": "isSelectableByUser",
              "type": "bool"
            },
            {
              "internalType": "bytes",
              "name": "extraData",
              "type": "bytes"
            }
          ],
          "internalType": "struct AuthRequest",
          "name": "auth",
          "type": "tuple"
        },
        {
          "internalType": "bytes16",
          "name": "appId",
          "type": "bytes16"
        }
      ],
      "name": "build",
      "outputs": [
        {
          "components": [
            {
              "internalType": "bytes16",
              "name": "appId",
              "type": "bytes16"
            },
            {
              "internalType": "bytes16",
              "name": "namespace",
              "type": "bytes16"
            },
            {
              "components": [
                {
                  "internalType": "enum AuthType",
                  "name": "authType",
                  "type": "uint8"
                },
                {
                  "internalType": "uint256",
                  "name": "userId",
                  "type": "uint256"
                },
                {
                  "internalType": "bool",
                  "name": "isAnon",
                  "type": "bool"
                },
                {
                  "internalType": "bool",
                  "name": "isOptional",
                  "type": "bool"
                },
                {
                  "internalType": "bool",
                  "name": "isSelectableByUser",
                  "type": "bool"
                },
                {
                  "internalType": "bytes",
                  "name": "extraData",
                  "type": "bytes"
                }
              ],
              "internalType": "struct AuthRequest[]",
              "name": "auths",
              "type": "tuple[]"
            },
            {
              "components": [
                {
                  "internalType": "enum ClaimType",
                  "name": "claimType",
                  "type": "uint8"
                },
                {
                  "internalType": "bytes16",
                  "name": "groupId",
                  "type": "bytes16"
                },
                {
                  "internalType": "bytes16",
                  "name": "groupTimestamp",
                  "type": "bytes16"
                },
                {
                  "internalType": "uint256",
                  "name": "value",
                  "type": "uint256"
                },
                {
                  "internalType": "bool",
                  "name": "isOptional",
                  "type": "bool"
                },
                {
                  "internalType": "bool",
                  "name": "isSelectableByUser",
                  "type": "bool"
                },
                {
                  "internalType": "bytes",
                  "name": "extraData",
                  "type": "bytes"
                }
              ],
              "internalType": "struct ClaimRequest[]",
              "name": "claims",
              "type": "tuple[]"
            },
            {
              "components": [
                {
                  "internalType": "bytes",
                  "name": "message",
                  "type": "bytes"
                },
                {
                  "internalType": "bool",
                  "name": "isSelectableByUser",
                  "type": "bool"
                },
                {
                  "internalType": "bytes",
                  "name": "extraData",
                  "type": "bytes"
                }
              ],
              "internalType": "struct SignatureRequest",
              "name": "signature",
              "type": "tuple"
            }
          ],
          "internalType": "struct SismoConnectRequest",
          "name": "",
          "type": "tuple"
        }
      ],
      "stateMutability": "view",
      "type": "function"
    },
    {
      "inputs": [
        {
          "components": [
            {
              "internalType": "enum AuthType",
              "name": "authType",
              "type": "uint8"
            },
            {
              "internalType": "uint256",
              "name": "userId",
              "type": "uint256"
            },
            {
              "internalType": "bool",
              "name": "isAnon",
              "type": "bool"
            },
            {
              "internalType": "bool",
              "name": "isOptional",
              "type": "bool"
            },
            {
              "internalType": "bool",
              "name": "isSelectableByUser",
              "type": "bool"
            },
            {
              "internalType": "bytes",
              "name": "extraData",
              "type": "bytes"
            }
          ],
          "internalType": "struct AuthRequest[]",
          "name": "auths",
          "type": "tuple[]"
        },
        {
          "components": [
            {
              "internalType": "enum ClaimType",
              "name": "claimType",
              "type": "uint8"
            },
            {
              "internalType": "bytes16",
              "name": "groupId",
              "type": "bytes16"
            },
            {
              "internalType": "bytes16",
              "name": "groupTimestamp",
              "type": "bytes16"
            },
            {
              "internalType": "uint256",
              "name": "value",
              "type": "uint256"
            },
            {
              "internalType": "bool",
              "name": "isOptional",
              "type": "bool"
            },
            {
              "internalType": "bool",
              "name": "isSelectableByUser",
              "type": "bool"
            },
            {
              "internalType": "bytes",
              "name": "extraData",
              "type": "bytes"
            }
          ],
          "internalType": "struct ClaimRequest[]",
          "name": "claims",
          "type": "tuple[]"
        },
        {
          "internalType": "bytes16",
          "name": "appId",
          "type": "bytes16"
        }
      ],
      "name": "build",
      "outputs": [
        {
          "components": [
            {
              "internalType": "bytes16",
              "name": "appId",
              "type": "bytes16"
            },
            {
              "internalType": "bytes16",
              "name": "namespace",
              "type": "bytes16"
            },
            {
              "components": [
                {
                  "internalType": "enum AuthType",
                  "name": "authType",
                  "type": "uint8"
                },
                {
                  "internalType": "uint256",
                  "name": "userId",
                  "type": "uint256"
                },
                {
                  "internalType": "bool",
                  "name": "isAnon",
                  "type": "bool"
                },
                {
                  "internalType": "bool",
                  "name": "isOptional",
                  "type": "bool"
                },
                {
                  "internalType": "bool",
                  "name": "isSelectableByUser",
                  "type": "bool"
                },
                {
                  "internalType": "bytes",
                  "name": "extraData",
                  "type": "bytes"
                }
              ],
              "internalType": "struct AuthRequest[]",
              "name": "auths",
              "type": "tuple[]"
            },
            {
              "components": [
                {
                  "internalType": "enum ClaimType",
                  "name": "claimType",
                  "type": "uint8"
                },
                {
                  "internalType": "bytes16",
                  "name": "groupId",
                  "type": "bytes16"
                },
                {
                  "internalType": "bytes16",
                  "name": "groupTimestamp",
                  "type": "bytes16"
                },
                {
                  "internalType": "uint256",
                  "name": "value",
                  "type": "uint256"
                },
                {
                  "internalType": "bool",
                  "name": "isOptional",
                  "type": "bool"
                },
                {
                  "internalType": "bool",
                  "name": "isSelectableByUser",
                  "type": "bool"
                },
                {
                  "internalType": "bytes",
                  "name": "extraData",
                  "type": "bytes"
                }
              ],
              "internalType": "struct ClaimRequest[]",
              "name": "claims",
              "type": "tuple[]"
            },
            {
              "components": [
                {
                  "internalType": "bytes",
                  "name": "message",
                  "type": "bytes"
                },
                {
                  "internalType": "bool",
                  "name": "isSelectableByUser",
                  "type": "bool"
                },
                {
                  "internalType": "bytes",
                  "name": "extraData",
                  "type": "bytes"
                }
              ],
              "internalType": "struct SignatureRequest",
              "name": "signature",
              "type": "tuple"
            }
          ],
          "internalType": "struct SismoConnectRequest",
          "name": "",
          "type": "tuple"
        }
      ],
      "stateMutability": "view",
      "type": "function"
    },
    {
      "inputs": [
        {
          "components": [
            {
              "internalType": "enum AuthType",
              "name": "authType",
              "type": "uint8"
            },
            {
              "internalType": "uint256",
              "name": "userId",
              "type": "uint256"
            },
            {
              "internalType": "bool",
              "name": "isAnon",
              "type": "bool"
            },
            {
              "internalType": "bool",
              "name": "isOptional",
              "type": "bool"
            },
            {
              "internalType": "bool",
              "name": "isSelectableByUser",
              "type": "bool"
            },
            {
              "internalType": "bytes",
              "name": "extraData",
              "type": "bytes"
            }
          ],
          "internalType": "struct AuthRequest[]",
          "name": "auths",
          "type": "tuple[]"
        },
        {
          "internalType": "bytes16",
          "name": "appId",
          "type": "bytes16"
        },
        {
          "internalType": "bytes16",
          "name": "namespace",
          "type": "bytes16"
        }
      ],
      "name": "build",
      "outputs": [
        {
          "components": [
            {
              "internalType": "bytes16",
              "name": "appId",
              "type": "bytes16"
            },
            {
              "internalType": "bytes16",
              "name": "namespace",
              "type": "bytes16"
            },
            {
              "components": [
                {
                  "internalType": "enum AuthType",
                  "name": "authType",
                  "type": "uint8"
                },
                {
                  "internalType": "uint256",
                  "name": "userId",
                  "type": "uint256"
                },
                {
                  "internalType": "bool",
                  "name": "isAnon",
                  "type": "bool"
                },
                {
                  "internalType": "bool",
                  "name": "isOptional",
                  "type": "bool"
                },
                {
                  "internalType": "bool",
                  "name": "isSelectableByUser",
                  "type": "bool"
                },
                {
                  "internalType": "bytes",
                  "name": "extraData",
                  "type": "bytes"
                }
              ],
              "internalType": "struct AuthRequest[]",
              "name": "auths",
              "type": "tuple[]"
            },
            {
              "components": [
                {
                  "internalType": "enum ClaimType",
                  "name": "claimType",
                  "type": "uint8"
                },
                {
                  "internalType": "bytes16",
                  "name": "groupId",
                  "type": "bytes16"
                },
                {
                  "internalType": "bytes16",
                  "name": "groupTimestamp",
                  "type": "bytes16"
                },
                {
                  "internalType": "uint256",
                  "name": "value",
                  "type": "uint256"
                },
                {
                  "internalType": "bool",
                  "name": "isOptional",
                  "type": "bool"
                },
                {
                  "internalType": "bool",
                  "name": "isSelectableByUser",
                  "type": "bool"
                },
                {
                  "internalType": "bytes",
                  "name": "extraData",
                  "type": "bytes"
                }
              ],
              "internalType": "struct ClaimRequest[]",
              "name": "claims",
              "type": "tuple[]"
            },
            {
              "components": [
                {
                  "internalType": "bytes",
                  "name": "message",
                  "type": "bytes"
                },
                {
                  "internalType": "bool",
                  "name": "isSelectableByUser",
                  "type": "bool"
                },
                {
                  "internalType": "bytes",
                  "name": "extraData",
                  "type": "bytes"
                }
              ],
              "internalType": "struct SignatureRequest",
              "name": "signature",
              "type": "tuple"
            }
          ],
          "internalType": "struct SismoConnectRequest",
          "name": "",
          "type": "tuple"
        }
      ],
      "stateMutability": "view",
      "type": "function"
    },
    {
      "inputs": [
        {
          "components": [
            {
              "internalType": "enum AuthType",
              "name": "authType",
              "type": "uint8"
            },
            {
              "internalType": "uint256",
              "name": "userId",
              "type": "uint256"
            },
            {
              "internalType": "bool",
              "name": "isAnon",
              "type": "bool"
            },
            {
              "internalType": "bool",
              "name": "isOptional",
              "type": "bool"
            },
            {
              "internalType": "bool",
              "name": "isSelectableByUser",
              "type": "bool"
            },
            {
              "internalType": "bytes",
              "name": "extraData",
              "type": "bytes"
            }
          ],
          "internalType": "struct AuthRequest[]",
          "name": "auths",
          "type": "tuple[]"
        },
        {
          "components": [
            {
              "internalType": "bytes",
              "name": "message",
              "type": "bytes"
            },
            {
              "internalType": "bool",
              "name": "isSelectableByUser",
              "type": "bool"
            },
            {
              "internalType": "bytes",
              "name": "extraData",
              "type": "bytes"
            }
          ],
          "internalType": "struct SignatureRequest",
          "name": "signature",
          "type": "tuple"
        },
        {
          "internalType": "bytes16",
          "name": "appId",
          "type": "bytes16"
        },
        {
          "internalType": "bytes16",
          "name": "namespace",
          "type": "bytes16"
        }
      ],
      "name": "build",
      "outputs": [
        {
          "components": [
            {
              "internalType": "bytes16",
              "name": "appId",
              "type": "bytes16"
            },
            {
              "internalType": "bytes16",
              "name": "namespace",
              "type": "bytes16"
            },
            {
              "components": [
                {
                  "internalType": "enum AuthType",
                  "name": "authType",
                  "type": "uint8"
                },
                {
                  "internalType": "uint256",
                  "name": "userId",
                  "type": "uint256"
                },
                {
                  "internalType": "bool",
                  "name": "isAnon",
                  "type": "bool"
                },
                {
                  "internalType": "bool",
                  "name": "isOptional",
                  "type": "bool"
                },
                {
                  "internalType": "bool",
                  "name": "isSelectableByUser",
                  "type": "bool"
                },
                {
                  "internalType": "bytes",
                  "name": "extraData",
                  "type": "bytes"
                }
              ],
              "internalType": "struct AuthRequest[]",
              "name": "auths",
              "type": "tuple[]"
            },
            {
              "components": [
                {
                  "internalType": "enum ClaimType",
                  "name": "claimType",
                  "type": "uint8"
                },
                {
                  "internalType": "bytes16",
                  "name": "groupId",
                  "type": "bytes16"
                },
                {
                  "internalType": "bytes16",
                  "name": "groupTimestamp",
                  "type": "bytes16"
                },
                {
                  "internalType": "uint256",
                  "name": "value",
                  "type": "uint256"
                },
                {
                  "internalType": "bool",
                  "name": "isOptional",
                  "type": "bool"
                },
                {
                  "internalType": "bool",
                  "name": "isSelectableByUser",
                  "type": "bool"
                },
                {
                  "internalType": "bytes",
                  "name": "extraData",
                  "type": "bytes"
                }
              ],
              "internalType": "struct ClaimRequest[]",
              "name": "claims",
              "type": "tuple[]"
            },
            {
              "components": [
                {
                  "internalType": "bytes",
                  "name": "message",
                  "type": "bytes"
                },
                {
                  "internalType": "bool",
                  "name": "isSelectableByUser",
                  "type": "bool"
                },
                {
                  "internalType": "bytes",
                  "name": "extraData",
                  "type": "bytes"
                }
              ],
              "internalType": "struct SignatureRequest",
              "name": "signature",
              "type": "tuple"
            }
          ],
          "internalType": "struct SismoConnectRequest",
          "name": "",
          "type": "tuple"
        }
      ],
      "stateMutability": "pure",
      "type": "function"
    },
    {
      "inputs": [
        {
          "components": [
            {
              "internalType": "enum ClaimType",
              "name": "claimType",
              "type": "uint8"
            },
            {
              "internalType": "bytes16",
              "name": "groupId",
              "type": "bytes16"
            },
            {
              "internalType": "bytes16",
              "name": "groupTimestamp",
              "type": "bytes16"
            },
            {
              "internalType": "uint256",
              "name": "value",
              "type": "uint256"
            },
            {
              "internalType": "bool",
              "name": "isOptional",
              "type": "bool"
            },
            {
              "internalType": "bool",
              "name": "isSelectableByUser",
              "type": "bool"
            },
            {
              "internalType": "bytes",
              "name": "extraData",
              "type": "bytes"
            }
          ],
          "internalType": "struct ClaimRequest[]",
          "name": "claims",
          "type": "tuple[]"
        },
        {
          "internalType": "bytes16",
          "name": "appId",
          "type": "bytes16"
        },
        {
          "internalType": "bytes16",
          "name": "namespace",
          "type": "bytes16"
        }
      ],
      "name": "build",
      "outputs": [
        {
          "components": [
            {
              "internalType": "bytes16",
              "name": "appId",
              "type": "bytes16"
            },
            {
              "internalType": "bytes16",
              "name": "namespace",
              "type": "bytes16"
            },
            {
              "components": [
                {
                  "internalType": "enum AuthType",
                  "name": "authType",
                  "type": "uint8"
                },
                {
                  "internalType": "uint256",
                  "name": "userId",
                  "type": "uint256"
                },
                {
                  "internalType": "bool",
                  "name": "isAnon",
                  "type": "bool"
                },
                {
                  "internalType": "bool",
                  "name": "isOptional",
                  "type": "bool"
                },
                {
                  "internalType": "bool",
                  "name": "isSelectableByUser",
                  "type": "bool"
                },
                {
                  "internalType": "bytes",
                  "name": "extraData",
                  "type": "bytes"
                }
              ],
              "internalType": "struct AuthRequest[]",
              "name": "auths",
              "type": "tuple[]"
            },
            {
              "components": [
                {
                  "internalType": "enum ClaimType",
                  "name": "claimType",
                  "type": "uint8"
                },
                {
                  "internalType": "bytes16",
                  "name": "groupId",
                  "type": "bytes16"
                },
                {
                  "internalType": "bytes16",
                  "name": "groupTimestamp",
                  "type": "bytes16"
                },
                {
                  "internalType": "uint256",
                  "name": "value",
                  "type": "uint256"
                },
                {
                  "internalType": "bool",
                  "name": "isOptional",
                  "type": "bool"
                },
                {
                  "internalType": "bool",
                  "name": "isSelectableByUser",
                  "type": "bool"
                },
                {
                  "internalType": "bytes",
                  "name": "extraData",
                  "type": "bytes"
                }
              ],
              "internalType": "struct ClaimRequest[]",
              "name": "claims",
              "type": "tuple[]"
            },
            {
              "components": [
                {
                  "internalType": "bytes",
                  "name": "message",
                  "type": "bytes"
                },
                {
                  "internalType": "bool",
                  "name": "isSelectableByUser",
                  "type": "bool"
                },
                {
                  "internalType": "bytes",
                  "name": "extraData",
                  "type": "bytes"
                }
              ],
              "internalType": "struct SignatureRequest",
              "name": "signature",
              "type": "tuple"
            }
          ],
          "internalType": "struct SismoConnectRequest",
          "name": "",
          "type": "tuple"
        }
      ],
      "stateMutability": "view",
      "type": "function"
    },
    {
      "inputs": [
        {
          "components": [
            {
              "internalType": "enum ClaimType",
              "name": "claimType",
              "type": "uint8"
            },
            {
              "internalType": "bytes16",
              "name": "groupId",
              "type": "bytes16"
            },
            {
              "internalType": "bytes16",
              "name": "groupTimestamp",
              "type": "bytes16"
            },
            {
              "internalType": "uint256",
              "name": "value",
              "type": "uint256"
            },
            {
              "internalType": "bool",
              "name": "isOptional",
              "type": "bool"
            },
            {
              "internalType": "bool",
              "name": "isSelectableByUser",
              "type": "bool"
            },
            {
              "internalType": "bytes",
              "name": "extraData",
              "type": "bytes"
            }
          ],
          "internalType": "struct ClaimRequest",
          "name": "claim",
          "type": "tuple"
        },
        {
          "components": [
            {
              "internalType": "bytes",
              "name": "message",
              "type": "bytes"
            },
            {
              "internalType": "bool",
              "name": "isSelectableByUser",
              "type": "bool"
            },
            {
              "internalType": "bytes",
              "name": "extraData",
              "type": "bytes"
            }
          ],
          "internalType": "struct SignatureRequest",
          "name": "signature",
          "type": "tuple"
        },
        {
          "internalType": "bytes16",
          "name": "appId",
          "type": "bytes16"
        },
        {
          "internalType": "bytes16",
          "name": "namespace",
          "type": "bytes16"
        }
      ],
      "name": "build",
      "outputs": [
        {
          "components": [
            {
              "internalType": "bytes16",
              "name": "appId",
              "type": "bytes16"
            },
            {
              "internalType": "bytes16",
              "name": "namespace",
              "type": "bytes16"
            },
            {
              "components": [
                {
                  "internalType": "enum AuthType",
                  "name": "authType",
                  "type": "uint8"
                },
                {
                  "internalType": "uint256",
                  "name": "userId",
                  "type": "uint256"
                },
                {
                  "internalType": "bool",
                  "name": "isAnon",
                  "type": "bool"
                },
                {
                  "internalType": "bool",
                  "name": "isOptional",
                  "type": "bool"
                },
                {
                  "internalType": "bool",
                  "name": "isSelectableByUser",
                  "type": "bool"
                },
                {
                  "internalType": "bytes",
                  "name": "extraData",
                  "type": "bytes"
                }
              ],
              "internalType": "struct AuthRequest[]",
              "name": "auths",
              "type": "tuple[]"
            },
            {
              "components": [
                {
                  "internalType": "enum ClaimType",
                  "name": "claimType",
                  "type": "uint8"
                },
                {
                  "internalType": "bytes16",
                  "name": "groupId",
                  "type": "bytes16"
                },
                {
                  "internalType": "bytes16",
                  "name": "groupTimestamp",
                  "type": "bytes16"
                },
                {
                  "internalType": "uint256",
                  "name": "value",
                  "type": "uint256"
                },
                {
                  "internalType": "bool",
                  "name": "isOptional",
                  "type": "bool"
                },
                {
                  "internalType": "bool",
                  "name": "isSelectableByUser",
                  "type": "bool"
                },
                {
                  "internalType": "bytes",
                  "name": "extraData",
                  "type": "bytes"
                }
              ],
              "internalType": "struct ClaimRequest[]",
              "name": "claims",
              "type": "tuple[]"
            },
            {
              "components": [
                {
                  "internalType": "bytes",
                  "name": "message",
                  "type": "bytes"
                },
                {
                  "internalType": "bool",
                  "name": "isSelectableByUser",
                  "type": "bool"
                },
                {
                  "internalType": "bytes",
                  "name": "extraData",
                  "type": "bytes"
                }
              ],
              "internalType": "struct SignatureRequest",
              "name": "signature",
              "type": "tuple"
            }
          ],
          "internalType": "struct SismoConnectRequest",
          "name": "",
          "type": "tuple"
        }
      ],
      "stateMutability": "pure",
      "type": "function"
    },
    {
      "inputs": [
        {
          "components": [
            {
              "internalType": "enum AuthType",
              "name": "authType",
              "type": "uint8"
            },
            {
              "internalType": "uint256",
              "name": "userId",
              "type": "uint256"
            },
            {
              "internalType": "bool",
              "name": "isAnon",
              "type": "bool"
            },
            {
              "internalType": "bool",
              "name": "isOptional",
              "type": "bool"
            },
            {
              "internalType": "bool",
              "name": "isSelectableByUser",
              "type": "bool"
            },
            {
              "internalType": "bytes",
              "name": "extraData",
              "type": "bytes"
            }
          ],
          "internalType": "struct AuthRequest",
          "name": "auth",
          "type": "tuple"
        },
        {
          "components": [
            {
              "internalType": "enum ClaimType",
              "name": "claimType",
              "type": "uint8"
            },
            {
              "internalType": "bytes16",
              "name": "groupId",
              "type": "bytes16"
            },
            {
              "internalType": "bytes16",
              "name": "groupTimestamp",
              "type": "bytes16"
            },
            {
              "internalType": "uint256",
              "name": "value",
              "type": "uint256"
            },
            {
              "internalType": "bool",
              "name": "isOptional",
              "type": "bool"
            },
            {
              "internalType": "bool",
              "name": "isSelectableByUser",
              "type": "bool"
            },
            {
              "internalType": "bytes",
              "name": "extraData",
              "type": "bytes"
            }
          ],
          "internalType": "struct ClaimRequest",
          "name": "claim",
          "type": "tuple"
        },
        {
          "internalType": "bytes16",
          "name": "appId",
          "type": "bytes16"
        },
        {
          "internalType": "bytes16",
          "name": "namespace",
          "type": "bytes16"
        }
      ],
      "name": "build",
      "outputs": [
        {
          "components": [
            {
              "internalType": "bytes16",
              "name": "appId",
              "type": "bytes16"
            },
            {
              "internalType": "bytes16",
              "name": "namespace",
              "type": "bytes16"
            },
            {
              "components": [
                {
                  "internalType": "enum AuthType",
                  "name": "authType",
                  "type": "uint8"
                },
                {
                  "internalType": "uint256",
                  "name": "userId",
                  "type": "uint256"
                },
                {
                  "internalType": "bool",
                  "name": "isAnon",
                  "type": "bool"
                },
                {
                  "internalType": "bool",
                  "name": "isOptional",
                  "type": "bool"
                },
                {
                  "internalType": "bool",
                  "name": "isSelectableByUser",
                  "type": "bool"
                },
                {
                  "internalType": "bytes",
                  "name": "extraData",
                  "type": "bytes"
                }
              ],
              "internalType": "struct AuthRequest[]",
              "name": "auths",
              "type": "tuple[]"
            },
            {
              "components": [
                {
                  "internalType": "enum ClaimType",
                  "name": "claimType",
                  "type": "uint8"
                },
                {
                  "internalType": "bytes16",
                  "name": "groupId",
                  "type": "bytes16"
                },
                {
                  "internalType": "bytes16",
                  "name": "groupTimestamp",
                  "type": "bytes16"
                },
                {
                  "internalType": "uint256",
                  "name": "value",
                  "type": "uint256"
                },
                {
                  "internalType": "bool",
                  "name": "isOptional",
                  "type": "bool"
                },
                {
                  "internalType": "bool",
                  "name": "isSelectableByUser",
                  "type": "bool"
                },
                {
                  "internalType": "bytes",
                  "name": "extraData",
                  "type": "bytes"
                }
              ],
              "internalType": "struct ClaimRequest[]",
              "name": "claims",
              "type": "tuple[]"
            },
            {
              "components": [
                {
                  "internalType": "bytes",
                  "name": "message",
                  "type": "bytes"
                },
                {
                  "internalType": "bool",
                  "name": "isSelectableByUser",
                  "type": "bool"
                },
                {
                  "internalType": "bytes",
                  "name": "extraData",
                  "type": "bytes"
                }
              ],
              "internalType": "struct SignatureRequest",
              "name": "signature",
              "type": "tuple"
            }
          ],
          "internalType": "struct SismoConnectRequest",
          "name": "",
          "type": "tuple"
        }
      ],
      "stateMutability": "view",
      "type": "function"
    },
    {
      "inputs": [
        {
          "components": [
            {
              "internalType": "enum AuthType",
              "name": "authType",
              "type": "uint8"
            },
            {
              "internalType": "uint256",
              "name": "userId",
              "type": "uint256"
            },
            {
              "internalType": "bool",
              "name": "isAnon",
              "type": "bool"
            },
            {
              "internalType": "bool",
              "name": "isOptional",
              "type": "bool"
            },
            {
              "internalType": "bool",
              "name": "isSelectableByUser",
              "type": "bool"
            },
            {
              "internalType": "bytes",
              "name": "extraData",
              "type": "bytes"
            }
          ],
          "internalType": "struct AuthRequest",
          "name": "auth",
          "type": "tuple"
        },
        {
          "internalType": "bytes16",
          "name": "appId",
          "type": "bytes16"
        },
        {
          "internalType": "bytes16",
          "name": "namespace",
          "type": "bytes16"
        }
      ],
      "name": "build",
      "outputs": [
        {
          "components": [
            {
              "internalType": "bytes16",
              "name": "appId",
              "type": "bytes16"
            },
            {
              "internalType": "bytes16",
              "name": "namespace",
              "type": "bytes16"
            },
            {
              "components": [
                {
                  "internalType": "enum AuthType",
                  "name": "authType",
                  "type": "uint8"
                },
                {
                  "internalType": "uint256",
                  "name": "userId",
                  "type": "uint256"
                },
                {
                  "internalType": "bool",
                  "name": "isAnon",
                  "type": "bool"
                },
                {
                  "internalType": "bool",
                  "name": "isOptional",
                  "type": "bool"
                },
                {
                  "internalType": "bool",
                  "name": "isSelectableByUser",
                  "type": "bool"
                },
                {
                  "internalType": "bytes",
                  "name": "extraData",
                  "type": "bytes"
                }
              ],
              "internalType": "struct AuthRequest[]",
              "name": "auths",
              "type": "tuple[]"
            },
            {
              "components": [
                {
                  "internalType": "enum ClaimType",
                  "name": "claimType",
                  "type": "uint8"
                },
                {
                  "internalType": "bytes16",
                  "name": "groupId",
                  "type": "bytes16"
                },
                {
                  "internalType": "bytes16",
                  "name": "groupTimestamp",
                  "type": "bytes16"
                },
                {
                  "internalType": "uint256",
                  "name": "value",
                  "type": "uint256"
                },
                {
                  "internalType": "bool",
                  "name": "isOptional",
                  "type": "bool"
                },
                {
                  "internalType": "bool",
                  "name": "isSelectableByUser",
                  "type": "bool"
                },
                {
                  "internalType": "bytes",
                  "name": "extraData",
                  "type": "bytes"
                }
              ],
              "internalType": "struct ClaimRequest[]",
              "name": "claims",
              "type": "tuple[]"
            },
            {
              "components": [
                {
                  "internalType": "bytes",
                  "name": "message",
                  "type": "bytes"
                },
                {
                  "internalType": "bool",
                  "name": "isSelectableByUser",
                  "type": "bool"
                },
                {
                  "internalType": "bytes",
                  "name": "extraData",
                  "type": "bytes"
                }
              ],
              "internalType": "struct SignatureRequest",
              "name": "signature",
              "type": "tuple"
            }
          ],
          "internalType": "struct SismoConnectRequest",
          "name": "",
          "type": "tuple"
        }
      ],
      "stateMutability": "view",
      "type": "function"
    },
    {
      "inputs": [
        {
          "components": [
            {
              "internalType": "enum AuthType",
              "name": "authType",
              "type": "uint8"
            },
            {
              "internalType": "uint256",
              "name": "userId",
              "type": "uint256"
            },
            {
              "internalType": "bool",
              "name": "isAnon",
              "type": "bool"
            },
            {
              "internalType": "bool",
              "name": "isOptional",
              "type": "bool"
            },
            {
              "internalType": "bool",
              "name": "isSelectableByUser",
              "type": "bool"
            },
            {
              "internalType": "bytes",
              "name": "extraData",
              "type": "bytes"
            }
          ],
          "internalType": "struct AuthRequest[]",
          "name": "auths",
          "type": "tuple[]"
        },
        {
          "components": [
            {
              "internalType": "bytes",
              "name": "message",
              "type": "bytes"
            },
            {
              "internalType": "bool",
              "name": "isSelectableByUser",
              "type": "bool"
            },
            {
              "internalType": "bytes",
              "name": "extraData",
              "type": "bytes"
            }
          ],
          "internalType": "struct SignatureRequest",
          "name": "signature",
          "type": "tuple"
        },
        {
          "internalType": "bytes16",
          "name": "appId",
          "type": "bytes16"
        }
      ],
      "name": "build",
      "outputs": [
        {
          "components": [
            {
              "internalType": "bytes16",
              "name": "appId",
              "type": "bytes16"
            },
            {
              "internalType": "bytes16",
              "name": "namespace",
              "type": "bytes16"
            },
            {
              "components": [
                {
                  "internalType": "enum AuthType",
                  "name": "authType",
                  "type": "uint8"
                },
                {
                  "internalType": "uint256",
                  "name": "userId",
                  "type": "uint256"
                },
                {
                  "internalType": "bool",
                  "name": "isAnon",
                  "type": "bool"
                },
                {
                  "internalType": "bool",
                  "name": "isOptional",
                  "type": "bool"
                },
                {
                  "internalType": "bool",
                  "name": "isSelectableByUser",
                  "type": "bool"
                },
                {
                  "internalType": "bytes",
                  "name": "extraData",
                  "type": "bytes"
                }
              ],
              "internalType": "struct AuthRequest[]",
              "name": "auths",
              "type": "tuple[]"
            },
            {
              "components": [
                {
                  "internalType": "enum ClaimType",
                  "name": "claimType",
                  "type": "uint8"
                },
                {
                  "internalType": "bytes16",
                  "name": "groupId",
                  "type": "bytes16"
                },
                {
                  "internalType": "bytes16",
                  "name": "groupTimestamp",
                  "type": "bytes16"
                },
                {
                  "internalType": "uint256",
                  "name": "value",
                  "type": "uint256"
                },
                {
                  "internalType": "bool",
                  "name": "isOptional",
                  "type": "bool"
                },
                {
                  "internalType": "bool",
                  "name": "isSelectableByUser",
                  "type": "bool"
                },
                {
                  "internalType": "bytes",
                  "name": "extraData",
                  "type": "bytes"
                }
              ],
              "internalType": "struct ClaimRequest[]",
              "name": "claims",
              "type": "tuple[]"
            },
            {
              "components": [
                {
                  "internalType": "bytes",
                  "name": "message",
                  "type": "bytes"
                },
                {
                  "internalType": "bool",
                  "name": "isSelectableByUser",
                  "type": "bool"
                },
                {
                  "internalType": "bytes",
                  "name": "extraData",
                  "type": "bytes"
                }
              ],
              "internalType": "struct SignatureRequest",
              "name": "signature",
              "type": "tuple"
            }
          ],
          "internalType": "struct SismoConnectRequest",
          "name": "",
          "type": "tuple"
        }
      ],
      "stateMutability": "pure",
      "type": "function"
    },
    {
      "inputs": [
        {
          "components": [
            {
              "internalType": "enum AuthType",
              "name": "authType",
              "type": "uint8"
            },
            {
              "internalType": "uint256",
              "name": "userId",
              "type": "uint256"
            },
            {
              "internalType": "bool",
              "name": "isAnon",
              "type": "bool"
            },
            {
              "internalType": "bool",
              "name": "isOptional",
              "type": "bool"
            },
            {
              "internalType": "bool",
              "name": "isSelectableByUser",
              "type": "bool"
            },
            {
              "internalType": "bytes",
              "name": "extraData",
              "type": "bytes"
            }
          ],
          "internalType": "struct AuthRequest[]",
          "name": "auths",
          "type": "tuple[]"
        },
        {
          "components": [
            {
              "internalType": "enum ClaimType",
              "name": "claimType",
              "type": "uint8"
            },
            {
              "internalType": "bytes16",
              "name": "groupId",
              "type": "bytes16"
            },
            {
              "internalType": "bytes16",
              "name": "groupTimestamp",
              "type": "bytes16"
            },
            {
              "internalType": "uint256",
              "name": "value",
              "type": "uint256"
            },
            {
              "internalType": "bool",
              "name": "isOptional",
              "type": "bool"
            },
            {
              "internalType": "bool",
              "name": "isSelectableByUser",
              "type": "bool"
            },
            {
              "internalType": "bytes",
              "name": "extraData",
              "type": "bytes"
            }
          ],
          "internalType": "struct ClaimRequest[]",
          "name": "claims",
          "type": "tuple[]"
        },
        {
          "components": [
            {
              "internalType": "bytes",
              "name": "message",
              "type": "bytes"
            },
            {
              "internalType": "bool",
              "name": "isSelectableByUser",
              "type": "bool"
            },
            {
              "internalType": "bytes",
              "name": "extraData",
              "type": "bytes"
            }
          ],
          "internalType": "struct SignatureRequest",
          "name": "signature",
          "type": "tuple"
        },
        {
          "internalType": "bytes16",
          "name": "appId",
          "type": "bytes16"
        },
        {
          "internalType": "bytes16",
          "name": "namespace",
          "type": "bytes16"
        }
      ],
      "name": "build",
      "outputs": [
        {
          "components": [
            {
              "internalType": "bytes16",
              "name": "appId",
              "type": "bytes16"
            },
            {
              "internalType": "bytes16",
              "name": "namespace",
              "type": "bytes16"
            },
            {
              "components": [
                {
                  "internalType": "enum AuthType",
                  "name": "authType",
                  "type": "uint8"
                },
                {
                  "internalType": "uint256",
                  "name": "userId",
                  "type": "uint256"
                },
                {
                  "internalType": "bool",
                  "name": "isAnon",
                  "type": "bool"
                },
                {
                  "internalType": "bool",
                  "name": "isOptional",
                  "type": "bool"
                },
                {
                  "internalType": "bool",
                  "name": "isSelectableByUser",
                  "type": "bool"
                },
                {
                  "internalType": "bytes",
                  "name": "extraData",
                  "type": "bytes"
                }
              ],
              "internalType": "struct AuthRequest[]",
              "name": "auths",
              "type": "tuple[]"
            },
            {
              "components": [
                {
                  "internalType": "enum ClaimType",
                  "name": "claimType",
                  "type": "uint8"
                },
                {
                  "internalType": "bytes16",
                  "name": "groupId",
                  "type": "bytes16"
                },
                {
                  "internalType": "bytes16",
                  "name": "groupTimestamp",
                  "type": "bytes16"
                },
                {
                  "internalType": "uint256",
                  "name": "value",
                  "type": "uint256"
                },
                {
                  "internalType": "bool",
                  "name": "isOptional",
                  "type": "bool"
                },
                {
                  "internalType": "bool",
                  "name": "isSelectableByUser",
                  "type": "bool"
                },
                {
                  "internalType": "bytes",
                  "name": "extraData",
                  "type": "bytes"
                }
              ],
              "internalType": "struct ClaimRequest[]",
              "name": "claims",
              "type": "tuple[]"
            },
            {
              "components": [
                {
                  "internalType": "bytes",
                  "name": "message",
                  "type": "bytes"
                },
                {
                  "internalType": "bool",
                  "name": "isSelectableByUser",
                  "type": "bool"
                },
                {
                  "internalType": "bytes",
                  "name": "extraData",
                  "type": "bytes"
                }
              ],
              "internalType": "struct SignatureRequest",
              "name": "signature",
              "type": "tuple"
            }
          ],
          "internalType": "struct SismoConnectRequest",
          "name": "",
          "type": "tuple"
        }
      ],
      "stateMutability": "pure",
      "type": "function"
    },
    {
      "inputs": [
        {
          "components": [
            {
              "internalType": "enum AuthType",
              "name": "authType",
              "type": "uint8"
            },
            {
              "internalType": "uint256",
              "name": "userId",
              "type": "uint256"
            },
            {
              "internalType": "bool",
              "name": "isAnon",
              "type": "bool"
            },
            {
              "internalType": "bool",
              "name": "isOptional",
              "type": "bool"
            },
            {
              "internalType": "bool",
              "name": "isSelectableByUser",
              "type": "bool"
            },
            {
              "internalType": "bytes",
              "name": "extraData",
              "type": "bytes"
            }
          ],
          "internalType": "struct AuthRequest[]",
          "name": "auths",
          "type": "tuple[]"
        },
        {
          "components": [
            {
              "internalType": "enum ClaimType",
              "name": "claimType",
              "type": "uint8"
            },
            {
              "internalType": "bytes16",
              "name": "groupId",
              "type": "bytes16"
            },
            {
              "internalType": "bytes16",
              "name": "groupTimestamp",
              "type": "bytes16"
            },
            {
              "internalType": "uint256",
              "name": "value",
              "type": "uint256"
            },
            {
              "internalType": "bool",
              "name": "isOptional",
              "type": "bool"
            },
            {
              "internalType": "bool",
              "name": "isSelectableByUser",
              "type": "bool"
            },
            {
              "internalType": "bytes",
              "name": "extraData",
              "type": "bytes"
            }
          ],
          "internalType": "struct ClaimRequest[]",
          "name": "claims",
          "type": "tuple[]"
        },
        {
          "components": [
            {
              "internalType": "bytes",
              "name": "message",
              "type": "bytes"
            },
            {
              "internalType": "bool",
              "name": "isSelectableByUser",
              "type": "bool"
            },
            {
              "internalType": "bytes",
              "name": "extraData",
              "type": "bytes"
            }
          ],
          "internalType": "struct SignatureRequest",
          "name": "signature",
          "type": "tuple"
        },
        {
          "internalType": "bytes16",
          "name": "appId",
          "type": "bytes16"
        }
      ],
      "name": "build",
      "outputs": [
        {
          "components": [
            {
              "internalType": "bytes16",
              "name": "appId",
              "type": "bytes16"
            },
            {
              "internalType": "bytes16",
              "name": "namespace",
              "type": "bytes16"
            },
            {
              "components": [
                {
                  "internalType": "enum AuthType",
                  "name": "authType",
                  "type": "uint8"
                },
                {
                  "internalType": "uint256",
                  "name": "userId",
                  "type": "uint256"
                },
                {
                  "internalType": "bool",
                  "name": "isAnon",
                  "type": "bool"
                },
                {
                  "internalType": "bool",
                  "name": "isOptional",
                  "type": "bool"
                },
                {
                  "internalType": "bool",
                  "name": "isSelectableByUser",
                  "type": "bool"
                },
                {
                  "internalType": "bytes",
                  "name": "extraData",
                  "type": "bytes"
                }
              ],
              "internalType": "struct AuthRequest[]",
              "name": "auths",
              "type": "tuple[]"
            },
            {
              "components": [
                {
                  "internalType": "enum ClaimType",
                  "name": "claimType",
                  "type": "uint8"
                },
                {
                  "internalType": "bytes16",
                  "name": "groupId",
                  "type": "bytes16"
                },
                {
                  "internalType": "bytes16",
                  "name": "groupTimestamp",
                  "type": "bytes16"
                },
                {
                  "internalType": "uint256",
                  "name": "value",
                  "type": "uint256"
                },
                {
                  "internalType": "bool",
                  "name": "isOptional",
                  "type": "bool"
                },
                {
                  "internalType": "bool",
                  "name": "isSelectableByUser",
                  "type": "bool"
                },
                {
                  "internalType": "bytes",
                  "name": "extraData",
                  "type": "bytes"
                }
              ],
              "internalType": "struct ClaimRequest[]",
              "name": "claims",
              "type": "tuple[]"
            },
            {
              "components": [
                {
                  "internalType": "bytes",
                  "name": "message",
                  "type": "bytes"
                },
                {
                  "internalType": "bool",
                  "name": "isSelectableByUser",
                  "type": "bool"
                },
                {
                  "internalType": "bytes",
                  "name": "extraData",
                  "type": "bytes"
                }
              ],
              "internalType": "struct SignatureRequest",
              "name": "signature",
              "type": "tuple"
            }
          ],
          "internalType": "struct SismoConnectRequest",
          "name": "",
          "type": "tuple"
        }
      ],
      "stateMutability": "pure",
      "type": "function"
    },
    {
      "inputs": [
        {
          "components": [
            {
              "internalType": "enum AuthType",
              "name": "authType",
              "type": "uint8"
            },
            {
              "internalType": "uint256",
              "name": "userId",
              "type": "uint256"
            },
            {
              "internalType": "bool",
              "name": "isAnon",
              "type": "bool"
            },
            {
              "internalType": "bool",
              "name": "isOptional",
              "type": "bool"
            },
            {
              "internalType": "bool",
              "name": "isSelectableByUser",
              "type": "bool"
            },
            {
              "internalType": "bytes",
              "name": "extraData",
              "type": "bytes"
            }
          ],
          "internalType": "struct AuthRequest",
          "name": "auth",
          "type": "tuple"
        },
        {
          "components": [
            {
              "internalType": "enum ClaimType",
              "name": "claimType",
              "type": "uint8"
            },
            {
              "internalType": "bytes16",
              "name": "groupId",
              "type": "bytes16"
            },
            {
              "internalType": "bytes16",
              "name": "groupTimestamp",
              "type": "bytes16"
            },
            {
              "internalType": "uint256",
              "name": "value",
              "type": "uint256"
            },
            {
              "internalType": "bool",
              "name": "isOptional",
              "type": "bool"
            },
            {
              "internalType": "bool",
              "name": "isSelectableByUser",
              "type": "bool"
            },
            {
              "internalType": "bytes",
              "name": "extraData",
              "type": "bytes"
            }
          ],
          "internalType": "struct ClaimRequest",
          "name": "claim",
          "type": "tuple"
        },
        {
          "components": [
            {
              "internalType": "bytes",
              "name": "message",
              "type": "bytes"
            },
            {
              "internalType": "bool",
              "name": "isSelectableByUser",
              "type": "bool"
            },
            {
              "internalType": "bytes",
              "name": "extraData",
              "type": "bytes"
            }
          ],
          "internalType": "struct SignatureRequest",
          "name": "signature",
          "type": "tuple"
        },
        {
          "internalType": "bytes16",
          "name": "appId",
          "type": "bytes16"
        }
      ],
      "name": "build",
      "outputs": [
        {
          "components": [
            {
              "internalType": "bytes16",
              "name": "appId",
              "type": "bytes16"
            },
            {
              "internalType": "bytes16",
              "name": "namespace",
              "type": "bytes16"
            },
            {
              "components": [
                {
                  "internalType": "enum AuthType",
                  "name": "authType",
                  "type": "uint8"
                },
                {
                  "internalType": "uint256",
                  "name": "userId",
                  "type": "uint256"
                },
                {
                  "internalType": "bool",
                  "name": "isAnon",
                  "type": "bool"
                },
                {
                  "internalType": "bool",
                  "name": "isOptional",
                  "type": "bool"
                },
                {
                  "internalType": "bool",
                  "name": "isSelectableByUser",
                  "type": "bool"
                },
                {
                  "internalType": "bytes",
                  "name": "extraData",
                  "type": "bytes"
                }
              ],
              "internalType": "struct AuthRequest[]",
              "name": "auths",
              "type": "tuple[]"
            },
            {
              "components": [
                {
                  "internalType": "enum ClaimType",
                  "name": "claimType",
                  "type": "uint8"
                },
                {
                  "internalType": "bytes16",
                  "name": "groupId",
                  "type": "bytes16"
                },
                {
                  "internalType": "bytes16",
                  "name": "groupTimestamp",
                  "type": "bytes16"
                },
                {
                  "internalType": "uint256",
                  "name": "value",
                  "type": "uint256"
                },
                {
                  "internalType": "bool",
                  "name": "isOptional",
                  "type": "bool"
                },
                {
                  "internalType": "bool",
                  "name": "isSelectableByUser",
                  "type": "bool"
                },
                {
                  "internalType": "bytes",
                  "name": "extraData",
                  "type": "bytes"
                }
              ],
              "internalType": "struct ClaimRequest[]",
              "name": "claims",
              "type": "tuple[]"
            },
            {
              "components": [
                {
                  "internalType": "bytes",
                  "name": "message",
                  "type": "bytes"
                },
                {
                  "internalType": "bool",
                  "name": "isSelectableByUser",
                  "type": "bool"
                },
                {
                  "internalType": "bytes",
                  "name": "extraData",
                  "type": "bytes"
                }
              ],
              "internalType": "struct SignatureRequest",
              "name": "signature",
              "type": "tuple"
            }
          ],
          "internalType": "struct SismoConnectRequest",
          "name": "",
          "type": "tuple"
        }
      ],
      "stateMutability": "pure",
      "type": "function"
    },
    {
      "inputs": [
        {
          "components": [
            {
              "internalType": "enum ClaimType",
              "name": "claimType",
              "type": "uint8"
            },
            {
              "internalType": "bytes16",
              "name": "groupId",
              "type": "bytes16"
            },
            {
              "internalType": "bytes16",
              "name": "groupTimestamp",
              "type": "bytes16"
            },
            {
              "internalType": "uint256",
              "name": "value",
              "type": "uint256"
            },
            {
              "internalType": "bool",
              "name": "isOptional",
              "type": "bool"
            },
            {
              "internalType": "bool",
              "name": "isSelectableByUser",
              "type": "bool"
            },
            {
              "internalType": "bytes",
              "name": "extraData",
              "type": "bytes"
            }
          ],
          "internalType": "struct ClaimRequest[]",
          "name": "claims",
          "type": "tuple[]"
        },
        {
          "internalType": "bytes16",
          "name": "appId",
          "type": "bytes16"
        }
      ],
      "name": "build",
      "outputs": [
        {
          "components": [
            {
              "internalType": "bytes16",
              "name": "appId",
              "type": "bytes16"
            },
            {
              "internalType": "bytes16",
              "name": "namespace",
              "type": "bytes16"
            },
            {
              "components": [
                {
                  "internalType": "enum AuthType",
                  "name": "authType",
                  "type": "uint8"
                },
                {
                  "internalType": "uint256",
                  "name": "userId",
                  "type": "uint256"
                },
                {
                  "internalType": "bool",
                  "name": "isAnon",
                  "type": "bool"
                },
                {
                  "internalType": "bool",
                  "name": "isOptional",
                  "type": "bool"
                },
                {
                  "internalType": "bool",
                  "name": "isSelectableByUser",
                  "type": "bool"
                },
                {
                  "internalType": "bytes",
                  "name": "extraData",
                  "type": "bytes"
                }
              ],
              "internalType": "struct AuthRequest[]",
              "name": "auths",
              "type": "tuple[]"
            },
            {
              "components": [
                {
                  "internalType": "enum ClaimType",
                  "name": "claimType",
                  "type": "uint8"
                },
                {
                  "internalType": "bytes16",
                  "name": "groupId",
                  "type": "bytes16"
                },
                {
                  "internalType": "bytes16",
                  "name": "groupTimestamp",
                  "type": "bytes16"
                },
                {
                  "internalType": "uint256",
                  "name": "value",
                  "type": "uint256"
                },
                {
                  "internalType": "bool",
                  "name": "isOptional",
                  "type": "bool"
                },
                {
                  "internalType": "bool",
                  "name": "isSelectableByUser",
                  "type": "bool"
                },
                {
                  "internalType": "bytes",
                  "name": "extraData",
                  "type": "bytes"
                }
              ],
              "internalType": "struct ClaimRequest[]",
              "name": "claims",
              "type": "tuple[]"
            },
            {
              "components": [
                {
                  "internalType": "bytes",
                  "name": "message",
                  "type": "bytes"
                },
                {
                  "internalType": "bool",
                  "name": "isSelectableByUser",
                  "type": "bool"
                },
                {
                  "internalType": "bytes",
                  "name": "extraData",
                  "type": "bytes"
                }
              ],
              "internalType": "struct SignatureRequest",
              "name": "signature",
              "type": "tuple"
            }
          ],
          "internalType": "struct SismoConnectRequest",
          "name": "",
          "type": "tuple"
        }
      ],
      "stateMutability": "view",
      "type": "function"
    },
    {
      "inputs": [
        {
          "components": [
            {
              "internalType": "enum AuthType",
              "name": "authType",
              "type": "uint8"
            },
            {
              "internalType": "uint256",
              "name": "userId",
              "type": "uint256"
            },
            {
              "internalType": "bool",
              "name": "isAnon",
              "type": "bool"
            },
            {
              "internalType": "bool",
              "name": "isOptional",
              "type": "bool"
            },
            {
              "internalType": "bool",
              "name": "isSelectableByUser",
              "type": "bool"
            },
            {
              "internalType": "bytes",
              "name": "extraData",
              "type": "bytes"
            }
          ],
          "internalType": "struct AuthRequest",
          "name": "auth",
          "type": "tuple"
        },
        {
          "components": [
            {
              "internalType": "enum ClaimType",
              "name": "claimType",
              "type": "uint8"
            },
            {
              "internalType": "bytes16",
              "name": "groupId",
              "type": "bytes16"
            },
            {
              "internalType": "bytes16",
              "name": "groupTimestamp",
              "type": "bytes16"
            },
            {
              "internalType": "uint256",
              "name": "value",
              "type": "uint256"
            },
            {
              "internalType": "bool",
              "name": "isOptional",
              "type": "bool"
            },
            {
              "internalType": "bool",
              "name": "isSelectableByUser",
              "type": "bool"
            },
            {
              "internalType": "bytes",
              "name": "extraData",
              "type": "bytes"
            }
          ],
          "internalType": "struct ClaimRequest",
          "name": "claim",
          "type": "tuple"
        },
        {
          "components": [
            {
              "internalType": "bytes",
              "name": "message",
              "type": "bytes"
            },
            {
              "internalType": "bool",
              "name": "isSelectableByUser",
              "type": "bool"
            },
            {
              "internalType": "bytes",
              "name": "extraData",
              "type": "bytes"
            }
          ],
          "internalType": "struct SignatureRequest",
          "name": "signature",
          "type": "tuple"
        },
        {
          "internalType": "bytes16",
          "name": "appId",
          "type": "bytes16"
        },
        {
          "internalType": "bytes16",
          "name": "namespace",
          "type": "bytes16"
        }
      ],
      "name": "build",
      "outputs": [
        {
          "components": [
            {
              "internalType": "bytes16",
              "name": "appId",
              "type": "bytes16"
            },
            {
              "internalType": "bytes16",
              "name": "namespace",
              "type": "bytes16"
            },
            {
              "components": [
                {
                  "internalType": "enum AuthType",
                  "name": "authType",
                  "type": "uint8"
                },
                {
                  "internalType": "uint256",
                  "name": "userId",
                  "type": "uint256"
                },
                {
                  "internalType": "bool",
                  "name": "isAnon",
                  "type": "bool"
                },
                {
                  "internalType": "bool",
                  "name": "isOptional",
                  "type": "bool"
                },
                {
                  "internalType": "bool",
                  "name": "isSelectableByUser",
                  "type": "bool"
                },
                {
                  "internalType": "bytes",
                  "name": "extraData",
                  "type": "bytes"
                }
              ],
              "internalType": "struct AuthRequest[]",
              "name": "auths",
              "type": "tuple[]"
            },
            {
              "components": [
                {
                  "internalType": "enum ClaimType",
                  "name": "claimType",
                  "type": "uint8"
                },
                {
                  "internalType": "bytes16",
                  "name": "groupId",
                  "type": "bytes16"
                },
                {
                  "internalType": "bytes16",
                  "name": "groupTimestamp",
                  "type": "bytes16"
                },
                {
                  "internalType": "uint256",
                  "name": "value",
                  "type": "uint256"
                },
                {
                  "internalType": "bool",
                  "name": "isOptional",
                  "type": "bool"
                },
                {
                  "internalType": "bool",
                  "name": "isSelectableByUser",
                  "type": "bool"
                },
                {
                  "internalType": "bytes",
                  "name": "extraData",
                  "type": "bytes"
                }
              ],
              "internalType": "struct ClaimRequest[]",
              "name": "claims",
              "type": "tuple[]"
            },
            {
              "components": [
                {
                  "internalType": "bytes",
                  "name": "message",
                  "type": "bytes"
                },
                {
                  "internalType": "bool",
                  "name": "isSelectableByUser",
                  "type": "bool"
                },
                {
                  "internalType": "bytes",
                  "name": "extraData",
                  "type": "bytes"
                }
              ],
              "internalType": "struct SignatureRequest",
              "name": "signature",
              "type": "tuple"
            }
          ],
          "internalType": "struct SismoConnectRequest",
          "name": "",
          "type": "tuple"
        }
      ],
      "stateMutability": "pure",
      "type": "function"
    }
  ],
  "bytecode": {
    "object": "0x601860e09081527f4d4553534147455f53454c45435445445f42595f555345520000000000000000610100526080818152600060a081905261014060405261012081815260c0529091819062000056908262000141565b50602082015160018201805460ff19169115159190911790556040820151600282019062000085908262000141565b5050503480156200009557600080fd5b506200020d565b634e487b7160e01b600052604160045260246000fd5b600181811c90821680620000c757607f821691505b602082108103620000e857634e487b7160e01b600052602260045260246000fd5b50919050565b601f8211156200013c57600081815260208120601f850160051c81016020861015620001175750805b601f850160051c820191505b81811015620001385782815560010162000123565b5050505b505050565b81516001600160401b038111156200015d576200015d6200009c565b62000175816200016e8454620000b2565b84620000ee565b602080601f831160018114620001ad5760008415620001945750858301515b600019600386901b1c1916600185901b17855562000138565b600085815260208120601f198616915b82811015620001de57888601518255948401946001909101908401620001bd565b5085821015620001fd5787850151600019600388901b60f8161c191681555b5050505050600190811b01905550565b6128dc806200021d6000396000f3fe608060405234801561001057600080fd5b50600436106101735760003560e01c80639266f47c116100de578063dcbfa3e111610097578063e48cd72111610071578063e48cd72114610338578063e93f38b81461034b578063f1c1e2091461035e578063f8e24f8c1461037157600080fd5b8063dcbfa3e1146102ff578063dd10826714610312578063deda2c291461032557600080fd5b80639266f47c1461028d5780639b91f81b146102a0578063abd812a2146102b3578063bfe62cfc146102c6578063c84fe5dd146102d9578063daf7b90d146102ec57600080fd5b80632fbbb9ec116101305780632fbbb9ec1461021b57806331560e751461022e578063548525771461024157806364cb259f146102545780637958fc3f1461026757806391ba07f31461027a57600080fd5b8063080b53f81461017857806310c5d31b146101a157806314ddafa3146101b45780631b399c99146101c757806327b5b7c3146101f55780632ee6a67c14610208575b600080fd5b61018b610186366004611bbb565b610384565b6040516101989190611d75565b60405180910390f35b61018b6101af366004611fc7565b6105aa565b61018b6101c23660046120ec565b610686565b6101dc60008051602061288783398151915281565b6040516001600160801b03199091168152602001610198565b61018b6102033660046121a3565b610707565b61018b6102163660046121d8565b6108d7565b61018b61022936600461225c565b610933565b61018b61023c3660046122b8565b610a00565b61018b61024f366004612313565b610c44565b61018b61026236600461234b565b610d29565b61018b610275366004612384565b610d9d565b61018b6102883660046123d8565b610e82565b61018b61029b36600461240d565b610f76565b61018b6102ae366004612468565b610fe0565b61018b6102c136600461249f565b611070565b61018b6102d43660046124d8565b6110e8565b61018b6102e736600461250f565b611178565b61018b6102fa366004612548565b611250565b61018b61030d3660046125a4565b611487565b61018b6103203660046125db565b61156d565b61018b610333366004612613565b6115f1565b61018b6103463660046126bc565b611632565b61018b610359366004612749565b611683565b61018b61036c3660046127a4565b611786565b61018b61037f3660046127d9565b611824565b61038c61191a565b60408051600080825260208201909252816103bd565b6103aa61195d565b8152602001906001900390816103a25790505b5060408051600180825281830190925291925060009190816020015b6103e161199a565b8152602001906001900390816103d9579050509050848160008151811061040a5761040a612836565b60200260200101819052506040518060a00160405280856001600160801b03191681526020016000805160206128878339815191526001600160801b031916815260200183815260200182815260200160006040518060600160405290816000820180546104779061284c565b80601f01602080910402602001604051908101604052809291908181526020018280546104a39061284c565b80156104f05780601f106104c5576101008083540402835291602001916104f0565b820191906000526020600020905b8154815290600101906020018083116104d357829003601f168201915b5050509183525050600182015460ff161515602082015260028201805460409092019161051c9061284c565b80601f01602080910402602001604051908101604052809291908181526020018280546105489061284c565b80156105955780601f1061056a57610100808354040283529160200191610595565b820191906000526020600020905b81548152906001019060200180831161057857829003601f168201915b50505091909252505050905295945050505050565b6105b261191a565b604080516001808252818301909252600091816020015b6105d161195d565b8152602001906001900390816105c957905050905084816000815181106105fa576105fa612836565b60209081029190910181019190915260408051600080825292810190915281610639565b61062661199a565b81526020019060019003908161061e5790505b506040805160a0810182526001600160801b03199690961686526fb8e2054f8a912367e38a22ce773328ff60801b6020870152850192909252506060830152506080810191909152919050565b61068e61191a565b60408051600080825260208201909252816106bf565b6106ac61195d565b8152602001906001900390816106a45790505b506040805160a0810182526001600160801b03199590951685526fb8e2054f8a912367e38a22ce773328ff60801b602086015284015250506060810192909252608082015290565b61070f61191a565b6040805160008082526020820190925281610740565b61072d61199a565b8152602001906001900390816107255790505b5090506040518060a00160405280846001600160801b03191681526020016000805160206128878339815191526001600160801b031916815260200185815260200182815260200160006040518060600160405290816000820180546107a59061284c565b80601f01602080910402602001604051908101604052809291908181526020018280546107d19061284c565b801561081e5780601f106107f35761010080835404028352916020019161081e565b820191906000526020600020905b81548152906001019060200180831161080157829003601f168201915b5050509183525050600182015460ff161515602082015260028201805460409092019161084a9061284c565b80601f01602080910402602001604051908101604052809291908181526020018280546108769061284c565b80156108c35780601f10610898576101008083540402835291602001916108c3565b820191906000526020600020905b8154815290600101906020018083116108a657829003601f168201915b505050919092525050509052949350505050565b6108df61191a565b6040518060a00160405280846001600160801b0319168152602001836001600160801b031916815260200186815260200185815260200160006040518060600160405290816000820180546104779061284c565b61093b61191a565b604080516001808252818301909252600091816020015b61095a61195d565b815260200190600190039081610952579050509050858160008151811061098357610983612836565b602090810291909101810191909152604080516000808252928101909152816109c2565b6109af61199a565b8152602001906001900390816109a75790505b506040805160a0810182526001600160801b031980891682528716602082015290810193909352606083015250608081018590529050949350505050565b610a0861191a565b604080516001808252818301909252600091816020015b610a2761195d565b815260200190600190039081610a1f5790505090508481600081518110610a5057610a50612836565b6020908102919091010152604080516001808252818301909252600091816020015b610a7a61199a565b815260200190600190039081610a725790505090508481600081518110610aa357610aa3612836565b60200260200101819052506040518060a00160405280856001600160801b03191681526020016000805160206128878339815191526001600160801b03191681526020018381526020018281526020016000604051806060016040529081600082018054610b109061284c565b80601f0160208091040260200160405190810160405280929190818152602001828054610b3c9061284c565b8015610b895780601f10610b5e57610100808354040283529160200191610b89565b820191906000526020600020905b815481529060010190602001808311610b6c57829003601f168201915b5050509183525050600182015460ff1615156020820152600282018054604090920191610bb59061284c565b80601f0160208091040260200160405190810160405280929190818152602001828054610be19061284c565b8015610c2e5780601f10610c0357610100808354040283529160200191610c2e565b820191906000526020600020905b815481529060010190602001808311610c1157829003601f168201915b5050509190925250505090529695505050505050565b610c4c61191a565b6040805160008082526020820190925281610c7d565b610c6a61195d565b815260200190600190039081610c625790505b5060408051600180825281830190925291925060009190816020015b610ca161199a565b815260200190600190039081610c995790505090508581600081518110610cca57610cca612836565b60200260200101819052506040518060a00160405280856001600160801b03191681526020016000805160206128878339815191526001600160801b031916815260200183815260200182815260200186815250925050509392505050565b610d3161191a565b6040805160008082526020820190925281610d62565b610d4f61195d565b815260200190600190039081610d475790505b506040805160a0810182526001600160801b031996871681529490951660208501529383019390935250606081019390935250608082015290565b610da561191a565b6040805160008082526020820190925281610dd6565b610dc361195d565b815260200190600190039081610dbb5790505b5060408051600180825281830190925291925060009190816020015b610dfa61199a565b815260200190600190039081610df25790505090508581600081518110610e2357610e23612836565b60200260200101819052506040518060a00160405280866001600160801b0319168152602001856001600160801b03191681526020018381526020018281526020016000604051806060016040529081600082018054610b109061284c565b610e8a61191a565b604080516001808252818301909252600091816020015b610ea961195d565b815260200190600190039081610ea15790505090508381600081518110610ed257610ed2612836565b60209081029190910181019190915260408051600080825292810190915281610f11565b610efe61199a565b815260200190600190039081610ef65790505b5090506040518060a00160405280856001600160801b03191681526020016000805160206128878339815191526001600160801b031916815260200183815260200182815260200160006040518060600160405290816000820180546104779061284c565b610f7e61191a565b6040518060a00160405280836001600160801b03191681526020016000805160206128878339815191526001600160801b031916815260200185815260200184815260200160006040518060600160405290816000820180546107a59061284c565b610fe861191a565b6040805160008082526020820190925281611019565b61100661199a565b815260200190600190039081610ffe5790505b5090506040518060a00160405280856001600160801b0319168152602001846001600160801b031916815260200186815260200182815260200160006040518060600160405290816000820180546104779061284c565b61107861191a565b60408051600080825260208201909252816110a9565b61109661199a565b81526020019060019003908161108e5790505b506040805160a0810182526001600160801b03199687168152949095166020850152938301959095525060608101919091526080810191909152919050565b6110f061191a565b6040805160008082526020820190925281611121565b61110e61195d565b8152602001906001900390816111065790505b5090506040518060a00160405280856001600160801b0319168152602001846001600160801b031916815260200182815260200186815260200160006040518060600160405290816000820180546104779061284c565b61118061191a565b60408051600080825260208201909252816111b1565b61119e61195d565b8152602001906001900390816111965790505b5060408051600180825281830190925291925060009190816020015b6111d561199a565b8152602001906001900390816111cd57905050905086816000815181106111fe576111fe612836565b60200260200101819052506040518060a00160405280866001600160801b0319168152602001856001600160801b03191681526020018381526020018281526020018781525092505050949350505050565b61125861191a565b604080516001808252818301909252600091816020015b61127761195d565b81526020019060019003908161126f57905050905085816000815181106112a0576112a0612836565b6020908102919091010152604080516001808252818301909252600091816020015b6112ca61199a565b8152602001906001900390816112c257905050905085816000815181106112f3576112f3612836565b60200260200101819052506040518060a00160405280866001600160801b0319168152602001856001600160801b031916815260200183815260200182815260200160006040518060600160405290816000820180546113529061284c565b80601f016020809104026020016040519081016040528092919081815260200182805461137e9061284c565b80156113cb5780601f106113a0576101008083540402835291602001916113cb565b820191906000526020600020905b8154815290600101906020018083116113ae57829003601f168201915b5050509183525050600182015460ff16151560208201526002820180546040909201916113f79061284c565b80601f01602080910402602001604051908101604052809291908181526020018280546114239061284c565b80156114705780601f1061144557610100808354040283529160200191611470565b820191906000526020600020905b81548152906001019060200180831161145357829003601f168201915b505050919092525050509052979650505050505050565b61148f61191a565b604080516001808252818301909252600091816020015b6114ae61195d565b8152602001906001900390816114a657905050905084816000815181106114d7576114d7612836565b60209081029190910181019190915260408051600080825292810190915281611516565b61150361199a565b8152602001906001900390816114fb5790505b5090506040518060a00160405280866001600160801b0319168152602001856001600160801b03191681526020018381526020018281526020016000604051806060016040529081600082018054610b109061284c565b61157561191a565b60408051600080825260208201909252816115a6565b61159361199a565b81526020019060019003908161158b5790505b506040805160a0810182526001600160801b03199590951685526fb8e2054f8a912367e38a22ce773328ff60801b602086015284019590955250506060810192909252608082015290565b6115f961191a565b506040805160a0810182526001600160801b03199384168152919092166020820152908101939093526060830191909152608082015290565b61163a61191a565b506040805160a0810182526001600160801b03199290921682526fb8e2054f8a912367e38a22ce773328ff60801b60208301528101939093526060830191909152608082015290565b61168b61191a565b604080516001808252818301909252600091816020015b6116aa61195d565b8152602001906001900390816116a257905050905085816000815181106116d3576116d3612836565b6020908102919091010152604080516001808252818301909252600091816020015b6116fd61199a565b8152602001906001900390816116f5579050509050858160008151811061172657611726612836565b60200260200101819052506040518060a00160405280856001600160801b03191681526020016000805160206128878339815191526001600160801b03191681526020018381526020018281526020018681525092505050949350505050565b61178e61191a565b60408051600080825260208201909252816117bf565b6117ac61195d565b8152602001906001900390816117a45790505b5090506040518060a00160405280846001600160801b03191681526020016000805160206128878339815191526001600160801b031916815260200182815260200185815260200160006040518060600160405290816000820180546107a59061284c565b61182c61191a565b604080516001808252818301909252600091816020015b61184b61195d565b815260200190600190039081611843579050509050868160008151811061187457611874612836565b6020908102919091010152604080516001808252818301909252600091816020015b61189e61199a565b81526020019060019003908161189657905050905086816000815181106118c7576118c7612836565b60200260200101819052506040518060a00160405280866001600160801b0319168152602001856001600160801b0319168152602001838152602001828152602001878152509250505095945050505050565b6040805160a08101825260008082526020808301829052606083850181905280840181905284518082018652818152918201929092529283015290608082015290565b6040805160c08101909152806000815260200160008152602001600015158152602001600015158152602001600015158152602001606081525090565b6040805160e0810190915280600081526000602082018190526040820181905260608083018290526080830182905260a083019190915260c09091015290565b634e487b7160e01b600052604160045260246000fd5b60405160e081016001600160401b0381118282101715611a1257611a126119da565b60405290565b60405160c081016001600160401b0381118282101715611a1257611a126119da565b604051601f8201601f191681016001600160401b0381118282101715611a6257611a626119da565b604052919050565b803560058110611a7957600080fd5b919050565b80356001600160801b031981168114611a7957600080fd5b80358015158114611a7957600080fd5b600082601f830112611ab757600080fd5b81356001600160401b03811115611ad057611ad06119da565b611ae3601f8201601f1916602001611a3a565b818152846020838601011115611af857600080fd5b816020850160208301376000918101602001919091529392505050565b600060e08284031215611b2757600080fd5b611b2f6119f0565b9050611b3a82611a6a565b8152611b4860208301611a7e565b6020820152611b5960408301611a7e565b604082015260608201356060820152611b7460808301611a96565b6080820152611b8560a08301611a96565b60a082015260c08201356001600160401b03811115611ba357600080fd5b611baf84828501611aa6565b60c08301525092915050565b60008060408385031215611bce57600080fd5b82356001600160401b03811115611be457600080fd5b611bf085828601611b15565b925050611bff60208401611a7e565b90509250929050565b634e487b7160e01b600052602160045260246000fd5b6000815180845260005b81811015611c4457602081850181015186830182015201611c28565b506000602082860101526020601f19601f83011685010191505092915050565b600081518084526020808501808196506005915083821b810183870160005b86811015611d24578383038a52815160e08151878110611ca557611ca5611c08565b8552818801516001600160801b03191688860152604080830151611cd4828801826001600160801b0319169052565b50506060828101519086015260808083015115159086015260a08083015115159086015260c091820151918501819052611d1081860183611c1e565b9b88019b9450505090850190600101611c83565b509098975050505050505050565b6000815160608452611d476060850182611c1e565b905060208301511515602085015260408301518482036040860152611d6c8282611c1e565b95945050505050565b6000602080835260c08084016001600160801b031980875116848701528387015160408282168189015280890151925060a09150606082818a015284845180875260e08b01915060e08160051b8c01019650888601955060005b81811015611e46578b880360df190183528651805160048110611df457611df4611c08565b8952808b01518b8a0152858101511515868a0152848101511515858a01526080808201511515908a01528601518689018a9052611e338a8a0182611c1e565b9850509589019591890191600101611dcf565b505050808a015196505050601f19935083878403016080880152611e6a8386611c64565b9450608088015192508387860301818801525050611e888382611d32565b9695505050505050565b600060c08284031215611ea457600080fd5b611eac611a18565b9050813560048110611ebd57600080fd5b815260208281013590820152611ed560408301611a96565b6040820152611ee660608301611a96565b6060820152611ef760808301611a96565b608082015260a08201356001600160401b03811115611f1557600080fd5b611f2184828501611aa6565b60a08301525092915050565b600060608284031215611f3f57600080fd5b604051606081016001600160401b038282108183111715611f6257611f626119da565b816040528293508435915080821115611f7a57600080fd5b611f8686838701611aa6565b8352611f9460208601611a96565b60208401526040850135915080821115611fad57600080fd5b50611fba85828601611aa6565b6040830152505092915050565b600080600060608486031215611fdc57600080fd5b83356001600160401b0380821115611ff357600080fd5b611fff87838801611e92565b9450602086013591508082111561201557600080fd5b5061202286828701611f2d565b92505061203160408501611a7e565b90509250925092565b60006001600160401b03821115612053576120536119da565b5060051b60200190565b600082601f83011261206e57600080fd5b8135602061208361207e8361203a565b611a3a565b82815260059290921b840181019181810190868411156120a257600080fd5b8286015b848110156120e15780356001600160401b038111156120c55760008081fd5b6120d38986838b0101611b15565b8452509183019183016120a6565b509695505050505050565b60008060006060848603121561210157600080fd5b83356001600160401b038082111561211857600080fd5b611fff8783880161205d565b600082601f83011261213557600080fd5b8135602061214561207e8361203a565b82815260059290921b8401810191818101908684111561216457600080fd5b8286015b848110156120e15780356001600160401b038111156121875760008081fd5b6121958986838b0101611e92565b845250918301918301612168565b600080604083850312156121b657600080fd5b82356001600160401b038111156121cc57600080fd5b611bf085828601612124565b600080600080608085870312156121ee57600080fd5b84356001600160401b038082111561220557600080fd5b61221188838901612124565b9550602087013591508082111561222757600080fd5b506122348782880161205d565b93505061224360408601611a7e565b915061225160608601611a7e565b905092959194509250565b6000806000806080858703121561227257600080fd5b84356001600160401b038082111561228957600080fd5b61229588838901611e92565b955060208701359150808211156122ab57600080fd5b5061223487828801611f2d565b6000806000606084860312156122cd57600080fd5b83356001600160401b03808211156122e457600080fd5b6122f087838801611e92565b9450602086013591508082111561230657600080fd5b5061202286828701611b15565b60008060006060848603121561232857600080fd5b83356001600160401b038082111561233f57600080fd5b611fff87838801611b15565b6000806000806080858703121561236157600080fd5b84356001600160401b038082111561237857600080fd5b6122958883890161205d565b60008060006060848603121561239957600080fd5b83356001600160401b038111156123af57600080fd5b6123bb86828701611b15565b9350506123ca60208501611a7e565b915061203160408501611a7e565b600080604083850312156123eb57600080fd5b82356001600160401b0381111561240157600080fd5b611bf085828601611e92565b60008060006060848603121561242257600080fd5b83356001600160401b038082111561243957600080fd5b61244587838801612124565b9450602086013591508082111561245b57600080fd5b506120228682870161205d565b60008060006060848603121561247d57600080fd5b83356001600160401b0381111561249357600080fd5b6123bb86828701612124565b600080600080608085870312156124b557600080fd5b84356001600160401b03808211156124cc57600080fd5b61229588838901612124565b6000806000606084860312156124ed57600080fd5b83356001600160401b0381111561250357600080fd5b6123bb8682870161205d565b6000806000806080858703121561252557600080fd5b84356001600160401b038082111561253c57600080fd5b61229588838901611b15565b6000806000806080858703121561255e57600080fd5b84356001600160401b038082111561257557600080fd5b61258188838901611e92565b9550602087013591508082111561259757600080fd5b5061223487828801611b15565b6000806000606084860312156125b957600080fd5b83356001600160401b038111156125cf57600080fd5b6123bb86828701611e92565b6000806000606084860312156125f057600080fd5b83356001600160401b038082111561260757600080fd5b611fff87838801612124565b600080600080600060a0868803121561262b57600080fd5b85356001600160401b038082111561264257600080fd5b61264e89838a01612124565b9650602088013591508082111561266457600080fd5b61267089838a0161205d565b9550604088013591508082111561268657600080fd5b5061269388828901611f2d565b9350506126a260608701611a7e565b91506126b060808701611a7e565b90509295509295909350565b600080600080608085870312156126d257600080fd5b84356001600160401b03808211156126e957600080fd5b6126f588838901612124565b9550602087013591508082111561270b57600080fd5b6127178883890161205d565b9450604087013591508082111561272d57600080fd5b5061273a87828801611f2d565b92505061225160608601611a7e565b6000806000806080858703121561275f57600080fd5b84356001600160401b038082111561277657600080fd5b61278288838901611e92565b9550602087013591508082111561279857600080fd5b61271788838901611b15565b600080604083850312156127b757600080fd5b82356001600160401b038111156127cd57600080fd5b611bf08582860161205d565b600080600080600060a086880312156127f157600080fd5b85356001600160401b038082111561280857600080fd5b61281489838a01611e92565b9650602088013591508082111561282a57600080fd5b61267089838a01611b15565b634e487b7160e01b600052603260045260246000fd5b600181811c9082168061286057607f821691505b60208210810361288057634e487b7160e01b600052602260045260246000fd5b5091905056feb8e2054f8a912367e38a22ce773328ff8aabf8082c4120bad9ef085e1dbf29a7a2646970667358221220395e4687bf0b891f90f8fa6115160c956db1fc67b48b8faec3879f12336521ac64736f6c63430008130033",
    "linkReferences": {}
  },
  "methodIdentifiers": {
    "DEFAULT_NAMESPACE()": "1b399c99",
    "build((uint8,bytes16,bytes16,uint256,bool,bool,bytes),(bytes,bool,bytes),bytes16)": "54852577",
    "build((uint8,bytes16,bytes16,uint256,bool,bool,bytes),(bytes,bool,bytes),bytes16,bytes16)": "c84fe5dd",
    "build((uint8,bytes16,bytes16,uint256,bool,bool,bytes),bytes16)": "080b53f8",
    "build((uint8,bytes16,bytes16,uint256,bool,bool,bytes),bytes16,bytes16)": "7958fc3f",
    "build((uint8,bytes16,bytes16,uint256,bool,bool,bytes)[],(bytes,bool,bytes),bytes16)": "14ddafa3",
    "build((uint8,bytes16,bytes16,uint256,bool,bool,bytes)[],(bytes,bool,bytes),bytes16,bytes16)": "64cb259f",
    "build((uint8,bytes16,bytes16,uint256,bool,bool,bytes)[],bytes16)": "f1c1e209",
    "build((uint8,bytes16,bytes16,uint256,bool,bool,bytes)[],bytes16,bytes16)": "bfe62cfc",
    "build((uint8,uint256,bool,bool,bool,bytes),(bytes,bool,bytes),bytes16)": "10c5d31b",
    "build((uint8,uint256,bool,bool,bool,bytes),(bytes,bool,bytes),bytes16,bytes16)": "2fbbb9ec",
    "build((uint8,uint256,bool,bool,bool,bytes),(uint8,bytes16,bytes16,uint256,bool,bool,bytes),(bytes,bool,bytes),bytes16)": "e93f38b8",
    "build((uint8,uint256,bool,bool,bool,bytes),(uint8,bytes16,bytes16,uint256,bool,bool,bytes),(bytes,bool,bytes),bytes16,bytes16)": "f8e24f8c",
    "build((uint8,uint256,bool,bool,bool,bytes),(uint8,bytes16,bytes16,uint256,bool,bool,bytes),bytes16)": "31560e75",
    "build((uint8,uint256,bool,bool,bool,bytes),(uint8,bytes16,bytes16,uint256,bool,bool,bytes),bytes16,bytes16)": "daf7b90d",
    "build((uint8,uint256,bool,bool,bool,bytes),bytes16)": "91ba07f3",
    "build((uint8,uint256,bool,bool,bool,bytes),bytes16,bytes16)": "dcbfa3e1",
    "build((uint8,uint256,bool,bool,bool,bytes)[],(bytes,bool,bytes),bytes16)": "dd108267",
    "build((uint8,uint256,bool,bool,bool,bytes)[],(bytes,bool,bytes),bytes16,bytes16)": "abd812a2",
    "build((uint8,uint256,bool,bool,bool,bytes)[],(uint8,bytes16,bytes16,uint256,bool,bool,bytes)[],(bytes,bool,bytes),bytes16)": "e48cd721",
    "build((uint8,uint256,bool,bool,bool,bytes)[],(uint8,bytes16,bytes16,uint256,bool,bool,bytes)[],(bytes,bool,bytes),bytes16,bytes16)": "deda2c29",
    "build((uint8,uint256,bool,bool,bool,bytes)[],(uint8,bytes16,bytes16,uint256,bool,bool,bytes)[],bytes16)": "9266f47c",
    "build((uint8,uint256,bool,bool,bool,bytes)[],(uint8,bytes16,bytes16,uint256,bool,bool,bytes)[],bytes16,bytes16)": "2ee6a67c",
    "build((uint8,uint256,bool,bool,bool,bytes)[],bytes16)": "27b5b7c3",
    "build((uint8,uint256,bool,bool,bool,bytes)[],bytes16,bytes16)": "9b91f81b"
  },
  "id": 23
}