{
  "abi": [
    {
      "inputs": [
        {
          "internalType": "address payable",
          "name": "_multisig",
          "type": "address"
        }
      ],
      "stateMutability": "nonpayable",
      "type": "constructor"
    },
    {
      "anonymous": false,
      "inputs": [
        {
          "indexed": true,
          "internalType": "uint256",
          "name": "id",
          "type": "uint256"
        },
        {
          "indexed": true,
          "internalType": "bytes32",
          "name": "groupId",
          "type": "bytes32"
        },
        {
          "indexed": false,
          "internalType": "string",
          "name": "title",
          "type": "string"
        },
        {
          "indexed": false,
          "internalType": "uint256",
          "name": "no",
          "type": "uint256"
        }
      ],
      "name": "LeaksAdded",
      "type": "event"
    },
    {
      "anonymous": false,
      "inputs": [
        {
          "components": [
            {
              "internalType": "enum Status",
              "name": "status",
              "type": "uint8"
            },
            {
              "internalType": "uint8",
              "name": "minimumRank",
              "type": "uint8"
            },
            {
              "internalType": "uint32",
              "name": "criticalRatioX10",
              "type": "uint32"
            },
            {
              "internalType": "uint32",
              "name": "timestamp",
              "type": "uint32"
            },
            {
              "internalType": "int64",
              "name": "trustIndex",
              "type": "int64"
            },
            {
              "internalType": "address",
              "name": "messageOwner",
              "type": "address"
            },
            {
              "internalType": "string",
              "name": "title",
              "type": "string"
            },
            {
              "internalType": "string",
              "name": "description",
              "type": "string"
            },
            {
              "internalType": "string",
              "name": "uri",
              "type": "string"
            },
            {
              "internalType": "bytes16",
              "name": "groupId",
              "type": "bytes16"
            },
            {
              "internalType": "uint128",
              "name": "stakedAmount",
              "type": "uint128"
            },
            {
              "internalType": "bytes32",
              "name": "messageId",
              "type": "bytes32"
            }
          ],
          "indexed": false,
          "internalType": "struct Leak",
          "name": "",
          "type": "tuple"
        }
      ],
      "name": "LeaksCancelled",
      "type": "event"
    },
    {
      "inputs": [],
      "name": "APP_ID",
      "outputs": [
        {
          "internalType": "bytes16",
          "name": "",
          "type": "bytes16"
        }
      ],
      "stateMutability": "view",
      "type": "function"
    },
    {
      "inputs": [
        {
          "internalType": "bytes16",
          "name": "_groupId",
          "type": "bytes16"
        },
        {
          "internalType": "bytes32",
          "name": "leakId",
          "type": "bytes32"
        },
        {
          "internalType": "address",
          "name": "to",
          "type": "address"
        }
      ],
      "name": "cancelLeak",
      "outputs": [],
      "stateMutability": "nonpayable",
      "type": "function"
    },
    {
      "inputs": [
        {
          "internalType": "address payable",
          "name": "_newMultisig",
          "type": "address"
        }
      ],
      "name": "changeMultisig",
      "outputs": [],
      "stateMutability": "nonpayable",
      "type": "function"
    },
    {
      "inputs": [
        {
          "internalType": "address",
          "name": "",
          "type": "address"
        }
      ],
      "name": "creditNote",
      "outputs": [
        {
          "internalType": "uint256",
          "name": "",
          "type": "uint256"
        }
      ],
      "stateMutability": "view",
      "type": "function"
    },
    {
      "inputs": [
        {
          "internalType": "string",
          "name": "title",
          "type": "string"
        },
        {
          "internalType": "string",
          "name": "content",
          "type": "string"
        },
        {
          "internalType": "string",
          "name": "uri",
          "type": "string"
        }
      ],
      "name": "encodeLeak",
      "outputs": [
        {
          "internalType": "bytes32",
          "name": "",
          "type": "bytes32"
        }
      ],
      "stateMutability": "pure",
      "type": "function"
    },
    {
      "inputs": [
        {
          "internalType": "uint32[]",
          "name": "ratios",
          "type": "uint32[]"
        },
        {
          "internalType": "bytes32[]",
          "name": "messagesId",
          "type": "bytes32[]"
        }
      ],
      "name": "evaluateLeak",
      "outputs": [],
      "stateMutability": "nonpayable",
      "type": "function"
    },
    {
      "inputs": [],
      "name": "getAllLeaksId",
      "outputs": [
        {
          "internalType": "bytes32[]",
          "name": "total",
          "type": "bytes32[]"
        }
      ],
      "stateMutability": "view",
      "type": "function"
    },
    {
      "inputs": [],
      "name": "getGroupIds",
      "outputs": [
        {
          "internalType": "bytes16[]",
          "name": "",
          "type": "bytes16[]"
        }
      ],
      "stateMutability": "view",
      "type": "function"
    },
    {
      "inputs": [
        {
          "internalType": "bytes32",
          "name": "id",
          "type": "bytes32"
        }
      ],
      "name": "getLeak",
      "outputs": [
        {
          "components": [
            {
              "internalType": "enum Status",
              "name": "status",
              "type": "uint8"
            },
            {
              "internalType": "uint8",
              "name": "minimumRank",
              "type": "uint8"
            },
            {
              "internalType": "uint32",
              "name": "criticalRatioX10",
              "type": "uint32"
            },
            {
              "internalType": "uint32",
              "name": "timestamp",
              "type": "uint32"
            },
            {
              "internalType": "int64",
              "name": "trustIndex",
              "type": "int64"
            },
            {
              "internalType": "address",
              "name": "messageOwner",
              "type": "address"
            },
            {
              "internalType": "string",
              "name": "title",
              "type": "string"
            },
            {
              "internalType": "string",
              "name": "description",
              "type": "string"
            },
            {
              "internalType": "string",
              "name": "uri",
              "type": "string"
            },
            {
              "internalType": "bytes16",
              "name": "groupId",
              "type": "bytes16"
            },
            {
              "internalType": "uint128",
              "name": "stakedAmount",
              "type": "uint128"
            },
            {
              "internalType": "bytes32",
              "name": "messageId",
              "type": "bytes32"
            }
          ],
          "internalType": "struct Leak",
          "name": "",
          "type": "tuple"
        }
      ],
      "stateMutability": "view",
      "type": "function"
    },
    {
      "inputs": [
        {
          "internalType": "bytes32[]",
          "name": "ids",
          "type": "bytes32[]"
        }
      ],
      "name": "getLeaks",
      "outputs": [
        {
          "components": [
            {
              "internalType": "enum Status",
              "name": "status",
              "type": "uint8"
            },
            {
              "internalType": "uint8",
              "name": "minimumRank",
              "type": "uint8"
            },
            {
              "internalType": "uint32",
              "name": "criticalRatioX10",
              "type": "uint32"
            },
            {
              "internalType": "uint32",
              "name": "timestamp",
              "type": "uint32"
            },
            {
              "internalType": "int64",
              "name": "trustIndex",
              "type": "int64"
            },
            {
              "internalType": "address",
              "name": "messageOwner",
              "type": "address"
            },
            {
              "internalType": "string",
              "name": "title",
              "type": "string"
            },
            {
              "internalType": "string",
              "name": "description",
              "type": "string"
            },
            {
              "internalType": "string",
              "name": "uri",
              "type": "string"
            },
            {
              "internalType": "bytes16",
              "name": "groupId",
              "type": "bytes16"
            },
            {
              "internalType": "uint128",
              "name": "stakedAmount",
              "type": "uint128"
            },
            {
              "internalType": "bytes32",
              "name": "messageId",
              "type": "bytes32"
            }
          ],
          "internalType": "struct Leak[]",
          "name": "",
          "type": "tuple[]"
        }
      ],
      "stateMutability": "view",
      "type": "function"
    },
    {
      "inputs": [
        {
          "internalType": "bytes16",
          "name": "_groupId",
          "type": "bytes16"
        }
      ],
      "name": "getLeaksIDByGroupId",
      "outputs": [
        {
          "internalType": "bytes32[]",
          "name": "",
          "type": "bytes32[]"
        }
      ],
      "stateMutability": "view",
      "type": "function"
    },
    {
      "inputs": [
        {
          "internalType": "address",
          "name": "sender",
          "type": "address"
        }
      ],
      "name": "getLeaksIDBySender",
      "outputs": [
        {
          "internalType": "bytes32[]",
          "name": "",
          "type": "bytes32[]"
        }
      ],
      "stateMutability": "view",
      "type": "function"
    },
    {
      "inputs": [],
      "name": "grantVault",
      "outputs": [
        {
          "internalType": "contract BlockLeaksVault",
          "name": "",
          "type": "address"
        }
      ],
      "stateMutability": "view",
      "type": "function"
    },
    {
      "inputs": [],
      "name": "messageCount",
      "outputs": [
        {
          "internalType": "uint256",
          "name": "",
          "type": "uint256"
        }
      ],
      "stateMutability": "view",
      "type": "function"
    },
    {
      "inputs": [],
      "name": "minStakePrice",
      "outputs": [
        {
          "internalType": "uint256",
          "name": "",
          "type": "uint256"
        }
      ],
      "stateMutability": "view",
      "type": "function"
    },
    {
      "inputs": [],
      "name": "multisig",
      "outputs": [
        {
          "internalType": "address payable",
          "name": "",
          "type": "address"
        }
      ],
      "stateMutability": "view",
      "type": "function"
    },
    {
      "inputs": [
        {
          "internalType": "uint256",
          "name": "_newStake",
          "type": "uint256"
        }
      ],
      "name": "newminStakePrice",
      "outputs": [],
      "stateMutability": "nonpayable",
      "type": "function"
    },
    {
      "inputs": [
        {
          "internalType": "int256",
          "name": "amount",
          "type": "int256"
        },
        {
          "internalType": "address",
          "name": "creditor",
          "type": "address"
        }
      ],
      "name": "setCreditNote",
      "outputs": [],
      "stateMutability": "nonpayable",
      "type": "function"
    },
    {
      "inputs": [
        {
          "internalType": "address",
          "name": "",
          "type": "address"
        }
      ],
      "name": "trustScore",
      "outputs": [
        {
          "internalType": "int64",
          "name": "",
          "type": "int64"
        }
      ],
      "stateMutability": "view",
      "type": "function"
    },
    {
      "inputs": [
        {
          "internalType": "contract IERC20",
          "name": "token",
          "type": "address"
        }
      ],
      "name": "withdrawERC20",
      "outputs": [],
      "stateMutability": "nonpayable",
      "type": "function"
    },
    {
      "inputs": [
        {
          "internalType": "bytes32[]",
          "name": "_msgIds",
          "type": "bytes32[]"
        }
      ],
      "name": "withdrawSomeToMultisig",
      "outputs": [],
      "stateMutability": "nonpayable",
      "type": "function"
    },
    {
      "inputs": [
        {
          "internalType": "bytes32",
          "name": "_msgId",
          "type": "bytes32"
        }
      ],
      "name": "withdrawToMsgOwner",
      "outputs": [],
      "stateMutability": "nonpayable",
      "type": "function"
    },
    {
      "inputs": [
        {
          "internalType": "bytes32[]",
          "name": "_msgIds",
          "type": "bytes32[]"
        }
      ],
      "name": "withdrawToMsgOwner",
      "outputs": [],
      "stateMutability": "nonpayable",
      "type": "function"
    },
    {
      "inputs": [
        {
          "internalType": "bytes32",
          "name": "_msgId",
          "type": "bytes32"
        }
      ],
      "name": "withdrawToMultisig",
      "outputs": [],
      "stateMutability": "nonpayable",
      "type": "function"
    },
    {
      "inputs": [
        {
          "internalType": "bytes16",
          "name": "_groupId",
          "type": "bytes16"
        },
        {
          "internalType": "string",
          "name": "_title",
          "type": "string"
        },
        {
          "internalType": "string",
          "name": "_description",
          "type": "string"
        },
        {
          "internalType": "string",
          "name": "_uri",
          "type": "string"
        }
      ],
      "name": "writeLeak",
      "outputs": [
        {
          "internalType": "bytes32",
          "name": "id",
          "type": "bytes32"
        }
      ],
      "stateMutability": "payable",
      "type": "function"
    },
    {
      "stateMutability": "payable",
      "type": "receive"
    }
  ],
  "bytecode": {
    "object": "0x60806040523480156200001157600080fd5b50604051620037cf380380620037cf83398101604081905262000034916200005f565b6001600055600380546001600160a01b0319166001600160a01b039290921691909117905562000091565b6000602082840312156200007257600080fd5b81516001600160a01b03811681146200008a57600080fd5b9392505050565b61372e80620000a16000396000f3fe60806040526004361061016a5760003560e01c8063bd3143e2116100d1578063d6224f7a1161008a578063e065da7711610064578063e065da77146104d1578063e3d682e3146104f1578063e9adf37814610507578063f4f3b2001461052757600080fd5b8063d6224f7a1461047c578063d66e84111461049c578063dc590b01146104b157600080fd5b8063bd3143e21461038d578063bf431f4a146103ba578063c02b8b2c146103da578063c187bbc1146103fc578063cbdecc3c1461043c578063ccdff6351461045c57600080fd5b80634783c35b116101235780634783c35b14610278578063534a8465146102b057806362e3cee7146102f357806369a48c5914610313578063873a9ff1146103405780639a61416e1461036057600080fd5b80631838e95f146101af57806320f4591b146101d55780632268a358146101f5578063358188a0146102155780633dbcc8d1146102425780634505da601461025857600080fd5b366101aa576003546040516001600160a01b03909116903480156108fc02916000818181858888f193505050501580156101a8573d6000803e3d6000fd5b005b600080fd5b6101c26101bd366004612c63565b610547565b6040519081526020015b60405180910390f35b3480156101e157600080fd5b506101a86101f0366004612d22565b610904565b34801561020157600080fd5b506101a8610210366004612d62565b610d40565b34801561022157600080fd5b506101c2610230366004612d62565b60096020526000908152604090205481565b34801561024e57600080fd5b506101c260045481565b34801561026457600080fd5b506101a8610273366004612d95565b610d8c565b34801561028457600080fd5b50600354610298906001600160a01b031681565b6040516001600160a01b0390911681526020016101cc565b3480156102bc57600080fd5b506102e06102cb366004612d62565b60086020526000908152604090205460070b81565b60405160079190910b81526020016101cc565b3480156102ff57600080fd5b506101a861030e366004612e52565b610df0565b34801561031f57600080fd5b5061033361032e366004612d62565b611207565b6040516101cc9190612e6b565b34801561034c57600080fd5b5061033361035b366004612eaf565b611231565b34801561036c57600080fd5b5061038061037b366004612e52565b611256565b6040516101cc919061306c565b34801561039957600080fd5b506103ad6103a83660046130c3565b6114ed565b6040516101cc9190613104565b3480156103c657600080fd5b506101a86103d5366004612e52565b61182b565b3480156103e657600080fd5b506103ef61185a565b6040516101cc9190613166565b34801561040857600080fd5b506104236f3c0e4da0cf926dfbf5e31aa66f77199b60801b81565b6040516001600160801b031990911681526020016101cc565b34801561044857600080fd5b506101a8610457366004612e52565b61190a565b34801561046857600080fd5b506101a86104773660046131a8565b611db0565b34801561048857600080fd5b506101a8610497366004612d95565b611e3d565b3480156104a857600080fd5b50610333611e9d565b3480156104bd57600080fd5b506101a86104cc3660046131d8565b611fc9565b3480156104dd57600080fd5b50600654610298906001600160a01b031681565b3480156104fd57600080fd5b506101c260055481565b34801561051357600080fd5b506101c2610522366004613243565b61250d565b34801561053357600080fd5b506101a8610542366004612d62565b61254c565b60003460055411156105955760405162461bcd60e51b81526020600482015260126024820152714e65656420746f207374616b65206d6f726560701b60448201526064015b60405180910390fd5b6004546105a688888888888861250d565b600081815260076020526040902060060154909250156105fe5760405162461bcd60e51b81526020600482015260136024820152724c65616b20616c72656164792065786973747360681b604482015260640161058c565b604080516101808101825260008082526001602080840191909152600a8385015263ffffffff4216606084015233808352600882528483205460070b608085015260a08401528351601f8c018290048202810182019094528a8452909260c08301918c908c9081908401838280828437600092019190915250505090825250604080516020601f8b0181900481028201810190925289815291810191908a908a9081908401838280828437600092019190915250505090825250604080516020601f89018190048102820181019092528781529181019190889088908190840183828082843760009201829052509385525050506001600160801b03198d16602080840191909152346001600160801b031660408085019190915260609093018790528682526007905220815181549293508392829060ff1916600183600381111561074c5761074c612eca565b02179055506020820151815460408401516060850151608086015165ffffffffff001990931661010060ff9095169490940265ffffffff00001916939093176201000063ffffffff928316021771ffffffffffffffffffffffff0000000000001916600160301b919093160267ffffffffffffffff60501b191691909117600160501b6001600160401b039092169190910217815560a08201516001820180546001600160a01b0319166001600160a01b0390921691909117905560c0820151600282019061081b908261335c565b5060e08201516003820190610830908261335c565b506101008201516004820190610846908261335c565b506101208201516101408301516001600160801b0316600160801b0260809190911c1760058201556101609091015160069091015561089060016001600160801b03198c166125f8565b61089d5761089d8a612613565b6108a8838b33612628565b896001600160801b0319168263ffffffff167f946ce06a23d195a3a7347b23b5d271519c93ed3785e7ef5121d5cf56a634a4bd8b8b6004546040516108ef93929190613444565b60405180910390a35050979650505050505050565b600082815260076020526040808220815161018081019092528054829060ff16600381111561093557610935612eca565b600381111561094657610946612eca565b8152815460ff610100820416602083015263ffffffff62010000820481166040840152600160301b8204166060830152600160501b900460070b608082015260018201546001600160a01b031660a082015260028201805460c0909201916109ad906132dc565b80601f01602080910402602001604051908101604052809291908181526020018280546109d9906132dc565b8015610a265780601f106109fb57610100808354040283529160200191610a26565b820191906000526020600020905b815481529060010190602001808311610a0957829003601f168201915b50505050508152602001600382018054610a3f906132dc565b80601f0160208091040260200160405190810160405280929190818152602001828054610a6b906132dc565b8015610ab85780601f10610a8d57610100808354040283529160200191610ab8565b820191906000526020600020905b815481529060010190602001808311610a9b57829003601f168201915b50505050508152602001600482018054610ad1906132dc565b80601f0160208091040260200160405190810160405280929190818152602001828054610afd906132dc565b8015610b4a5780601f10610b1f57610100808354040283529160200191610b4a565b820191906000526020600020905b815481529060010190602001808311610b2d57829003601f168201915b505050918352505060058201546001600160801b0319608082901b166020830152600160801b90046001600160801b031660408201526006909101546060909101529050600181516003811115610ba357610ba3612eca565b1115610bf15760405162461bcd60e51b815260206004820152601b60248201527f4e6f7420617574686f72697a6564203a20756e76657269666965640000000000604482015260640161058c565b60a08101516001600160a01b03163314610c4d5760405162461bcd60e51b815260206004820152601a60248201527f4e6f7420617574686f72697a6564203a206e6f74206f776e6572000000000000604482015260640161058c565b6000826001600160a01b03168261014001516001600160801b031660405160006040518083038185875af1925050503d8060008114610ca8576040519150601f19603f3d011682016040523d82523d6000602084013e610cad565b606091505b5050905080610cf75760405162461bcd60e51b815260206004820152601660248201527522b93937b91034b71031b0b63610333ab731ba34b7b760511b604482015260640161058c565b610d02848633612687565b7fd0ff3e9ba58c4021f27206d985c2a3656e1136c8c4b7077aa26a363137fb70b482604051610d31919061306c565b60405180910390a15050505050565b6003546001600160a01b03163314610d6a5760405162461bcd60e51b815260040161058c90613468565b600380546001600160a01b0319166001600160a01b0392909216919091179055565b6003546001600160a01b03163314610db65760405162461bcd60e51b815260040161058c90613468565b60005b8151811015610dec57610de4828281518110610dd757610dd761348e565b6020026020010151610df0565b600101610db9565b5050565b6003546001600160a01b03163314610e1a5760405162461bcd60e51b815260040161058c90613468565b600081815260076020526040808220815161018081019092528054829060ff166003811115610e4b57610e4b612eca565b6003811115610e5c57610e5c612eca565b8152815460ff610100820416602083015263ffffffff62010000820481166040840152600160301b8204166060830152600160501b900460070b608082015260018201546001600160a01b031660a082015260028201805460c090920191610ec3906132dc565b80601f0160208091040260200160405190810160405280929190818152602001828054610eef906132dc565b8015610f3c5780601f10610f1157610100808354040283529160200191610f3c565b820191906000526020600020905b815481529060010190602001808311610f1f57829003601f168201915b50505050508152602001600382018054610f55906132dc565b80601f0160208091040260200160405190810160405280929190818152602001828054610f81906132dc565b8015610fce5780601f10610fa357610100808354040283529160200191610fce565b820191906000526020600020905b815481529060010190602001808311610fb157829003601f168201915b50505050508152602001600482018054610fe7906132dc565b80601f0160208091040260200160405190810160405280929190818152602001828054611013906132dc565b80156110605780601f1061103557610100808354040283529160200191611060565b820191906000526020600020905b81548152906001019060200180831161104357829003601f168201915b505050918352505060058201546001600160801b0319608082901b166020830152600160801b90046001600160801b0316604082015260069091015460609091015290506001815160038111156110b9576110b9612eca565b146110fa5760405162461bcd60e51b815260206004820152601160248201527020b63932b0b23c903bb4ba34323930bbb760791b604482015260640161058c565b6003808252546101408201516040516000926001600160a01b0316916001600160801b0316908381818185875af1925050503d8060008114611158576040519150601f19603f3d011682016040523d82523d6000602084013e61115d565b606091505b505090508061119f5760405162461bcd60e51b815260206004820152600e60248201526d2a3930b739b332b91022b93937b960911b604482015260640161058c565b60408083015160a08401516001600160a01b031660009081526008602052918220805463ffffffff9092169290916111db90849060070b6134ba565b92506101000a8154816001600160401b03021916908360070b6001600160401b03160217905550505050565b6001600160a01b0381166000908152600b6020526040902060609061122b906126dd565b92915050565b6001600160801b031981166000908152600a6020526040902060609061122b906126dd565b61125e612b99565b60008281526007602052604090819020815161018081019092528054829060ff16600381111561129057611290612eca565b60038111156112a1576112a1612eca565b8152815460ff610100820416602083015263ffffffff62010000820481166040840152600160301b8204166060830152600160501b900460070b608082015260018201546001600160a01b031660a082015260028201805460c090920191611308906132dc565b80601f0160208091040260200160405190810160405280929190818152602001828054611334906132dc565b80156113815780601f1061135657610100808354040283529160200191611381565b820191906000526020600020905b81548152906001019060200180831161136457829003601f168201915b5050505050815260200160038201805461139a906132dc565b80601f01602080910402602001604051908101604052809291908181526020018280546113c6906132dc565b80156114135780601f106113e857610100808354040283529160200191611413565b820191906000526020600020905b8154815290600101906020018083116113f657829003601f168201915b5050505050815260200160048201805461142c906132dc565b80601f0160208091040260200160405190810160405280929190818152602001828054611458906132dc565b80156114a55780601f1061147a576101008083540402835291602001916114a5565b820191906000526020600020905b81548152906001019060200180831161148857829003601f168201915b505050918352505060058201546001600160801b0319608082901b166020830152600160801b90046001600160801b0316604082015260069091015460609091015292915050565b6060816000816001600160401b0381111561150a5761150a612d7f565b60405190808252806020026020018201604052801561154357816020015b611530612b99565b8152602001906001900390816115285790505b50905060005b8281101561182257600760008787848181106115675761156761348e565b602090810292909201358352508101919091526040908101600020815161018081019092528054829060ff1660038111156115a4576115a4612eca565b60038111156115b5576115b5612eca565b8152815460ff610100820416602083015263ffffffff62010000820481166040840152600160301b8204166060830152600160501b900460070b608082015260018201546001600160a01b031660a082015260028201805460c09092019161161c906132dc565b80601f0160208091040260200160405190810160405280929190818152602001828054611648906132dc565b80156116955780601f1061166a57610100808354040283529160200191611695565b820191906000526020600020905b81548152906001019060200180831161167857829003601f168201915b505050505081526020016003820180546116ae906132dc565b80601f01602080910402602001604051908101604052809291908181526020018280546116da906132dc565b80156117275780601f106116fc57610100808354040283529160200191611727565b820191906000526020600020905b81548152906001019060200180831161170a57829003601f168201915b50505050508152602001600482018054611740906132dc565b80601f016020809104026020016040519081016040528092919081815260200182805461176c906132dc565b80156117b95780601f1061178e576101008083540402835291602001916117b9565b820191906000526020600020905b81548152906001019060200180831161179c57829003601f168201915b505050918352505060058201546001600160801b0319608082901b166020830152600160801b90046001600160801b03166040820152600690910154606090910152825183908390811061180f5761180f61348e565b6020908102919091010152600101611549565b50949350505050565b6003546001600160a01b031633146118555760405162461bcd60e51b815260040161058c90613468565b600555565b6060600061186860016126ea565b90506000816001600160401b0381111561188457611884612d7f565b6040519080825280602002602001820160405280156118ad578160200160208202803683370190505b50905060005b82811015611903576118c66001826126f4565b8282815181106118d8576118d861348e565b6001600160801b031990921660209283029190910190910152806118fb816134e9565b9150506118b3565b5092915050565b6003546001600160a01b031633146119345760405162461bcd60e51b815260040161058c90613468565b600081815260076020526040808220815161018081019092528054829060ff16600381111561196557611965612eca565b600381111561197657611976612eca565b8152815460ff610100820416602083015263ffffffff62010000820481166040840152600160301b8204166060830152600160501b900460070b608082015260018201546001600160a01b031660a082015260028201805460c0909201916119dd906132dc565b80601f0160208091040260200160405190810160405280929190818152602001828054611a09906132dc565b8015611a565780601f10611a2b57610100808354040283529160200191611a56565b820191906000526020600020905b815481529060010190602001808311611a3957829003601f168201915b50505050508152602001600382018054611a6f906132dc565b80601f0160208091040260200160405190810160405280929190818152602001828054611a9b906132dc565b8015611ae85780601f10611abd57610100808354040283529160200191611ae8565b820191906000526020600020905b815481529060010190602001808311611acb57829003601f168201915b50505050508152602001600482018054611b01906132dc565b80601f0160208091040260200160405190810160405280929190818152602001828054611b2d906132dc565b8015611b7a5780601f10611b4f57610100808354040283529160200191611b7a565b820191906000526020600020905b815481529060010190602001808311611b5d57829003601f168201915b505050918352505060058201546001600160801b0319608082901b166020830152600160801b90046001600160801b031660408201526006909101546060909101529050600181516003811115611bd357611bd3612eca565b14611c145760405162461bcd60e51b815260206004820152601160248201527020b63932b0b23c903bb4ba34323930bbb760791b604482015260640161058c565b6002815260065460a082015161014083015160408401516001600160a01b03909316926340c10f19929190600a90611c5390839063ffffffff16613502565b611c5d919061352d565b611c679190613561565b6040516001600160e01b031960e085901b1681526001600160a01b0390921660048301526001600160801b03166024820152604401600060405180830381600087803b158015611cb657600080fd5b505af1158015611cca573d6000803e3d6000fd5b5050505060008160a001516001600160a01b03168261014001516001600160801b031660405160006040518083038185875af1925050503d8060008114611d2d576040519150601f19603f3d011682016040523d82523d6000602084013e611d32565b606091505b5050905080611d745760405162461bcd60e51b815260206004820152600e60248201526d2a3930b739b332b91022b93937b960911b604482015260640161058c565b60408083015160a08401516001600160a01b031660009081526008602052918220805463ffffffff9092169290916111db90849060070b613581565b6003546001600160a01b03163314611dda5760405162461bcd60e51b815260040161058c90613468565b6001600160a01b038116600090815260096020526040812054908312611e0957611e0483826135b0565b611e1c565b611e12836135c3565b611e1c90826135df565b6001600160a01b039092166000908152600960205260409020919091555050565b6003546001600160a01b03163314611e675760405162461bcd60e51b815260040161058c90613468565b60005b8151811015610dec57611e95828281518110611e8857611e8861348e565b602002602001015161190a565b600101611e6a565b60606004546001600160401b03811115611eb957611eb9612d7f565b604051908082528060200260200182016040528015611ee2578160200160208202803683370190505b5090506000611ef160016126dd565b80519091506000805b82811015611fc2576000611f4c600a6000878581518110611f1d57611f1d61348e565b60200260200101516001600160801b0319166001600160801b03191681526020019081526020016000206126dd565b805190915060005b81811015611faf57828181518110611f6e57611f6e61348e565b6020026020010151888680611f82906134e9565b975081518110611f9457611f9461348e565b6020908102919091010152611fa8816134e9565b9050611f54565b50611fb9836134e9565b92505050611efa565b5050505090565b6003546001600160a01b03163314611ff35760405162461bcd60e51b815260040161058c90613468565b828181146120355760405162461bcd60e51b815260206004820152600f60248201526e6c656e206d69736d61746368696e6760881b604482015260640161058c565b60005b81811015612505576000600760008686858181106120585761205861348e565b602090810292909201358352508101919091526040908101600020815161018081019092528054829060ff16600381111561209557612095612eca565b60038111156120a6576120a6612eca565b8152815460ff610100820416602083015263ffffffff62010000820481166040840152600160301b8204166060830152600160501b900460070b608082015260018201546001600160a01b031660a082015260028201805460c09092019161210d906132dc565b80601f0160208091040260200160405190810160405280929190818152602001828054612139906132dc565b80156121865780601f1061215b57610100808354040283529160200191612186565b820191906000526020600020905b81548152906001019060200180831161216957829003601f168201915b5050505050815260200160038201805461219f906132dc565b80601f01602080910402602001604051908101604052809291908181526020018280546121cb906132dc565b80156122185780601f106121ed57610100808354040283529160200191612218565b820191906000526020600020905b8154815290600101906020018083116121fb57829003601f168201915b50505050508152602001600482018054612231906132dc565b80601f016020809104026020016040519081016040528092919081815260200182805461225d906132dc565b80156122aa5780601f1061227f576101008083540402835291602001916122aa565b820191906000526020600020905b81548152906001019060200180831161228d57829003601f168201915b505050918352505060058201546001600160801b0319608082901b166020830152600160801b90046001600160801b031660408201526006909101546060909101528051909150600090600381111561230557612305612eca565b905060018111156123425760405162461bcd60e51b81526020600482015260076024820152664e6f74206e6f7760c81b604482015260640161058c565b8061234c57600182525b87878481811061235e5761235e61348e565b905060200201602081019061237391906135f2565b63ffffffff16604083015281600760008888878181106123955761239561348e565b6020908102929092013583525081019190915260400160002081518154829060ff191660018360038111156123cc576123cc612eca565b02179055506020820151815460408401516060850151608086015165ffffffffff001990931661010060ff9095169490940265ffffffff00001916939093176201000063ffffffff928316021771ffffffffffffffffffffffff0000000000001916600160301b919093160267ffffffffffffffff60501b191691909117600160501b6001600160401b039092169190910217815560a08201516001820180546001600160a01b0319166001600160a01b0390921691909117905560c0820151600282019061249b908261335c565b5060e082015160038201906124b0908261335c565b5061010082015160048201906124c6908261335c565b506101208201516101408301516001600160801b0316600160801b0260809190911c176005820155610160909101516006909101555050600101612038565b505050505050565b600086868686868660405160200161252a96959493929190613618565b6040516020818303038152906040528051906020012090509695505050505050565b6003546001600160a01b031633146125765760405162461bcd60e51b815260040161058c90613468565b6040516370a0823160e01b81523060048201526125f59033906001600160a01b038416906370a0823190602401602060405180830381865afa1580156125c0573d6000803e3d6000fd5b505050506040513d601f19601f820116820180604052508101906125e49190613661565b6001600160a01b0384169190612700565b50565b600081815260018301602052604081205415155b9392505050565b610dec60016001600160801b03198316612757565b6001600160801b031982166000908152600a6020526040902061264b9084612757565b506001600160a01b0381166000908152600b6020526040902061266e9084612757565b5060046000815461267e906134e9565b90915550505050565b6001600160801b031982166000908152600a602052604090206126aa9084612763565b506001600160a01b0381166000908152600b602052604090206126cd9084612763565b5060046000815461267e9061367a565b6060600061260c8361276f565b600061122b825490565b600061260c83836127cb565b604080516001600160a01b038416602482015260448082018490528251808303909101815260649091019091526020810180516001600160e01b031663a9059cbb60e01b1790526127529084906127f5565b505050565b600061260c83836128c7565b600061260c8383612916565b6060816000018054806020026020016040519081016040528092919081815260200182805480156127bf57602002820191906000526020600020905b8154815260200190600101908083116127ab575b50505050509050919050565b60008260000182815481106127e2576127e261348e565b9060005260206000200154905092915050565b600061284a826040518060400160405280602081526020017f5361666545524332303a206c6f772d6c6576656c2063616c6c206661696c6564815250856001600160a01b0316612a099092919063ffffffff16565b80519091501561275257808060200190518101906128689190613691565b6127525760405162461bcd60e51b815260206004820152602a60248201527f5361666545524332303a204552433230206f7065726174696f6e20646964206e6044820152691bdd081cdd58d8d9595960b21b606482015260840161058c565b600081815260018301602052604081205461290e5750815460018181018455600084815260208082209093018490558454848252828601909352604090209190915561122b565b50600061122b565b600081815260018301602052604081205480156129ff57600061293a6001836135df565b855490915060009061294e906001906135df565b90508181146129b357600086600001828154811061296e5761296e61348e565b90600052602060002001549050808760000184815481106129915761299161348e565b6000918252602080832090910192909255918252600188019052604090208390555b85548690806129c4576129c46136b3565b60019003818190600052602060002001600090559055856001016000868152602001908152602001600020600090556001935050505061122b565b600091505061122b565b6060612a188484600085612a20565b949350505050565b606082471015612a815760405162461bcd60e51b815260206004820152602660248201527f416464726573733a20696e73756666696369656e742062616c616e636520666f6044820152651c8818d85b1b60d21b606482015260840161058c565b600080866001600160a01b03168587604051612a9d91906136c9565b60006040518083038185875af1925050503d8060008114612ada576040519150601f19603f3d011682016040523d82523d6000602084013e612adf565b606091505b5091509150612af087838387612afb565b979650505050505050565b60608315612b6a578251600003612b63576001600160a01b0385163b612b635760405162461bcd60e51b815260206004820152601d60248201527f416464726573733a2063616c6c20746f206e6f6e2d636f6e7472616374000000604482015260640161058c565b5081612a18565b612a188383815115612b7f5781518083602001fd5b8060405162461bcd60e51b815260040161058c91906136e5565b60408051610180810190915280600081526000602082018190526040820181905260608083018290526080830182905260a0830182905260c0830181905260e08301819052610100830152610120820181905261014082018190526101609091015290565b80356001600160801b031981168114612c1657600080fd5b919050565b60008083601f840112612c2d57600080fd5b5081356001600160401b03811115612c4457600080fd5b602083019150836020828501011115612c5c57600080fd5b9250929050565b60008060008060008060006080888a031215612c7e57600080fd5b612c8788612bfe565b965060208801356001600160401b0380821115612ca357600080fd5b612caf8b838c01612c1b565b909850965060408a0135915080821115612cc857600080fd5b612cd48b838c01612c1b565b909650945060608a0135915080821115612ced57600080fd5b50612cfa8a828b01612c1b565b989b979a50959850939692959293505050565b6001600160a01b03811681146125f557600080fd5b600080600060608486031215612d3757600080fd5b612d4084612bfe565b9250602084013591506040840135612d5781612d0d565b809150509250925092565b600060208284031215612d7457600080fd5b813561260c81612d0d565b634e487b7160e01b600052604160045260246000fd5b60006020808385031215612da857600080fd5b82356001600160401b0380821115612dbf57600080fd5b818501915085601f830112612dd357600080fd5b813581811115612de557612de5612d7f565b8060051b604051601f19603f83011681018181108582111715612e0a57612e0a612d7f565b604052918252848201925083810185019188831115612e2857600080fd5b938501935b82851015612e4657843584529385019392850192612e2d565b98975050505050505050565b600060208284031215612e6457600080fd5b5035919050565b6020808252825182820181905260009190848201906040850190845b81811015612ea357835183529284019291840191600101612e87565b50909695505050505050565b600060208284031215612ec157600080fd5b61260c82612bfe565b634e487b7160e01b600052602160045260246000fd5b60048110612efe57634e487b7160e01b600052602160045260246000fd5b9052565b60005b83811015612f1d578181015183820152602001612f05565b50506000910152565b60008151808452612f3e816020860160208601612f02565b601f01601f19169290920160200192915050565b6000610180612f62848451612ee0565b6020830151612f76602086018260ff169052565b506040830151612f8e604086018263ffffffff169052565b506060830151612fa6606086018263ffffffff169052565b506080830151612fbb608086018260070b9052565b5060a0830151612fd660a08601826001600160a01b03169052565b5060c08301518160c0860152612fee82860182612f26565b91505060e083015184820360e08601526130088282612f26565b91505061010080840151858303828701526130238382612f26565b9250505061012080840151613043828701826001600160801b0319169052565b5050610140838101516001600160801b0316908501526101609283015192909301919091525090565b60208152600061260c6020830184612f52565b60008083601f84011261309157600080fd5b5081356001600160401b038111156130a857600080fd5b6020830191508360208260051b8501011115612c5c57600080fd5b600080602083850312156130d657600080fd5b82356001600160401b038111156130ec57600080fd5b6130f88582860161307f565b90969095509350505050565b6000602080830181845280855180835260408601915060408160051b870101925083870160005b8281101561315957603f19888603018452613147858351612f52565b9450928501929085019060010161312b565b5092979650505050505050565b6020808252825182820181905260009190848201906040850190845b81811015612ea35783516001600160801b03191683529284019291840191600101613182565b600080604083850312156131bb57600080fd5b8235915060208301356131cd81612d0d565b809150509250929050565b600080600080604085870312156131ee57600080fd5b84356001600160401b038082111561320557600080fd5b6132118883890161307f565b9096509450602087013591508082111561322a57600080fd5b506132378782880161307f565b95989497509550505050565b6000806000806000806060878903121561325c57600080fd5b86356001600160401b038082111561327357600080fd5b61327f8a838b01612c1b565b9098509650602089013591508082111561329857600080fd5b6132a48a838b01612c1b565b909650945060408901359150808211156132bd57600080fd5b506132ca89828a01612c1b565b979a9699509497509295939492505050565b600181811c908216806132f057607f821691505b60208210810361331057634e487b7160e01b600052602260045260246000fd5b50919050565b601f82111561275257600081815260208120601f850160051c8101602086101561333d5750805b601f850160051c820191505b8181101561250557828155600101613349565b81516001600160401b0381111561337557613375612d7f565b6133898161338384546132dc565b84613316565b602080601f8311600181146133be57600084156133a65750858301515b600019600386901b1c1916600185901b178555612505565b600085815260208120601f198616915b828110156133ed578886015182559484019460019091019084016133ce565b508582101561340b5787850151600019600388901b60f8161c191681555b5050505050600190811b01905550565b81835281816020850137506000828201602090810191909152601f909101601f19169091010190565b60408152600061345860408301858761341b565b9050826020830152949350505050565b6020808252600c908201526b4e6f74206d756c746973696760a01b604082015260600190565b634e487b7160e01b600052603260045260246000fd5b634e487b7160e01b600052601160045260246000fd5b600782810b9082900b03677fffffffffffffff198112677fffffffffffffff8213171561122b5761122b6134a4565b6000600182016134fb576134fb6134a4565b5060010190565b6001600160801b03818116838216028082169190828114613525576135256134a4565b505092915050565b60006001600160801b038084168061355557634e487b7160e01b600052601260045260246000fd5b92169190910492915050565b6001600160801b03828116828216039080821115611903576119036134a4565b600781810b9083900b01677fffffffffffffff8113677fffffffffffffff198212171561122b5761122b6134a4565b8082018082111561122b5761122b6134a4565b6000600160ff1b82016135d8576135d86134a4565b5060000390565b8181038181111561122b5761122b6134a4565b60006020828403121561360457600080fd5b813563ffffffff8116811461260c57600080fd5b60608152600061362c60608301888a61341b565b828103602084015261363f81878961341b565b9050828103604084015261365481858761341b565b9998505050505050505050565b60006020828403121561367357600080fd5b5051919050565b600081613689576136896134a4565b506000190190565b6000602082840312156136a357600080fd5b8151801515811461260c57600080fd5b634e487b7160e01b600052603160045260246000fd5b600082516136db818460208701612f02565b9190910192915050565b60208152600061260c6020830184612f2656fea2646970667358221220e6d3c90f20dccba2690f60fd6dd951d1659cdbc0cf8c9f979ebc5a9f8b5b5eef64736f6c63430008130033",
    "linkReferences": {}
  },
  "methodIdentifiers": {
    "APP_ID()": "c187bbc1",
    "cancelLeak(bytes16,bytes32,address)": "20f4591b",
    "changeMultisig(address)": "2268a358",
    "creditNote(address)": "358188a0",
    "encodeLeak(string,string,string)": "e9adf378",
    "evaluateLeak(uint32[],bytes32[])": "dc590b01",
    "getAllLeaksId()": "d66e8411",
    "getGroupIds()": "c02b8b2c",
    "getLeak(bytes32)": "9a61416e",
    "getLeaks(bytes32[])": "bd3143e2",
    "getLeaksIDByGroupId(bytes16)": "873a9ff1",
    "getLeaksIDBySender(address)": "69a48c59",
    "grantVault()": "e065da77",
    "messageCount()": "3dbcc8d1",
    "minStakePrice()": "e3d682e3",
    "multisig()": "4783c35b",
    "newminStakePrice(uint256)": "bf431f4a",
    "setCreditNote(int256,address)": "ccdff635",
    "trustScore(address)": "534a8465",
    "withdrawERC20(address)": "f4f3b200",
    "withdrawSomeToMultisig(bytes32[])": "4505da60",
    "withdrawToMsgOwner(bytes32)": "cbdecc3c",
    "withdrawToMsgOwner(bytes32[])": "d6224f7a",
    "withdrawToMultisig(bytes32)": "62e3cee7",
    "writeLeak(bytes16,string,string,string)": "1838e95f"
  },
  "id": 34
}