{
  "abi": [
    {
      "inputs": [
        {
          "internalType": "address payable",
          "name": "_multisig",
          "type": "address"
        },
        {
          "internalType": "address",
          "name": "_grantVault",
          "type": "address"
        }
      ],
      "stateMutability": "nonpayable",
      "type": "constructor"
    },
    {
      "inputs": [
        {
          "internalType": "uint256",
          "name": "x",
          "type": "uint256"
        },
        {
          "internalType": "uint256",
          "name": "y",
          "type": "uint256"
        }
      ],
      "name": "ArraysLengthDiffers",
      "type": "error"
    },
    {
      "inputs": [
        {
          "internalType": "uint256",
          "name": "value",
          "type": "uint256"
        },
        {
          "internalType": "uint256",
          "name": "minStakePrice",
          "type": "uint256"
        }
      ],
      "name": "BelowMinimumStake",
      "type": "error"
    },
    {
      "inputs": [],
      "name": "LeaksAlreadyExist",
      "type": "error"
    },
    {
      "inputs": [
        {
          "internalType": "address",
          "name": "sender",
          "type": "address"
        }
      ],
      "name": "NotAContract",
      "type": "error"
    },
    {
      "inputs": [
        {
          "internalType": "address",
          "name": "sender",
          "type": "address"
        },
        {
          "internalType": "address",
          "name": "admin",
          "type": "address"
        }
      ],
      "name": "NotAuthorised",
      "type": "error"
    },
    {
      "inputs": [],
      "name": "TransferError",
      "type": "error"
    },
    {
      "inputs": [
        {
          "internalType": "enum Status",
          "name": "current",
          "type": "uint8"
        }
      ],
      "name": "WrongLeakStatus",
      "type": "error"
    },
    {
      "anonymous": false,
      "inputs": [
        {
          "indexed": true,
          "internalType": "uint256",
          "name": "id",
          "type": "uint256"
        },
        {
          "indexed": true,
          "internalType": "bytes32",
          "name": "groupId",
          "type": "bytes32"
        },
        {
          "indexed": false,
          "internalType": "string",
          "name": "title",
          "type": "string"
        },
        {
          "indexed": false,
          "internalType": "uint256",
          "name": "no",
          "type": "uint256"
        }
      ],
      "name": "LeakAdded",
      "type": "event"
    },
    {
      "anonymous": false,
      "inputs": [
        {
          "components": [
            {
              "internalType": "enum Status",
              "name": "status",
              "type": "uint8"
            },
            {
              "internalType": "uint8",
              "name": "minimumRank",
              "type": "uint8"
            },
            {
              "internalType": "uint32",
              "name": "criticalRatioX10",
              "type": "uint32"
            },
            {
              "internalType": "uint32",
              "name": "timestamp",
              "type": "uint32"
            },
            {
              "internalType": "int64",
              "name": "trustIndex",
              "type": "int64"
            },
            {
              "internalType": "address",
              "name": "messageOwner",
              "type": "address"
            },
            {
              "internalType": "string",
              "name": "title",
              "type": "string"
            },
            {
              "internalType": "string",
              "name": "description",
              "type": "string"
            },
            {
              "internalType": "string",
              "name": "uri",
              "type": "string"
            },
            {
              "internalType": "bytes16",
              "name": "groupId",
              "type": "bytes16"
            },
            {
              "internalType": "uint128",
              "name": "stakedAmount",
              "type": "uint128"
            },
            {
              "internalType": "bytes32",
              "name": "messageId",
              "type": "bytes32"
            }
          ],
          "indexed": false,
          "internalType": "struct Leak",
          "name": "",
          "type": "tuple"
        }
      ],
      "name": "LeakCancelled",
      "type": "event"
    },
    {
      "anonymous": false,
      "inputs": [
        {
          "indexed": false,
          "internalType": "uint256",
          "name": "oldMinimumStake",
          "type": "uint256"
        },
        {
          "indexed": false,
          "internalType": "uint256",
          "name": "newMinimumStake",
          "type": "uint256"
        }
      ],
      "name": "MinimumStakeAmountUpdated",
      "type": "event"
    },
    {
      "anonymous": false,
      "inputs": [
        {
          "indexed": false,
          "internalType": "address",
          "name": "oldMultisig",
          "type": "address"
        },
        {
          "indexed": false,
          "internalType": "address",
          "name": "newMultisig",
          "type": "address"
        }
      ],
      "name": "MultisigUpdated",
      "type": "event"
    },
    {
      "inputs": [],
      "name": "APP_ID",
      "outputs": [
        {
          "internalType": "bytes16",
          "name": "",
          "type": "bytes16"
        }
      ],
      "stateMutability": "view",
      "type": "function"
    },
    {
      "inputs": [
        {
          "internalType": "bytes16",
          "name": "_groupId",
          "type": "bytes16"
        },
        {
          "internalType": "bytes32",
          "name": "leakId",
          "type": "bytes32"
        }
      ],
      "name": "cancelLeak",
      "outputs": [],
      "stateMutability": "nonpayable",
      "type": "function"
    },
    {
      "inputs": [
        {
          "internalType": "address",
          "name": "_newMultisig",
          "type": "address"
        }
      ],
      "name": "changeMultisig",
      "outputs": [],
      "stateMutability": "nonpayable",
      "type": "function"
    },
    {
      "inputs": [
        {
          "internalType": "string",
          "name": "title",
          "type": "string"
        },
        {
          "internalType": "string",
          "name": "content",
          "type": "string"
        },
        {
          "internalType": "string",
          "name": "uri",
          "type": "string"
        }
      ],
      "name": "encodeLeak",
      "outputs": [
        {
          "internalType": "bytes32",
          "name": "",
          "type": "bytes32"
        }
      ],
      "stateMutability": "pure",
      "type": "function"
    },
    {
      "inputs": [
        {
          "internalType": "uint32[]",
          "name": "ratios",
          "type": "uint32[]"
        },
        {
          "internalType": "bytes32[]",
          "name": "messagesId",
          "type": "bytes32[]"
        }
      ],
      "name": "evaluateLeak",
      "outputs": [],
      "stateMutability": "nonpayable",
      "type": "function"
    },
    {
      "inputs": [],
      "name": "getAllLeaksId",
      "outputs": [
        {
          "internalType": "bytes32[]",
          "name": "total",
          "type": "bytes32[]"
        }
      ],
      "stateMutability": "view",
      "type": "function"
    },
    {
      "inputs": [],
      "name": "getGroupsId",
      "outputs": [
        {
          "internalType": "bytes16[]",
          "name": "groupsId",
          "type": "bytes16[]"
        }
      ],
      "stateMutability": "view",
      "type": "function"
    },
    {
      "inputs": [
        {
          "internalType": "bytes32",
          "name": "id",
          "type": "bytes32"
        }
      ],
      "name": "getLeak",
      "outputs": [
        {
          "components": [
            {
              "internalType": "enum Status",
              "name": "status",
              "type": "uint8"
            },
            {
              "internalType": "uint8",
              "name": "minimumRank",
              "type": "uint8"
            },
            {
              "internalType": "uint32",
              "name": "criticalRatioX10",
              "type": "uint32"
            },
            {
              "internalType": "uint32",
              "name": "timestamp",
              "type": "uint32"
            },
            {
              "internalType": "int64",
              "name": "trustIndex",
              "type": "int64"
            },
            {
              "internalType": "address",
              "name": "messageOwner",
              "type": "address"
            },
            {
              "internalType": "string",
              "name": "title",
              "type": "string"
            },
            {
              "internalType": "string",
              "name": "description",
              "type": "string"
            },
            {
              "internalType": "string",
              "name": "uri",
              "type": "string"
            },
            {
              "internalType": "bytes16",
              "name": "groupId",
              "type": "bytes16"
            },
            {
              "internalType": "uint128",
              "name": "stakedAmount",
              "type": "uint128"
            },
            {
              "internalType": "bytes32",
              "name": "messageId",
              "type": "bytes32"
            }
          ],
          "internalType": "struct Leak",
          "name": "",
          "type": "tuple"
        }
      ],
      "stateMutability": "view",
      "type": "function"
    },
    {
      "inputs": [
        {
          "internalType": "bytes32[]",
          "name": "ids",
          "type": "bytes32[]"
        }
      ],
      "name": "getLeaks",
      "outputs": [
        {
          "components": [
            {
              "internalType": "enum Status",
              "name": "status",
              "type": "uint8"
            },
            {
              "internalType": "uint8",
              "name": "minimumRank",
              "type": "uint8"
            },
            {
              "internalType": "uint32",
              "name": "criticalRatioX10",
              "type": "uint32"
            },
            {
              "internalType": "uint32",
              "name": "timestamp",
              "type": "uint32"
            },
            {
              "internalType": "int64",
              "name": "trustIndex",
              "type": "int64"
            },
            {
              "internalType": "address",
              "name": "messageOwner",
              "type": "address"
            },
            {
              "internalType": "string",
              "name": "title",
              "type": "string"
            },
            {
              "internalType": "string",
              "name": "description",
              "type": "string"
            },
            {
              "internalType": "string",
              "name": "uri",
              "type": "string"
            },
            {
              "internalType": "bytes16",
              "name": "groupId",
              "type": "bytes16"
            },
            {
              "internalType": "uint128",
              "name": "stakedAmount",
              "type": "uint128"
            },
            {
              "internalType": "bytes32",
              "name": "messageId",
              "type": "bytes32"
            }
          ],
          "internalType": "struct Leak[]",
          "name": "",
          "type": "tuple[]"
        }
      ],
      "stateMutability": "view",
      "type": "function"
    },
    {
      "inputs": [
        {
          "internalType": "bytes16",
          "name": "_groupId",
          "type": "bytes16"
        }
      ],
      "name": "getLeaksIDByGroupId",
      "outputs": [
        {
          "internalType": "bytes32[]",
          "name": "",
          "type": "bytes32[]"
        }
      ],
      "stateMutability": "view",
      "type": "function"
    },
    {
      "inputs": [
        {
          "internalType": "address",
          "name": "sender",
          "type": "address"
        }
      ],
      "name": "getLeaksIDBySender",
      "outputs": [
        {
          "internalType": "bytes32[]",
          "name": "",
          "type": "bytes32[]"
        }
      ],
      "stateMutability": "view",
      "type": "function"
    },
    {
      "inputs": [],
      "name": "grantVault",
      "outputs": [
        {
          "internalType": "contract BlockLeaksVault",
          "name": "",
          "type": "address"
        }
      ],
      "stateMutability": "view",
      "type": "function"
    },
    {
      "inputs": [],
      "name": "leaksAmount",
      "outputs": [
        {
          "internalType": "uint256",
          "name": "",
          "type": "uint256"
        }
      ],
      "stateMutability": "view",
      "type": "function"
    },
    {
      "inputs": [],
      "name": "minStakePrice",
      "outputs": [
        {
          "internalType": "uint256",
          "name": "",
          "type": "uint256"
        }
      ],
      "stateMutability": "view",
      "type": "function"
    },
    {
      "inputs": [],
      "name": "multisig",
      "outputs": [
        {
          "internalType": "address",
          "name": "",
          "type": "address"
        }
      ],
      "stateMutability": "view",
      "type": "function"
    },
    {
      "inputs": [
        {
          "internalType": "uint256",
          "name": "_newStake",
          "type": "uint256"
        }
      ],
      "name": "setMinimumStakeAmount",
      "outputs": [],
      "stateMutability": "nonpayable",
      "type": "function"
    },
    {
      "inputs": [
        {
          "internalType": "address",
          "name": "",
          "type": "address"
        }
      ],
      "name": "trustScore",
      "outputs": [
        {
          "internalType": "int64",
          "name": "",
          "type": "int64"
        }
      ],
      "stateMutability": "view",
      "type": "function"
    },
    {
      "inputs": [
        {
          "internalType": "bytes32",
          "name": "_msgIds",
          "type": "bytes32"
        },
        {
          "internalType": "bool",
          "name": "isLeakValid",
          "type": "bool"
        }
      ],
      "name": "verifyLeak",
      "outputs": [],
      "stateMutability": "nonpayable",
      "type": "function"
    },
    {
      "inputs": [
        {
          "internalType": "bytes32[]",
          "name": "_msgIds",
          "type": "bytes32[]"
        },
        {
          "internalType": "bool[]",
          "name": "isLeakValid",
          "type": "bool[]"
        }
      ],
      "name": "verifyLeaks",
      "outputs": [],
      "stateMutability": "nonpayable",
      "type": "function"
    },
    {
      "inputs": [
        {
          "internalType": "contract IERC20",
          "name": "token",
          "type": "address"
        }
      ],
      "name": "withdrawERC20",
      "outputs": [],
      "stateMutability": "nonpayable",
      "type": "function"
    },
    {
      "inputs": [
        {
          "internalType": "bytes16",
          "name": "_groupId",
          "type": "bytes16"
        },
        {
          "internalType": "uint8",
          "name": "_value",
          "type": "uint8"
        },
        {
          "internalType": "string",
          "name": "_title",
          "type": "string"
        },
        {
          "internalType": "string",
          "name": "_description",
          "type": "string"
        },
        {
          "internalType": "string",
          "name": "_uri",
          "type": "string"
        }
      ],
      "name": "writeLeak",
      "outputs": [
        {
          "internalType": "bytes32",
          "name": "id",
          "type": "bytes32"
        }
      ],
      "stateMutability": "payable",
      "type": "function"
    },
    {
      "stateMutability": "payable",
      "type": "receive"
    }
  ],
  "bytecode": {
    "object": "0x60806040523480156200001157600080fd5b506040516200357b3803806200357b833981016040819052620000349162000084565b6001600055600380546001600160a01b039384166001600160a01b03199182161790915560068054929093169116179055620000c3565b6001600160a01b03811681146200008157600080fd5b50565b600080604083850312156200009857600080fd5b8251620000a5816200006b565b6020840151909250620000b8816200006b565b809150509250929050565b6134a880620000d36000396000f3fe60806040526004361061012e5760003560e01c80639a61416e116100ab578063dc590b011161006f578063dc590b01146103a6578063e065da77146103c6578063e3d682e3146103e6578063e9adf378146103fc578063f3a9efa01461041c578063f4f3b2001461043c57600080fd5b80639a61416e146102e4578063a9c5437614610311578063bd3143e214610324578063c187bbc114610351578063d66e84111461039157600080fd5b8063605e590e116100f2578063605e590e1461023557806369a48c59146102575780637c8f9ec214610284578063873a9ff1146102a45780638b091b5a146102c457600080fd5b80630d29fcd41461015157806315b3ac51146101715780632268a3581461019a5780634783c35b146101ba578063534a8465146101f257600080fd5b3661014c5760035461014a9034906001600160a01b031661045c565b005b600080fd5b34801561015d57600080fd5b5061014a61016c366004612958565b6104d5565b34801561017d57600080fd5b5061018760045481565b6040519081526020015b60405180910390f35b3480156101a657600080fd5b5061014a6101b5366004612986565b61055b565b3480156101c657600080fd5b506003546101da906001600160a01b031681565b6040516001600160a01b039091168152602001610191565b3480156101fe57600080fd5b5061022261020d366004612986565b60086020526000908152604090205460070b81565b60405160079190910b8152602001610191565b34801561024157600080fd5b5061024a610636565b60405161019191906129a3565b34801561026357600080fd5b50610277610272366004612986565b6106eb565b60405161019191906129f1565b34801561029057600080fd5b5061014a61029f366004612a8a565b610715565b3480156102b057600080fd5b506102776102bf366004612b89565b6107e0565b3480156102d057600080fd5b5061014a6102df366004612bb2565b610805565b3480156102f057600080fd5b506103046102ff366004612958565b61085d565b6040516101919190612d84565b61018761031f366004612dd8565b610af4565b34801561033057600080fd5b5061034461033f366004612e9a565b610e72565b6040516101919190612edb565b34801561035d57600080fd5b506103786f3c0e4da0cf926dfbf5e31aa66f77199b60801b81565b6040516001600160801b03199091168152602001610191565b34801561039d57600080fd5b506102776111b0565b3480156103b257600080fd5b5061014a6103c1366004612f3d565b6112dc565b3480156103d257600080fd5b506006546101da906001600160a01b031681565b3480156103f257600080fd5b5061018760055481565b34801561040857600080fd5b50610187610417366004612fa8565b611815565b34801561042857600080fd5b5061014a610437366004613041565b611854565b34801561044857600080fd5b5061014a610457366004612986565b611bac565b6000816001600160a01b03168360405160006040518083038185875af1925050503d80600081146104a9576040519150601f19603f3d011682016040523d82523d6000602084013e6104ae565b606091505b50509050806104d0576040516313ff771f60e21b815260040160405180910390fd5b505050565b6003546001600160a01b0316331461051a576003546040516377e957df60e11b81526105119133916001600160a01b039091169060040161306b565b60405180910390fd5b60055460408051918252602082018390527fe3117c3cc31e2d5d67afc8b5c366cd87a436cd3aaf93a169500733f4ebfb96ad910160405180910390a1600555565b6003546001600160a01b03163314610597576003546040516377e957df60e11b81526105119133916001600160a01b039091169060040161306b565b806001600160a01b03163b6000036105cd576040516322a2d07b60e21b81526001600160a01b0382166004820152602401610511565b6003546040517f5f90d712a0af15f5a6f562235036d7264213de74a0dc9698581daa47c52b79d39161060c916001600160a01b0390911690849061306b565b60405180910390a1600380546001600160a01b0319166001600160a01b0392909216919091179055565b606060006106446001611c6a565b8051909150806001600160401b0381111561066157610661612a29565b60405190808252806020026020018201604052801561068a578160200160208202803683370190505b50925060005b818110156106e5578281815181106106aa576106aa613085565b60200260200101518482815181106106c4576106c4613085565b6001600160801b031990921660209283029190910190910152600101610690565b50505090565b6001600160a01b0381166000908152600a6020526040902060609061070f90611c6a565b92915050565b6003546001600160a01b03163314610751576003546040516377e957df60e11b81526105119133916001600160a01b039091169060040161306b565b60005b83518110156107da5782828281811061076f5761076f613085565b9050602002016020810190610784919061309b565b156107b0576107ab84828151811061079e5761079e613085565b6020026020010151611c7e565b6107d2565b6107d28482815181106107c5576107c5613085565b602002602001015161207b565b600101610754565b50505050565b6001600160801b03198116600090815260096020526040902060609061070f90611c6a565b6003546001600160a01b03163314610841576003546040516377e957df60e11b81526105119133916001600160a01b039091169060040161306b565b80156108545761085082611c7e565b5050565b6108508261207b565b6108656128f3565b60008281526007602052604090819020815161018081019092528054829060ff16600381111561089757610897612be2565b60038111156108a8576108a8612be2565b8152815460ff610100820416602083015263ffffffff62010000820481166040840152600160301b8204166060830152600160501b900460070b608082015260018201546001600160a01b031660a082015260028201805460c09092019161090f906130b8565b80601f016020809104026020016040519081016040528092919081815260200182805461093b906130b8565b80156109885780601f1061095d57610100808354040283529160200191610988565b820191906000526020600020905b81548152906001019060200180831161096b57829003601f168201915b505050505081526020016003820180546109a1906130b8565b80601f01602080910402602001604051908101604052809291908181526020018280546109cd906130b8565b8015610a1a5780601f106109ef57610100808354040283529160200191610a1a565b820191906000526020600020905b8154815290600101906020018083116109fd57829003601f168201915b50505050508152602001600482018054610a33906130b8565b80601f0160208091040260200160405190810160405280929190818152602001828054610a5f906130b8565b8015610aac5780601f10610a8157610100808354040283529160200191610aac565b820191906000526020600020905b815481529060010190602001808311610a8f57829003601f168201915b505050918352505060058201546001600160801b0319608082901b166020830152600160801b90046001600160801b0316604082015260069091015460609091015292915050565b6000346005541115610b255760055460405162d46a8160e31b81523460048201526024810191909152604401610511565b600454610b36888888888888611815565b60008181526007602052604090206006015490925015610b695760405163c24bf5bf60e01b815260040160405180910390fd5b6040805161018081018252600080825260ff8c16602080840191909152600a8385015263ffffffff4216606084015233808352600882528483205460070b608085015260a08401528351601f8c018290048202810182019094528a8452909260c08301918c908c9081908401838280828437600092019190915250505090825250604080516020601f8b0181900481028201810190925289815291810191908a908a9081908401838280828437600092019190915250505090825250604080516020601f89018190048102820181019092528781529181019190889088908190840183828082843760009201829052509385525050506001600160801b03198e16602080840191909152346001600160801b031660408085019190915260609093018790528682526007905220815181549293508392829060ff19166001836003811115610cb957610cb9612be2565b02179055506020820151815460408401516060850151608086015165ffffffffff001990931661010060ff9095169490940265ffffffff00001916939093176201000063ffffffff928316021771ffffffffffffffffffffffff0000000000001916600160301b919093160267ffffffffffffffff60501b191691909117600160501b6001600160401b039092169190910217815560a08201516001820180546001600160a01b0319166001600160a01b0390921691909117905560c08201516002820190610d889082613138565b5060e08201516003820190610d9d9082613138565b506101008201516004820190610db39082613138565b506101208201516101408301516001600160801b0316600160801b0260809190911c17600582015561016090910151600690910155610dfd60016001600160801b03198d166123a0565b610e0a57610e0a8b6123b8565b610e15838c336123cd565b8a6001600160801b0319168263ffffffff167f2e286ad17a8421d935466c4b1110d01fd612e4bdb7b7e887d9c66147ce354e148b8b600454604051610e5c93929190613220565b60405180910390a3505098975050505050505050565b6060816000816001600160401b03811115610e8f57610e8f612a29565b604051908082528060200260200182016040528015610ec857816020015b610eb56128f3565b815260200190600190039081610ead5790505b50905060005b828110156111a75760076000878784818110610eec57610eec613085565b602090810292909201358352508101919091526040908101600020815161018081019092528054829060ff166003811115610f2957610f29612be2565b6003811115610f3a57610f3a612be2565b8152815460ff610100820416602083015263ffffffff62010000820481166040840152600160301b8204166060830152600160501b900460070b608082015260018201546001600160a01b031660a082015260028201805460c090920191610fa1906130b8565b80601f0160208091040260200160405190810160405280929190818152602001828054610fcd906130b8565b801561101a5780601f10610fef5761010080835404028352916020019161101a565b820191906000526020600020905b815481529060010190602001808311610ffd57829003601f168201915b50505050508152602001600382018054611033906130b8565b80601f016020809104026020016040519081016040528092919081815260200182805461105f906130b8565b80156110ac5780601f10611081576101008083540402835291602001916110ac565b820191906000526020600020905b81548152906001019060200180831161108f57829003601f168201915b505050505081526020016004820180546110c5906130b8565b80601f01602080910402602001604051908101604052809291908181526020018280546110f1906130b8565b801561113e5780601f106111135761010080835404028352916020019161113e565b820191906000526020600020905b81548152906001019060200180831161112157829003601f168201915b505050918352505060058201546001600160801b0319608082901b166020830152600160801b90046001600160801b03166040820152600690910154606090910152825183908390811061119457611194613085565b6020908102919091010152600101610ece565b50949350505050565b60606004546001600160401b038111156111cc576111cc612a29565b6040519080825280602002602001820160405280156111f5578160200160208202803683370190505b50905060006112046001611c6a565b80519091506000805b828110156112d557600061125f6009600087858151811061123057611230613085565b60200260200101516001600160801b0319166001600160801b0319168152602001908152602001600020611c6a565b805190915060005b818110156112c25782818151811061128157611281613085565b60200260200101518886806112959061325a565b9750815181106112a7576112a7613085565b60209081029190910101526112bb8161325a565b9050611267565b506112cc8361325a565b9250505061120d565b5050505090565b6003546001600160a01b03163314611318576003546040516377e957df60e11b81526105119133916001600160a01b039091169060040161306b565b8281811461134357604051636d97371560e01b81526004810183905260248101829052604401610511565b60005b8181101561180d5760006007600086868581811061136657611366613085565b602090810292909201358352508101919091526040908101600020815161018081019092528054829060ff1660038111156113a3576113a3612be2565b60038111156113b4576113b4612be2565b8152815460ff610100820416602083015263ffffffff62010000820481166040840152600160301b8204166060830152600160501b900460070b608082015260018201546001600160a01b031660a082015260028201805460c09092019161141b906130b8565b80601f0160208091040260200160405190810160405280929190818152602001828054611447906130b8565b80156114945780601f1061146957610100808354040283529160200191611494565b820191906000526020600020905b81548152906001019060200180831161147757829003601f168201915b505050505081526020016003820180546114ad906130b8565b80601f01602080910402602001604051908101604052809291908181526020018280546114d9906130b8565b80156115265780601f106114fb57610100808354040283529160200191611526565b820191906000526020600020905b81548152906001019060200180831161150957829003601f168201915b5050505050815260200160048201805461153f906130b8565b80601f016020809104026020016040519081016040528092919081815260200182805461156b906130b8565b80156115b85780601f1061158d576101008083540402835291602001916115b8565b820191906000526020600020905b81548152906001019060200180831161159b57829003601f168201915b505050918352505060058201546001600160801b0319608082901b166020830152600160801b90046001600160801b031660408201526006909101546060909101528051909150600090600381111561161357611613612be2565b9050600181111561164a5780600381111561163057611630612be2565b604051632d2c95ef60e01b81526004016105119190613273565b8061165457600182525b87878481811061166657611666613085565b905060200201602081019061167b9190613281565b63ffffffff166040830152816007600088888781811061169d5761169d613085565b6020908102929092013583525081019190915260400160002081518154829060ff191660018360038111156116d4576116d4612be2565b02179055506020820151815460408401516060850151608086015165ffffffffff001990931661010060ff9095169490940265ffffffff00001916939093176201000063ffffffff928316021771ffffffffffffffffffffffff0000000000001916600160301b919093160267ffffffffffffffff60501b191691909117600160501b6001600160401b039092169190910217815560a08201516001820180546001600160a01b0319166001600160a01b0390921691909117905560c082015160028201906117a39082613138565b5060e082015160038201906117b89082613138565b5061010082015160048201906117ce9082613138565b506101208201516101408301516001600160801b0316600160801b0260809190911c176005820155610160909101516006909101555050600101611346565b505050505050565b6000868686868686604051602001611832969594939291906132a7565b6040516020818303038152906040528051906020012090509695505050505050565b600081815260076020526040808220815161018081019092528054829060ff16600381111561188557611885612be2565b600381111561189657611896612be2565b8152815460ff610100820416602083015263ffffffff62010000820481166040840152600160301b8204166060830152600160501b900460070b608082015260018201546001600160a01b031660a082015260028201805460c0909201916118fd906130b8565b80601f0160208091040260200160405190810160405280929190818152602001828054611929906130b8565b80156119765780601f1061194b57610100808354040283529160200191611976565b820191906000526020600020905b81548152906001019060200180831161195957829003601f168201915b5050505050815260200160038201805461198f906130b8565b80601f01602080910402602001604051908101604052809291908181526020018280546119bb906130b8565b8015611a085780601f106119dd57610100808354040283529160200191611a08565b820191906000526020600020905b8154815290600101906020018083116119eb57829003601f168201915b50505050508152602001600482018054611a21906130b8565b80601f0160208091040260200160405190810160405280929190818152602001828054611a4d906130b8565b8015611a9a5780601f10611a6f57610100808354040283529160200191611a9a565b820191906000526020600020905b815481529060010190602001808311611a7d57829003601f168201915b505050918352505060058201546001600160801b0319608082901b166020830152600160801b90046001600160801b031660408201526006909101546060909101529050600181516003811115611af357611af3612be2565b1115611b15578051604051632d2c95ef60e01b81526105119190600401613273565b60a08101516001600160a01b03163314611b495760a08101516040516377e957df60e11b815261051191339160040161306b565b611b658161014001516001600160801b03168260a0015161045c565b611b7082843361242c565b7f4e91c7abadaf0d82a5c3b682382bf8244abc8efe4b664958594690437a9122ee81604051611b9f9190612d84565b60405180910390a1505050565b6003546001600160a01b03163314611be8576003546040516377e957df60e11b81526105119133916001600160a01b039091169060040161306b565b6040516370a0823160e01b8152306004820152611c679033906001600160a01b038416906370a0823190602401602060405180830381865afa158015611c32573d6000803e3d6000fd5b505050506040513d601f19601f82011682018060405250810190611c5691906132f0565b6001600160a01b0384169190612482565b50565b60606000611c77836124d4565b9392505050565b600081815260076020526040808220815161018081019092528054829060ff166003811115611caf57611caf612be2565b6003811115611cc057611cc0612be2565b8152815460ff610100820416602083015263ffffffff62010000820481166040840152600160301b8204166060830152600160501b900460070b608082015260018201546001600160a01b031660a082015260028201805460c090920191611d27906130b8565b80601f0160208091040260200160405190810160405280929190818152602001828054611d53906130b8565b8015611da05780601f10611d7557610100808354040283529160200191611da0565b820191906000526020600020905b815481529060010190602001808311611d8357829003601f168201915b50505050508152602001600382018054611db9906130b8565b80601f0160208091040260200160405190810160405280929190818152602001828054611de5906130b8565b8015611e325780601f10611e0757610100808354040283529160200191611e32565b820191906000526020600020905b815481529060010190602001808311611e1557829003601f168201915b50505050508152602001600482018054611e4b906130b8565b80601f0160208091040260200160405190810160405280929190818152602001828054611e77906130b8565b8015611ec45780601f10611e9957610100808354040283529160200191611ec4565b820191906000526020600020905b815481529060010190602001808311611ea757829003601f168201915b505050918352505060058201546001600160801b0319608082901b166020830152600160801b90046001600160801b031660408201526006909101546060909101529050600181516003811115611f1d57611f1d612be2565b14611f3e578051604051632d2c95ef60e01b81526105119190600401613273565b6002815260065460a082015161014083015160408401516001600160a01b03909316926340c10f19929190600a90611f7d90839063ffffffff16613309565b611f879190613334565b611f919190613368565b6040516001600160e01b031960e085901b1681526001600160a01b0390921660048301526001600160801b03166024820152604401600060405180830381600087803b158015611fe057600080fd5b505af1158015611ff4573d6000803e3d6000fd5b505050506120148161014001516001600160801b03168260a0015161045c565b60408082015160a08301516001600160a01b031660009081526008602052918220805463ffffffff90921692909161205090849060070b613388565b92506101000a8154816001600160401b03021916908360070b6001600160401b031602179055505050565b600081815260076020526040808220815161018081019092528054829060ff1660038111156120ac576120ac612be2565b60038111156120bd576120bd612be2565b8152815460ff610100820416602083015263ffffffff62010000820481166040840152600160301b8204166060830152600160501b900460070b608082015260018201546001600160a01b031660a082015260028201805460c090920191612124906130b8565b80601f0160208091040260200160405190810160405280929190818152602001828054612150906130b8565b801561219d5780601f106121725761010080835404028352916020019161219d565b820191906000526020600020905b81548152906001019060200180831161218057829003601f168201915b505050505081526020016003820180546121b6906130b8565b80601f01602080910402602001604051908101604052809291908181526020018280546121e2906130b8565b801561222f5780601f106122045761010080835404028352916020019161222f565b820191906000526020600020905b81548152906001019060200180831161221257829003601f168201915b50505050508152602001600482018054612248906130b8565b80601f0160208091040260200160405190810160405280929190818152602001828054612274906130b8565b80156122c15780601f10612296576101008083540402835291602001916122c1565b820191906000526020600020905b8154815290600101906020018083116122a457829003601f168201915b505050918352505060058201546001600160801b0319608082901b166020830152600160801b90046001600160801b03166040820152600690910154606090910152905060018151600381111561231a5761231a612be2565b1461233b578051604051632d2c95ef60e01b81526105119190600401613273565b60038082526101408201519054612364916001600160801b0316906001600160a01b031661045c565b60408082015160a08301516001600160a01b031660009081526008602052918220805463ffffffff90921692909161205090849060070b6133b7565b60008181526001830160205260408120541515611c77565b61085060016001600160801b03198316612530565b6001600160801b0319821660009081526009602052604090206123f09084612530565b506001600160a01b0381166000908152600a602052604090206124139084612530565b506004600081546124239061325a565b90915550505050565b6001600160801b03198216600090815260096020526040902061244f908461253c565b506001600160a01b0381166000908152600a60205260409020612472908461253c565b50600460008154612423906133e6565b604080516001600160a01b038416602482015260448082018490528251808303909101815260649091019091526020810180516001600160e01b031663a9059cbb60e01b1790526104d0908490612548565b60608160000180548060200260200160405190810160405280929190818152602001828054801561252457602002820191906000526020600020905b815481526020019060010190808311612510575b50505050509050919050565b6000611c77838361261a565b6000611c778383612669565b600061259d826040518060400160405280602081526020017f5361666545524332303a206c6f772d6c6576656c2063616c6c206661696c6564815250856001600160a01b03166127639092919063ffffffff16565b8051909150156104d057808060200190518101906125bb91906133fd565b6104d05760405162461bcd60e51b815260206004820152602a60248201527f5361666545524332303a204552433230206f7065726174696f6e20646964206e6044820152691bdd081cdd58d8d9595960b21b6064820152608401610511565b60008181526001830160205260408120546126615750815460018181018455600084815260208082209093018490558454848252828601909352604090209190915561070f565b50600061070f565b6000818152600183016020526040812054801561275257600061268d60018361341a565b85549091506000906126a19060019061341a565b90508181146127065760008660000182815481106126c1576126c1613085565b90600052602060002001549050808760000184815481106126e4576126e4613085565b6000918252602080832090910192909255918252600188019052604090208390555b85548690806127175761271761342d565b60019003818190600052602060002001600090559055856001016000868152602001908152602001600020600090556001935050505061070f565b600091505061070f565b5092915050565b6060612772848460008561277a565b949350505050565b6060824710156127db5760405162461bcd60e51b815260206004820152602660248201527f416464726573733a20696e73756666696369656e742062616c616e636520666f6044820152651c8818d85b1b60d21b6064820152608401610511565b600080866001600160a01b031685876040516127f79190613443565b60006040518083038185875af1925050503d8060008114612834576040519150601f19603f3d011682016040523d82523d6000602084013e612839565b606091505b509150915061284a87838387612855565b979650505050505050565b606083156128c45782516000036128bd576001600160a01b0385163b6128bd5760405162461bcd60e51b815260206004820152601d60248201527f416464726573733a2063616c6c20746f206e6f6e2d636f6e74726163740000006044820152606401610511565b5081612772565b61277283838151156128d95781518083602001fd5b8060405162461bcd60e51b8152600401610511919061345f565b60408051610180810190915280600081526000602082018190526040820181905260608083018290526080830182905260a0830182905260c0830181905260e08301819052610100830152610120820181905261014082018190526101609091015290565b60006020828403121561296a57600080fd5b5035919050565b6001600160a01b0381168114611c6757600080fd5b60006020828403121561299857600080fd5b8135611c7781612971565b6020808252825182820181905260009190848201906040850190845b818110156129e55783516001600160801b031916835292840192918401916001016129bf565b50909695505050505050565b6020808252825182820181905260009190848201906040850190845b818110156129e557835183529284019291840191600101612a0d565b634e487b7160e01b600052604160045260246000fd5b60008083601f840112612a5157600080fd5b5081356001600160401b03811115612a6857600080fd5b6020830191508360208260051b8501011115612a8357600080fd5b9250929050565b600080600060408486031215612a9f57600080fd5b83356001600160401b0380821115612ab657600080fd5b818601915086601f830112612aca57600080fd5b8135602082821115612ade57612ade612a29565b8160051b604051601f19603f83011681018181108682111715612b0357612b03612a29565b6040529283528481018201928281018b851115612b1f57600080fd5b958301955b84871015612b3b5786358152958301958301612b24565b5097505087013592505080821115612b5257600080fd5b50612b5f86828701612a3f565b9497909650939450505050565b80356001600160801b031981168114612b8457600080fd5b919050565b600060208284031215612b9b57600080fd5b611c7782612b6c565b8015158114611c6757600080fd5b60008060408385031215612bc557600080fd5b823591506020830135612bd781612ba4565b809150509250929050565b634e487b7160e01b600052602160045260246000fd5b60048110612c1657634e487b7160e01b600052602160045260246000fd5b9052565b60005b83811015612c35578181015183820152602001612c1d565b50506000910152565b60008151808452612c56816020860160208601612c1a565b601f01601f19169290920160200192915050565b6000610180612c7a848451612bf8565b6020830151612c8e602086018260ff169052565b506040830151612ca6604086018263ffffffff169052565b506060830151612cbe606086018263ffffffff169052565b506080830151612cd3608086018260070b9052565b5060a0830151612cee60a08601826001600160a01b03169052565b5060c08301518160c0860152612d0682860182612c3e565b91505060e083015184820360e0860152612d208282612c3e565b9150506101008084015185830382870152612d3b8382612c3e565b9250505061012080840151612d5b828701826001600160801b0319169052565b5050610140838101516001600160801b0316908501526101609283015192909301919091525090565b602081526000611c776020830184612c6a565b60008083601f840112612da957600080fd5b5081356001600160401b03811115612dc057600080fd5b602083019150836020828501011115612a8357600080fd5b60008060008060008060008060a0898b031215612df457600080fd5b612dfd89612b6c565b9750602089013560ff81168114612e1357600080fd5b965060408901356001600160401b0380821115612e2f57600080fd5b612e3b8c838d01612d97565b909850965060608b0135915080821115612e5457600080fd5b612e608c838d01612d97565b909650945060808b0135915080821115612e7957600080fd5b50612e868b828c01612d97565b999c989b5096995094979396929594505050565b60008060208385031215612ead57600080fd5b82356001600160401b03811115612ec357600080fd5b612ecf85828601612a3f565b90969095509350505050565b6000602080830181845280855180835260408601915060408160051b870101925083870160005b82811015612f3057603f19888603018452612f1e858351612c6a565b94509285019290850190600101612f02565b5092979650505050505050565b60008060008060408587031215612f5357600080fd5b84356001600160401b0380821115612f6a57600080fd5b612f7688838901612a3f565b90965094506020870135915080821115612f8f57600080fd5b50612f9c87828801612a3f565b95989497509550505050565b60008060008060008060608789031215612fc157600080fd5b86356001600160401b0380821115612fd857600080fd5b612fe48a838b01612d97565b90985096506020890135915080821115612ffd57600080fd5b6130098a838b01612d97565b9096509450604089013591508082111561302257600080fd5b5061302f89828a01612d97565b979a9699509497509295939492505050565b6000806040838503121561305457600080fd5b61305d83612b6c565b946020939093013593505050565b6001600160a01b0392831681529116602082015260400190565b634e487b7160e01b600052603260045260246000fd5b6000602082840312156130ad57600080fd5b8135611c7781612ba4565b600181811c908216806130cc57607f821691505b6020821081036130ec57634e487b7160e01b600052602260045260246000fd5b50919050565b601f8211156104d057600081815260208120601f850160051c810160208610156131195750805b601f850160051c820191505b8181101561180d57828155600101613125565b81516001600160401b0381111561315157613151612a29565b6131658161315f84546130b8565b846130f2565b602080601f83116001811461319a57600084156131825750858301515b600019600386901b1c1916600185901b17855561180d565b600085815260208120601f198616915b828110156131c9578886015182559484019460019091019084016131aa565b50858210156131e75787850151600019600388901b60f8161c191681555b5050505050600190811b01905550565b81835281816020850137506000828201602090810191909152601f909101601f19169091010190565b6040815260006132346040830185876131f7565b9050826020830152949350505050565b634e487b7160e01b600052601160045260246000fd5b60006001820161326c5761326c613244565b5060010190565b6020810161070f8284612bf8565b60006020828403121561329357600080fd5b813563ffffffff81168114611c7757600080fd5b6060815260006132bb60608301888a6131f7565b82810360208401526132ce8187896131f7565b905082810360408401526132e38185876131f7565b9998505050505050505050565b60006020828403121561330257600080fd5b5051919050565b6001600160801b0381811683821602808216919082811461332c5761332c613244565b505092915050565b60006001600160801b038084168061335c57634e487b7160e01b600052601260045260246000fd5b92169190910492915050565b6001600160801b0382811682821603908082111561275c5761275c613244565b600781810b9083900b01677fffffffffffffff8113677fffffffffffffff198212171561070f5761070f613244565b600782810b9082900b03677fffffffffffffff198112677fffffffffffffff8213171561070f5761070f613244565b6000816133f5576133f5613244565b506000190190565b60006020828403121561340f57600080fd5b8151611c7781612ba4565b8181038181111561070f5761070f613244565b634e487b7160e01b600052603160045260246000fd5b60008251613455818460208701612c1a565b9190910192915050565b602081526000611c776020830184612c3e56fea26469706673582212208ccce16cbd0a60e606cd6d1fbd6462be81bab74bf37627835096326d02b0006364736f6c63430008130033",
    "linkReferences": {}
  },
  "methodIdentifiers": {
    "APP_ID()": "c187bbc1",
    "cancelLeak(bytes16,bytes32)": "f3a9efa0",
    "changeMultisig(address)": "2268a358",
    "encodeLeak(string,string,string)": "e9adf378",
    "evaluateLeak(uint32[],bytes32[])": "dc590b01",
    "getAllLeaksId()": "d66e8411",
    "getGroupsId()": "605e590e",
    "getLeak(bytes32)": "9a61416e",
    "getLeaks(bytes32[])": "bd3143e2",
    "getLeaksIDByGroupId(bytes16)": "873a9ff1",
    "getLeaksIDBySender(address)": "69a48c59",
    "grantVault()": "e065da77",
    "leaksAmount()": "15b3ac51",
    "minStakePrice()": "e3d682e3",
    "multisig()": "4783c35b",
    "setMinimumStakeAmount(uint256)": "0d29fcd4",
    "trustScore(address)": "534a8465",
    "verifyLeak(bytes32,bool)": "8b091b5a",
    "verifyLeaks(bytes32[],bool[])": "7c8f9ec2",
    "withdrawERC20(address)": "f4f3b200",
    "writeLeak(bytes16,uint8,string,string,string)": "a9c54376"
  },
  "id": 21
}