{
  "abi": [
    {
      "inputs": [
        {
          "internalType": "address payable",
          "name": "multisig_",
          "type": "address"
        },
        {
          "internalType": "address",
          "name": "blockLeaksContract_",
          "type": "address"
        }
      ],
      "stateMutability": "nonpayable",
      "type": "constructor"
    },
    {
      "anonymous": false,
      "inputs": [
        {
          "indexed": true,
          "internalType": "address",
          "name": "owner",
          "type": "address"
        },
        {
          "indexed": true,
          "internalType": "address",
          "name": "spender",
          "type": "address"
        },
        {
          "indexed": false,
          "internalType": "uint256",
          "name": "value",
          "type": "uint256"
        }
      ],
      "name": "Approval",
      "type": "event"
    },
    {
      "anonymous": false,
      "inputs": [
        {
          "indexed": true,
          "internalType": "address",
          "name": "from",
          "type": "address"
        },
        {
          "indexed": true,
          "internalType": "address",
          "name": "to",
          "type": "address"
        },
        {
          "indexed": false,
          "internalType": "uint256",
          "name": "value",
          "type": "uint256"
        }
      ],
      "name": "Transfer",
      "type": "event"
    },
    {
      "inputs": [
        {
          "internalType": "address",
          "name": "owner",
          "type": "address"
        },
        {
          "internalType": "address",
          "name": "spender",
          "type": "address"
        }
      ],
      "name": "allowance",
      "outputs": [
        {
          "internalType": "uint256",
          "name": "",
          "type": "uint256"
        }
      ],
      "stateMutability": "view",
      "type": "function"
    },
    {
      "inputs": [
        {
          "internalType": "address",
          "name": "spender",
          "type": "address"
        },
        {
          "internalType": "uint256",
          "name": "amount",
          "type": "uint256"
        }
      ],
      "name": "approve",
      "outputs": [
        {
          "internalType": "bool",
          "name": "",
          "type": "bool"
        }
      ],
      "stateMutability": "nonpayable",
      "type": "function"
    },
    {
      "inputs": [],
      "name": "backingDifference",
      "outputs": [
        {
          "internalType": "uint256",
          "name": "",
          "type": "uint256"
        }
      ],
      "stateMutability": "view",
      "type": "function"
    },
    {
      "inputs": [
        {
          "internalType": "address",
          "name": "account",
          "type": "address"
        }
      ],
      "name": "balanceOf",
      "outputs": [
        {
          "internalType": "uint256",
          "name": "",
          "type": "uint256"
        }
      ],
      "stateMutability": "view",
      "type": "function"
    },
    {
      "inputs": [],
      "name": "blockLeaksContract",
      "outputs": [
        {
          "internalType": "address",
          "name": "",
          "type": "address"
        }
      ],
      "stateMutability": "view",
      "type": "function"
    },
    {
      "inputs": [
        {
          "internalType": "uint256",
          "name": "amount",
          "type": "uint256"
        }
      ],
      "name": "burn",
      "outputs": [],
      "stateMutability": "nonpayable",
      "type": "function"
    },
    {
      "inputs": [
        {
          "internalType": "address",
          "name": "account",
          "type": "address"
        },
        {
          "internalType": "uint256",
          "name": "amount",
          "type": "uint256"
        }
      ],
      "name": "burnFrom",
      "outputs": [],
      "stateMutability": "nonpayable",
      "type": "function"
    },
    {
      "inputs": [
        {
          "internalType": "uint256",
          "name": "amount",
          "type": "uint256"
        }
      ],
      "name": "claimDai",
      "outputs": [],
      "stateMutability": "nonpayable",
      "type": "function"
    },
    {
      "inputs": [],
      "name": "claimMaxDai",
      "outputs": [],
      "stateMutability": "nonpayable",
      "type": "function"
    },
    {
      "inputs": [],
      "name": "decimals",
      "outputs": [
        {
          "internalType": "uint8",
          "name": "",
          "type": "uint8"
        }
      ],
      "stateMutability": "view",
      "type": "function"
    },
    {
      "inputs": [
        {
          "internalType": "address",
          "name": "spender",
          "type": "address"
        },
        {
          "internalType": "uint256",
          "name": "subtractedValue",
          "type": "uint256"
        }
      ],
      "name": "decreaseAllowance",
      "outputs": [
        {
          "internalType": "bool",
          "name": "",
          "type": "bool"
        }
      ],
      "stateMutability": "nonpayable",
      "type": "function"
    },
    {
      "inputs": [
        {
          "internalType": "address",
          "name": "spender",
          "type": "address"
        },
        {
          "internalType": "uint256",
          "name": "addedValue",
          "type": "uint256"
        }
      ],
      "name": "increaseAllowance",
      "outputs": [
        {
          "internalType": "bool",
          "name": "",
          "type": "bool"
        }
      ],
      "stateMutability": "nonpayable",
      "type": "function"
    },
    {
      "inputs": [],
      "name": "isVaultFullfilled",
      "outputs": [
        {
          "internalType": "bool",
          "name": "",
          "type": "bool"
        }
      ],
      "stateMutability": "view",
      "type": "function"
    },
    {
      "inputs": [
        {
          "internalType": "address",
          "name": "sender",
          "type": "address"
        }
      ],
      "name": "maxClaimable",
      "outputs": [
        {
          "internalType": "uint256",
          "name": "max",
          "type": "uint256"
        }
      ],
      "stateMutability": "view",
      "type": "function"
    },
    {
      "inputs": [
        {
          "internalType": "address",
          "name": "account",
          "type": "address"
        },
        {
          "internalType": "uint256",
          "name": "amount",
          "type": "uint256"
        }
      ],
      "name": "mint",
      "outputs": [],
      "stateMutability": "nonpayable",
      "type": "function"
    },
    {
      "inputs": [],
      "name": "multisig",
      "outputs": [
        {
          "internalType": "address payable",
          "name": "",
          "type": "address"
        }
      ],
      "stateMutability": "view",
      "type": "function"
    },
    {
      "inputs": [],
      "name": "name",
      "outputs": [
        {
          "internalType": "string",
          "name": "",
          "type": "string"
        }
      ],
      "stateMutability": "view",
      "type": "function"
    },
    {
      "inputs": [],
      "name": "symbol",
      "outputs": [
        {
          "internalType": "string",
          "name": "",
          "type": "string"
        }
      ],
      "stateMutability": "view",
      "type": "function"
    },
    {
      "inputs": [],
      "name": "totalSupply",
      "outputs": [
        {
          "internalType": "uint256",
          "name": "",
          "type": "uint256"
        }
      ],
      "stateMutability": "view",
      "type": "function"
    },
    {
      "inputs": [
        {
          "internalType": "address",
          "name": "to",
          "type": "address"
        },
        {
          "internalType": "uint256",
          "name": "amount",
          "type": "uint256"
        }
      ],
      "name": "transfer",
      "outputs": [
        {
          "internalType": "bool",
          "name": "",
          "type": "bool"
        }
      ],
      "stateMutability": "nonpayable",
      "type": "function"
    },
    {
      "inputs": [
        {
          "internalType": "address",
          "name": "from",
          "type": "address"
        },
        {
          "internalType": "address",
          "name": "to",
          "type": "address"
        },
        {
          "internalType": "uint256",
          "name": "amount",
          "type": "uint256"
        }
      ],
      "name": "transferFrom",
      "outputs": [
        {
          "internalType": "bool",
          "name": "",
          "type": "bool"
        }
      ],
      "stateMutability": "nonpayable",
      "type": "function"
    },
    {
      "stateMutability": "payable",
      "type": "receive"
    }
  ],
  "bytecode": {
    "object": "0x60806040523480156200001157600080fd5b50604051620012ab380380620012ab8339810160408190526200003491620000f4565b6040518060400160405280601081526020016f213637b1b5a632b0b5b9902a37b5b2b760811b815250604051806040016040528060048152602001634c45414b60e01b81525060016000819055508160049081620000939190620001d8565b506005620000a28282620001d8565b5050600680546001600160a01b039485166001600160a01b031991821617909155600780549390941692169190911790915550620002a4565b6001600160a01b0381168114620000f157600080fd5b50565b600080604083850312156200010857600080fd5b82516200011581620000db565b60208401519092506200012881620000db565b809150509250929050565b634e487b7160e01b600052604160045260246000fd5b600181811c908216806200015e57607f821691505b6020821081036200017f57634e487b7160e01b600052602260045260246000fd5b50919050565b601f821115620001d357600081815260208120601f850160051c81016020861015620001ae5750805b601f850160051c820191505b81811015620001cf57828155600101620001ba565b5050505b505050565b81516001600160401b03811115620001f457620001f462000133565b6200020c8162000205845462000149565b8462000185565b602080601f8311600181146200024457600084156200022b5750858301515b600019600386901b1c1916600185901b178555620001cf565b600085815260208120601f198616915b82811015620002755788860151825594840194600190910190840162000254565b5085821015620002945787850151600019600388901b60f8161c191681555b5050505050600190811b01905550565b610ff780620002b46000396000f3fe60806040526004361061012e5760003560e01c806342966c68116100ab5780637872be301161006f5780637872be30146103ab57806379cc6790146103cb57806395d89b41146103eb578063a457c2d714610400578063a9059cbb14610420578063dd62ed3e1461044057600080fd5b806342966c68146102f35780634783c35b146103135780634f38a4031461034b5780636fe02e6c1461036057806370a082311461037557600080fd5b806325f3df5b116100f257806325f3df5b14610257578063313ce5671461027757806339509351146102935780633f4564be146102b357806340c10f19146102d357600080fd5b806306fdde03146101a4578063095ea7b3146101cf5780630f9d07e4146101ff57806318160ddd1461022257806323b872dd1461023757600080fd5b3661019f5761013b610460565b60006101456104be565b905034811015610192576006546001600160a01b03166108fc6101688334610e23565b6040518115909202916000818181858888f19350505050158015610190573d6000803e3d6000fd5b505b5061019d6001600055565b005b600080fd5b3480156101b057600080fd5b506101b96104d9565b6040516101c69190610e36565b60405180910390f35b3480156101db57600080fd5b506101ef6101ea366004610ea0565b61056b565b60405190151581526020016101c6565b34801561020b57600080fd5b506102146104be565b6040519081526020016101c6565b34801561022e57600080fd5b50600354610214565b34801561024357600080fd5b506101ef610252366004610eca565b610585565b34801561026357600080fd5b50610214610272366004610f06565b6105a9565b34801561028357600080fd5b50604051601281526020016101c6565b34801561029f57600080fd5b506101ef6102ae366004610ea0565b6105ec565b3480156102bf57600080fd5b5061019d6102ce366004610f28565b61060e565b3480156102df57600080fd5b5061019d6102ee366004610ea0565b6106be565b3480156102ff57600080fd5b5061019d61030e366004610f28565b61073f565b34801561031f57600080fd5b50600654610333906001600160a01b031681565b6040516001600160a01b0390911681526020016101c6565b34801561035757600080fd5b5061019d610749565b34801561036c57600080fd5b506101ef6107ec565b34801561038157600080fd5b50610214610390366004610f06565b6001600160a01b031660009081526001602052604090205490565b3480156103b757600080fd5b50600754610333906001600160a01b031681565b3480156103d757600080fd5b5061019d6103e6366004610ea0565b6107fe565b3480156103f757600080fd5b506101b9610813565b34801561040c57600080fd5b506101ef61041b366004610ea0565b610822565b34801561042c57600080fd5b506101ef61043b366004610ea0565b61089d565b34801561044c57600080fd5b5061021461045b366004610f41565b6108ab565b6002600054036104b75760405162461bcd60e51b815260206004820152601f60248201527f5265656e7472616e637947756172643a207265656e7472616e742063616c6c0060448201526064015b60405180910390fd5b6002600055565b6000476104ca60035490565b6104d49190610e23565b905090565b6060600480546104e890610f74565b80601f016020809104026020016040519081016040528092919081815260200182805461051490610f74565b80156105615780601f1061053657610100808354040283529160200191610561565b820191906000526020600020905b81548152906001019060200180831161054457829003601f168201915b5050505050905090565b6000336105798185856108d6565b60019150505b92915050565b6000336105938582856109fb565b61059e858585610a75565b506001949350505050565b6001600160a01b03811660009081526001602052604081205447116105ce574761057f565b6001600160a01b03821660009081526001602052604090205461057f565b6000336105798185856105ff83836108ab565b6106099190610fae565b6108d6565b610616610460565b3381610621826105a9565b101561066f5760405162461bcd60e51b815260206004820152601a60248201527f20436c61696d206d6f7265207468616e2020706f737369626c6500000000000060448201526064016104ae565b6106798183610c20565b6040516001600160a01b0382169083156108fc029084906000818181858888f193505050501580156106af573d6000803e3d6000fd5b50506106bb6001600055565b50565b6007546001600160a01b0316336001600160a01b0316146107315760405162461bcd60e51b815260206004820152602760248201527f4f6e6c7920426c6f636b4c65616b7320436f6e74726163742063616e206d696e6044820152663a103a37b5b2b760c91b60648201526084016104ae565b61073b8282610d4c565b5050565b6106bb3382610c20565b610751610460565b33600061075d826105a9565b90506000811161079d5760405162461bcd60e51b815260206004820152600b60248201526a21b630b4b69032b93937b960a91b60448201526064016104ae565b6107a78282610c20565b6040516001600160a01b0383169082156108fc029083906000818181858888f193505050501580156107dd573d6000803e3d6000fd5b5050506107ea6001600055565b565b60006107f760035490565b4710905090565b6108098233836109fb565b61073b8282610c20565b6060600580546104e890610f74565b6000338161083082866108ab565b9050838110156108905760405162461bcd60e51b815260206004820152602560248201527f45524332303a2064656372656173656420616c6c6f77616e63652062656c6f77604482015264207a65726f60d81b60648201526084016104ae565b61059e82868684036108d6565b600033610579818585610a75565b6001600160a01b03918216600090815260026020908152604080832093909416825291909152205490565b6001600160a01b0383166109385760405162461bcd60e51b8152602060048201526024808201527f45524332303a20617070726f76652066726f6d20746865207a65726f206164646044820152637265737360e01b60648201526084016104ae565b6001600160a01b0382166109995760405162461bcd60e51b815260206004820152602260248201527f45524332303a20617070726f766520746f20746865207a65726f206164647265604482015261737360f01b60648201526084016104ae565b6001600160a01b0383811660008181526002602090815260408083209487168084529482529182902085905590518481527f8c5be1e5ebec7d5bd14f71427d1e84f3dd0314c0f7b2291e5b200ac8c7c3b92591015b60405180910390a3505050565b6000610a0784846108ab565b90506000198114610a6f5781811015610a625760405162461bcd60e51b815260206004820152601d60248201527f45524332303a20696e73756666696369656e7420616c6c6f77616e636500000060448201526064016104ae565b610a6f84848484036108d6565b50505050565b6001600160a01b038316610ad95760405162461bcd60e51b815260206004820152602560248201527f45524332303a207472616e736665722066726f6d20746865207a65726f206164604482015264647265737360d81b60648201526084016104ae565b6001600160a01b038216610b3b5760405162461bcd60e51b815260206004820152602360248201527f45524332303a207472616e7366657220746f20746865207a65726f206164647260448201526265737360e81b60648201526084016104ae565b6001600160a01b03831660009081526001602052604090205481811015610bb35760405162461bcd60e51b815260206004820152602660248201527f45524332303a207472616e7366657220616d6f756e7420657863656564732062604482015265616c616e636560d01b60648201526084016104ae565b6001600160a01b0380851660008181526001602052604080822086860390559286168082529083902080548601905591517fddf252ad1be2c89b69c2b068fc378daa952ba7f163c4a11628f55a4df523b3ef90610c139086815260200190565b60405180910390a3610a6f565b6001600160a01b038216610c805760405162461bcd60e51b815260206004820152602160248201527f45524332303a206275726e2066726f6d20746865207a65726f206164647265736044820152607360f81b60648201526084016104ae565b6001600160a01b03821660009081526001602052604090205481811015610cf45760405162461bcd60e51b815260206004820152602260248201527f45524332303a206275726e20616d6f756e7420657863656564732062616c616e604482015261636560f01b60648201526084016104ae565b6001600160a01b03831660008181526001602090815260408083208686039055600380548790039055518581529192917fddf252ad1be2c89b69c2b068fc378daa952ba7f163c4a11628f55a4df523b3ef91016109ee565b6001600160a01b038216610da25760405162461bcd60e51b815260206004820152601f60248201527f45524332303a206d696e7420746f20746865207a65726f20616464726573730060448201526064016104ae565b8060036000828254610db49190610fae565b90915550506001600160a01b0382166000818152600160209081526040808320805486019055518481527fddf252ad1be2c89b69c2b068fc378daa952ba7f163c4a11628f55a4df523b3ef910160405180910390a35050565b634e487b7160e01b600052601160045260246000fd5b8181038181111561057f5761057f610e0d565b600060208083528351808285015260005b81811015610e6357858101830151858201604001528201610e47565b506000604082860101526040601f19601f8301168501019250505092915050565b80356001600160a01b0381168114610e9b57600080fd5b919050565b60008060408385031215610eb357600080fd5b610ebc83610e84565b946020939093013593505050565b600080600060608486031215610edf57600080fd5b610ee884610e84565b9250610ef660208501610e84565b9150604084013590509250925092565b600060208284031215610f1857600080fd5b610f2182610e84565b9392505050565b600060208284031215610f3a57600080fd5b5035919050565b60008060408385031215610f5457600080fd5b610f5d83610e84565b9150610f6b60208401610e84565b90509250929050565b600181811c90821680610f8857607f821691505b602082108103610fa857634e487b7160e01b600052602260045260246000fd5b50919050565b8082018082111561057f5761057f610e0d56fea26469706673582212206d69345d921467bef4c58299845a7f5c71272ae63e69903b9876e5a3c3ac381664736f6c63430008130033",
    "linkReferences": {}
  },
  "methodIdentifiers": {
    "allowance(address,address)": "dd62ed3e",
    "approve(address,uint256)": "095ea7b3",
    "backingDifference()": "0f9d07e4",
    "balanceOf(address)": "70a08231",
    "blockLeaksContract()": "7872be30",
    "burn(uint256)": "42966c68",
    "burnFrom(address,uint256)": "79cc6790",
    "claimDai(uint256)": "3f4564be",
    "claimMaxDai()": "4f38a403",
    "decimals()": "313ce567",
    "decreaseAllowance(address,uint256)": "a457c2d7",
    "increaseAllowance(address,uint256)": "39509351",
    "isVaultFullfilled()": "6fe02e6c",
    "maxClaimable(address)": "25f3df5b",
    "mint(address,uint256)": "40c10f19",
    "multisig()": "4783c35b",
    "name()": "06fdde03",
    "symbol()": "95d89b41",
    "totalSupply()": "18160ddd",
    "transfer(address,uint256)": "a9059cbb",
    "transferFrom(address,address,uint256)": "23b872dd"
  },
  "id": 23
}